{
  "_format": "hh-sol-artifact-1",
  "contractName": "ProgramFacet",
  "sourceName": "contracts/facets/ProgramFacet.sol",
  "abi": [
    {
      "inputs": [
        {
          "internalType": "address",
          "name": "_user",
          "type": "address"
        }
      ],
      "name": "getMessage",
      "outputs": [
        {
          "internalType": "string",
          "name": "",
          "type": "string"
        }
      ],
      "stateMutability": "view",
      "type": "function"
    },
    {
      "inputs": [
        {
          "internalType": "string",
          "name": "_message",
          "type": "string"
        }
      ],
      "name": "setMessage",
      "outputs": [],
      "stateMutability": "nonpayable",
      "type": "function"
    }
  ],
  "bytecode": "0x6080806040523461001657610475908161001c8239f35b600080fdfe608060408181526004918236101561001657600080fd5b600090813560e01c908163368b87721461018157506355448fe11461003a57600080fd5b3461017e576020928360031936011261017a57356001600160a01b038116810361017a576001600160a01b031660009081527f08aeb366c670880ca8c48c31d23d5d18eeaa75d70521a1a50ec86c06568c2da360205260409020908383518093839080546100a781610405565b80855291600191808316908115610157575060011461011a575b5050506100d492509593929503826103cd565b82519382859384528251928382860152825b84811061010457505050828201840152601f01601f19168101030190f35b81810183015188820188015287955082016100e6565b86528486209492508591905b81831061013f5750889450508201016100d438806100c1565b85548884018501529485019487945091830191610126565b925050506100d494925060ff191682840152151560051b820101869238806100c1565b5080fd5b80fd5b828585346103c957602093846003193601126103c55782359267ffffffffffffffff928385116103c157366023860112156103c157848201359384116103c157602492368486880101116103ac5786546370a0823160e01b8252338483015288908290869082906001600160a01b03165afa9081156103b7578791610386575b50156103365750503360009081527f08aeb366c670880ca8c48c31d23d5d18eeaa75d70521a1a50ec86c06568c2da360205260409020926102428454610405565b601f81116102f3575b508495601f841160011461028b57509484958394959361027e575b5050508160011b916000199060031b1c191617905580f35b0101359050848080610266565b91601f198416968587528387209387905b8982106102d9575050846001969798106102bd575b50505050811b01905580f35b60001960f88660031b161c1992010135169055848080806102b1565b80600184978683959689010135815501960192019061029c565b848652868620601f850160051c81019188861061032c575b601f0160051c01905b818110610321575061024b565b868155600101610314565b909150819061030b565b60849287602792519362461bcd60e51b85528401528201527f4d757374206265206120746f6b656e20686f6c64657220746f207365742061206044820152666d65737361676560c81b6064820152fd5b90508781813d83116103b0575b61039d81836103cd565b810103126103ac575188610201565b8680fd5b503d610393565b82513d89823e3d90fd5b8580fd5b8380fd5b8280fd5b90601f8019910116810190811067ffffffffffffffff8211176103ef57604052565b634e487b7160e01b600052604160045260246000fd5b90600182811c92168015610435575b602083101461041f57565b634e487b7160e01b600052602260045260246000fd5b91607f169161041456fea26469706673582212208c4d323fafdfdd28045481a2b49580be0ec0fbebde3762792911c2471b62138064736f6c63430008180033",
  "linkReferences": {},
  "deployedLinkReferences": {}
}