{
  "_format": "hh-sol-artifact-1",
  "contractName": "AMMFacet",
  "sourceName": "contracts/AMMFacet.sol",
  "abi": [
    {
      "anonymous": false,
      "inputs": [
        {
          "indexed": true,
          "internalType": "address",
          "name": "provider",
          "type": "address"
        },
        {
          "indexed": false,
          "internalType": "uint256",
          "name": "amountNative",
          "type": "uint256"
        },
        {
          "indexed": false,
          "internalType": "uint256",
          "name": "amountUSDC",
          "type": "uint256"
        },
        {
          "indexed": false,
          "internalType": "uint256",
          "name": "liquidityMinted",
          "type": "uint256"
        }
      ],
      "name": "LiquidityAdded",
      "type": "event"
    },
    {
      "anonymous": false,
      "inputs": [
        {
          "indexed": true,
          "internalType": "address",
          "name": "provider",
          "type": "address"
        },
        {
          "indexed": false,
          "internalType": "uint256",
          "name": "amountNative",
          "type": "uint256"
        },
        {
          "indexed": false,
          "internalType": "uint256",
          "name": "amountUSDC",
          "type": "uint256"
        },
        {
          "indexed": false,
          "internalType": "uint256",
          "name": "liquidityBurned",
          "type": "uint256"
        }
      ],
      "name": "LiquidityRemoved",
      "type": "event"
    },
    {
      "anonymous": false,
      "inputs": [
        {
          "indexed": true,
          "internalType": "address",
          "name": "sender",
          "type": "address"
        },
        {
          "indexed": false,
          "internalType": "uint256",
          "name": "amountIn",
          "type": "uint256"
        },
        {
          "indexed": false,
          "internalType": "uint256",
          "name": "amountOut",
          "type": "uint256"
        },
        {
          "indexed": true,
          "internalType": "address",
          "name": "tokenIn",
          "type": "address"
        }
      ],
      "name": "Swap",
      "type": "event"
    },
    {
      "anonymous": false,
      "inputs": [
        {
          "indexed": true,
          "internalType": "address",
          "name": "from",
          "type": "address"
        },
        {
          "indexed": true,
          "internalType": "address",
          "name": "to",
          "type": "address"
        },
        {
          "indexed": false,
          "internalType": "uint256",
          "name": "value",
          "type": "uint256"
        }
      ],
      "name": "Transfer",
      "type": "event"
    },
    {
      "inputs": [
        {
          "internalType": "uint256",
          "name": "amountUSDCDesired",
          "type": "uint256"
        }
      ],
      "name": "addLiquidity",
      "outputs": [],
      "stateMutability": "payable",
      "type": "function"
    },
    {
      "inputs": [],
      "name": "getReserves",
      "outputs": [
        {
          "internalType": "uint256",
          "name": "reserveNative",
          "type": "uint256"
        },
        {
          "internalType": "uint256",
          "name": "reserveUSDC",
          "type": "uint256"
        }
      ],
      "stateMutability": "view",
      "type": "function"
    },
    {
      "inputs": [],
      "name": "getUSDPrice",
      "outputs": [
        {
          "internalType": "uint256",
          "name": "price",
          "type": "uint256"
        }
      ],
      "stateMutability": "view",
      "type": "function"
    },
    {
      "inputs": [
        {
          "internalType": "address",
          "name": "_usdcToken",
          "type": "address"
        }
      ],
      "name": "init",
      "outputs": [],
      "stateMutability": "nonpayable",
      "type": "function"
    },
    {
      "inputs": [
        {
          "internalType": "uint256",
          "name": "liquidity",
          "type": "uint256"
        }
      ],
      "name": "removeLiquidity",
      "outputs": [],
      "stateMutability": "nonpayable",
      "type": "function"
    },
    {
      "inputs": [
        {
          "internalType": "uint256",
          "name": "amountIn",
          "type": "uint256"
        },
        {
          "internalType": "address",
          "name": "tokenIn",
          "type": "address"
        }
      ],
      "name": "swap",
      "outputs": [],
      "stateMutability": "payable",
      "type": "function"
    }
  ],
  "bytecode": "0x6080806040523461001657610ce4908161001c8239f35b600080fdfe60406080815260048036101561001457600080fd5b600091823560e01c80630902f1ac1461097e57806319ab453c146108e757806351c6590a146106405780639c8f9f23146103bf578063c338287f146103975763d3986f081461006257600080fd5b80600319360112610393576001600160a01b0360248035828116949193929085900361038f578135936100936109e0565b919092600080516020610c8f83398151915281815416808a1460001461025257508715610210575486516323b872dd60e01b81523387820190815230602082810191909152604082018b9052919391928492169082908d90829060600103925af1908115610206579061010d918a916101d7575b50610ae8565b6103e58602926103e419878504016101c5578361012991610a9d565b936103e8928381029381850414901517156101b4575050610154929161014e91610b98565b90610ab0565b84808280156101aa575b8280929181923390f1156101a057907f2a9237ff5aa599ef4c5ee4b1142b53429d5755e2685fe6288b2e3320202115f5915b815193845260208401523392a380f35b81513d86823e3d90fd5b6108fc915061015e565b634e487b7160e01b89526011905287fd5b50634e487b7160e01b88526011845287fd5b6101f9915060203d6020116101ff575b6101f181836109a8565b810190610ad0565b38610107565b503d6101e7565b86513d8b823e3d90fd5b865162461bcd60e51b8152602081880152601a818501527f416d6f756e7420696e206d75737420626520706f7369746976650000000000006044820152606490fd5b97505050913415610341576103e591823402923484040361032f578261027791610a9d565b926103e89182810292818404149015171561031e575060209261014e6102cf95936102a193610b98565b845163a9059cbb60e01b8152339281019283526020830182905290959093849283918a918391604090910190565b03925af1908115610314577f2a9237ff5aa599ef4c5ee4b1142b53429d5755e2685fe6288b2e3320202115f5929161030d9187916101d75750610ae8565b3492610190565b82513d87823e3d90fd5b634e487b7160e01b89526011855288fd5b634e487b7160e01b8952601185528389fd5b50506020608493519262461bcd60e51b8452830152808201527f4d7573742073656e64206e617469766520617373657420666f722074686973206044820152630737761760e41b6064820152fd5b8580fd5b8280fd5b8382346103bb57816003193601126103bb576020906103b4610b2b565b9051908152f35b5080fd5b508290346103bb57602080600319360112610393578335907f30c3d94c9412176421426071a99648cfd101fdf4843cf6108b60739ebb404a5a9081549583151580610636575b156105f5576104368761042a61042f61042a98999a6104226109e0565b9a908a610a9d565b610ab0565b9787610a9d565b923388527f30c3d94c9412176421426071a99648cfd101fdf4843cf6108b60739ebb404a58808452878920548681106105a7578661047391610a7a565b90338a52845287892055610488858254610a7a565b90558686518581527fddf252ad1be2c89b69c2b068fc378daa952ba7f163c4a11628f55a4df523b3ef843392a3868086801561059d575b8280929181923390f11561059357600080516020610c8f83398151915254865163a9059cbb60e01b8152339281019283526020830185905291839183918290036040019082908b906001600160a01b03165af1801561058957917f1dc8bb69df2b8e91fbdcbfcf93d951b3f0000f085a95fe3f7946d6161439245d9596916105659361056b575b5050519283923396846040919493926060820195825260208201520152565b0390a280f35b8161058192903d106101ff576101f181836109a8565b508780610546565b86513d89823e3d90fd5b85513d88823e3d90fd5b6108fc91506104bf565b885162461bcd60e51b8152808501869052602260248201527f45524332303a206275726e20616d6f756e7420657863656564732062616c616e604482015261636560f01b6064820152608490fd5b60649185519162461bcd60e51b8352820152601860248201527f496e76616c6964206c697175696469747920616d6f756e7400000000000000006044820152fd5b5086841115610405565b506020806003193601126108e3578235927f30c3d94c9412176421426071a99648cfd101fdf4843cf6108b60739ebb404a5a8054156000146107aa575034156107695781846106e0926106933433610ba5565b600080516020610c8f8339815191525486516323b872dd60e01b8152339281019283523060208401526040830193909352919384926001600160a01b03169183918a918391606090910190565b03925af191821561075f5791610721917f64b83944e79c3ce8d4c297411de637c3e102d064677aac0c163976ebdcd6f50e94938792610742575b5050610ae8565b51806105653394349034846040919493926060820195825260208201520152565b6107589250803d106101ff576101f181836109a8565b388061071a565b83513d87823e3d90fd5b915162461bcd60e51b815291820152601d60248201527f496e697469616c206c6971756964697479206d757374206265203e20300000006044820152606490fd5b909161042a926107d06107c76107be6109e0565b91903490610a7a565b95869134610a9d565b8096106108a257600080516020610c8f8339815191525485516323b872dd60e01b8152339281019283523060208401526040830188905291839183918290036060019082908b906001600160a01b03165af1918215610898577f64b83944e79c3ce8d4c297411de637c3e102d064677aac0c163976ebdcd6f50e959361086961087094610565979461042a948c92610742575050610ae8565b5434610a9d565b9061087b8233610ba5565b513481526020810194909452604084015233929081906060820190565b85513d89823e3d90fd5b60649185519162461bcd60e51b8352820152601860248201527f496e73756666696369656e74205553444320616d6f756e7400000000000000006044820152fd5b8380fd5b50346103935760203660031901126103935781356001600160a01b038116908190036108e357600080516020610c8f8339815191529283549260ff8460a01c166109455750506001600160a81b031990911617600160a01b17905580f35b906020606492519162461bcd60e51b83528201526013602482015272105b1c9958591e481a5b9a5d1a585b1a5e9959606a1b6044820152fd5b5082346109a557806003193601126109a557506109996109e0565b82519182526020820152f35b80fd5b90601f8019910116810190811067ffffffffffffffff8211176109ca57604052565b634e487b7160e01b600052604160045260246000fd5b600080516020610c8f8339815191525447916000916001600160a01b031680610a065750565b6040516370a0823160e01b8152306004820152919250602090829060249082905afa908115610a6e57600091610a3a575090565b90506020813d602011610a66575b81610a55602093836109a8565b81010312610a61575190565b600080fd5b3d9150610a48565b6040513d6000823e3d90fd5b91908203918211610a8757565b634e487b7160e01b600052601160045260246000fd5b81810292918115918404141715610a8757565b8115610aba570490565b634e487b7160e01b600052601260045260246000fd5b90816020910312610a6157518015158103610a615790565b15610aef57565b60405162461bcd60e51b81526020600482015260146024820152731554d110c81d1c985b9cd9995c8819985a5b195960621b6044820152606490fd5b610b336109e0565b9080158015610b90575b610b8957670de0b6b3a764000091828102928184041481151715610a87576c0c9f2c9cd04674edea40000000029180830464e8d4a510001490151715610a8757610b8691610ab0565b90565b5050600090565b508115610b3d565b91908201809211610a8757565b6001600160a01b0316908115610c49577fddf252ad1be2c89b69c2b068fc378daa952ba7f163c4a11628f55a4df523b3ef60206000927f30c3d94c9412176421426071a99648cfd101fdf4843cf6108b60739ebb404a5a610c07828254610b98565b90558484527f30c3d94c9412176421426071a99648cfd101fdf4843cf6108b60739ebb404a58825260408420610c3e828254610b98565b9055604051908152a3565b60405162461bcd60e51b815260206004820152601b60248201527f45524332303a206d696e7420746f207a65726f206164647265737300000000006044820152606490fdfe9513e43fa7808f2a86971bf1bf58b6525085b82cb8b5057cd96ba8d8ba064146a26469706673582212209b19c77ea1459a24656a22e37cba14c8632a7032ac29bb465d3b0f3e004ae40664736f6c63430008180033",
  "linkReferences": {},
  "deployedLinkReferences": {}
}