{"contracts/AMMFacet.sol":{"AMMFacet":{"abi":[{"anonymous":false,"inputs":[{"indexed":true,"internalType":"address","name":"provider","type":"address"},{"indexed":false,"internalType":"uint256","name":"amountNative","type":"uint256"},{"indexed":false,"internalType":"uint256","name":"amountUSDC","type":"uint256"},{"indexed":false,"internalType":"uint256","name":"liquidityMinted","type":"uint256"}],"name":"LiquidityAdded","type":"event"},{"anonymous":false,"inputs":[{"indexed":true,"internalType":"address","name":"provider","type":"address"},{"indexed":false,"internalType":"uint256","name":"amountNative","type":"uint256"},{"indexed":false,"internalType":"uint256","name":"amountUSDC","type":"uint256"},{"indexed":false,"internalType":"uint256","name":"liquidityBurned","type":"uint256"}],"name":"LiquidityRemoved","type":"event"},{"anonymous":false,"inputs":[{"indexed":true,"internalType":"address","name":"sender","type":"address"},{"indexed":false,"internalType":"uint256","name":"amountIn","type":"uint256"},{"indexed":false,"internalType":"uint256","name":"amountOut","type":"uint256"},{"indexed":true,"internalType":"address","name":"tokenIn","type":"address"}],"name":"Swap","type":"event"},{"anonymous":false,"inputs":[{"indexed":true,"internalType":"address","name":"from","type":"address"},{"indexed":true,"internalType":"address","name":"to","type":"address"},{"indexed":false,"internalType":"uint256","name":"value","type":"uint256"}],"name":"Transfer","type":"event"},{"inputs":[{"internalType":"uint256","name":"amountUSDCDesired","type":"uint256"}],"name":"addLiquidity","outputs":[],"stateMutability":"payable","type":"function"},{"inputs":[],"name":"getReserves","outputs":[{"internalType":"uint256","name":"reserveNative","type":"uint256"},{"internalType":"uint256","name":"reserveUSDC","type":"uint256"}],"stateMutability":"view","type":"function"},{"inputs":[],"name":"getUSDPrice","outputs":[{"internalType":"uint256","name":"price","type":"uint256"}],"stateMutability":"view","type":"function"},{"inputs":[{"internalType":"address","name":"_usdcToken","type":"address"}],"name":"init","outputs":[],"stateMutability":"nonpayable","type":"function"},{"inputs":[{"internalType":"uint256","name":"liquidity","type":"uint256"}],"name":"removeLiquidity","outputs":[],"stateMutability":"nonpayable","type":"function"},{"inputs":[{"internalType":"uint256","name":"amountIn","type":"uint256"},{"internalType":"address","name":"tokenIn","type":"address"}],"name":"swap","outputs":[],"stateMutability":"payable","type":"function"}],"evm":{"bytecode":{"linkReferences":{},"object":"6080806040523461001657610ce4908161001c8239f35b600080fdfe60406080815260048036101561001457600080fd5b600091823560e01c80630902f1ac1461097e57806319ab453c146108e757806351c6590a146106405780639c8f9f23146103bf578063c338287f146103975763d3986f081461006257600080fd5b80600319360112610393576001600160a01b0360248035828116949193929085900361038f578135936100936109e0565b919092600080516020610c8f83398151915281815416808a1460001461025257508715610210575486516323b872dd60e01b81523387820190815230602082810191909152604082018b9052919391928492169082908d90829060600103925af1908115610206579061010d918a916101d7575b50610ae8565b6103e58602926103e419878504016101c5578361012991610a9d565b936103e8928381029381850414901517156101b4575050610154929161014e91610b98565b90610ab0565b84808280156101aa575b8280929181923390f1156101a057907f2a9237ff5aa599ef4c5ee4b1142b53429d5755e2685fe6288b2e3320202115f5915b815193845260208401523392a380f35b81513d86823e3d90fd5b6108fc915061015e565b634e487b7160e01b89526011905287fd5b50634e487b7160e01b88526011845287fd5b6101f9915060203d6020116101ff575b6101f181836109a8565b810190610ad0565b38610107565b503d6101e7565b86513d8b823e3d90fd5b865162461bcd60e51b8152602081880152601a818501527f416d6f756e7420696e206d75737420626520706f7369746976650000000000006044820152606490fd5b97505050913415610341576103e591823402923484040361032f578261027791610a9d565b926103e89182810292818404149015171561031e575060209261014e6102cf95936102a193610b98565b845163a9059cbb60e01b8152339281019283526020830182905290959093849283918a918391604090910190565b03925af1908115610314577f2a9237ff5aa599ef4c5ee4b1142b53429d5755e2685fe6288b2e3320202115f5929161030d9187916101d75750610ae8565b3492610190565b82513d87823e3d90fd5b634e487b7160e01b89526011855288fd5b634e487b7160e01b8952601185528389fd5b50506020608493519262461bcd60e51b8452830152808201527f4d7573742073656e64206e617469766520617373657420666f722074686973206044820152630737761760e41b6064820152fd5b8580fd5b8280fd5b8382346103bb57816003193601126103bb576020906103b4610b2b565b9051908152f35b5080fd5b508290346103bb57602080600319360112610393578335907f30c3d94c9412176421426071a99648cfd101fdf4843cf6108b60739ebb404a5a9081549583151580610636575b156105f5576104368761042a61042f61042a98999a6104226109e0565b9a908a610a9d565b610ab0565b9787610a9d565b923388527f30c3d94c9412176421426071a99648cfd101fdf4843cf6108b60739ebb404a58808452878920548681106105a7578661047391610a7a565b90338a52845287892055610488858254610a7a565b90558686518581527fddf252ad1be2c89b69c2b068fc378daa952ba7f163c4a11628f55a4df523b3ef843392a3868086801561059d575b8280929181923390f11561059357600080516020610c8f83398151915254865163a9059cbb60e01b8152339281019283526020830185905291839183918290036040019082908b906001600160a01b03165af1801561058957917f1dc8bb69df2b8e91fbdcbfcf93d951b3f0000f085a95fe3f7946d6161439245d9596916105659361056b575b5050519283923396846040919493926060820195825260208201520152565b0390a280f35b8161058192903d106101ff576101f181836109a8565b508780610546565b86513d89823e3d90fd5b85513d88823e3d90fd5b6108fc91506104bf565b885162461bcd60e51b8152808501869052602260248201527f45524332303a206275726e20616d6f756e7420657863656564732062616c616e604482015261636560f01b6064820152608490fd5b60649185519162461bcd60e51b8352820152601860248201527f496e76616c6964206c697175696469747920616d6f756e7400000000000000006044820152fd5b5086841115610405565b506020806003193601126108e3578235927f30c3d94c9412176421426071a99648cfd101fdf4843cf6108b60739ebb404a5a8054156000146107aa575034156107695781846106e0926106933433610ba5565b600080516020610c8f8339815191525486516323b872dd60e01b8152339281019283523060208401526040830193909352919384926001600160a01b03169183918a918391606090910190565b03925af191821561075f5791610721917f64b83944e79c3ce8d4c297411de637c3e102d064677aac0c163976ebdcd6f50e94938792610742575b5050610ae8565b51806105653394349034846040919493926060820195825260208201520152565b6107589250803d106101ff576101f181836109a8565b388061071a565b83513d87823e3d90fd5b915162461bcd60e51b815291820152601d60248201527f496e697469616c206c6971756964697479206d757374206265203e20300000006044820152606490fd5b909161042a926107d06107c76107be6109e0565b91903490610a7a565b95869134610a9d565b8096106108a257600080516020610c8f8339815191525485516323b872dd60e01b8152339281019283523060208401526040830188905291839183918290036060019082908b906001600160a01b03165af1918215610898577f64b83944e79c3ce8d4c297411de637c3e102d064677aac0c163976ebdcd6f50e959361086961087094610565979461042a948c92610742575050610ae8565b5434610a9d565b9061087b8233610ba5565b513481526020810194909452604084015233929081906060820190565b85513d89823e3d90fd5b60649185519162461bcd60e51b8352820152601860248201527f496e73756666696369656e74205553444320616d6f756e7400000000000000006044820152fd5b8380fd5b50346103935760203660031901126103935781356001600160a01b038116908190036108e357600080516020610c8f8339815191529283549260ff8460a01c166109455750506001600160a81b031990911617600160a01b17905580f35b906020606492519162461bcd60e51b83528201526013602482015272105b1c9958591e481a5b9a5d1a585b1a5e9959606a1b6044820152fd5b5082346109a557806003193601126109a557506109996109e0565b82519182526020820152f35b80fd5b90601f8019910116810190811067ffffffffffffffff8211176109ca57604052565b634e487b7160e01b600052604160045260246000fd5b600080516020610c8f8339815191525447916000916001600160a01b031680610a065750565b6040516370a0823160e01b8152306004820152919250602090829060249082905afa908115610a6e57600091610a3a575090565b90506020813d602011610a66575b81610a55602093836109a8565b81010312610a61575190565b600080fd5b3d9150610a48565b6040513d6000823e3d90fd5b91908203918211610a8757565b634e487b7160e01b600052601160045260246000fd5b81810292918115918404141715610a8757565b8115610aba570490565b634e487b7160e01b600052601260045260246000fd5b90816020910312610a6157518015158103610a615790565b15610aef57565b60405162461bcd60e51b81526020600482015260146024820152731554d110c81d1c985b9cd9995c8819985a5b195960621b6044820152606490fd5b610b336109e0565b9080158015610b90575b610b8957670de0b6b3a764000091828102928184041481151715610a87576c0c9f2c9cd04674edea40000000029180830464e8d4a510001490151715610a8757610b8691610ab0565b90565b5050600090565b508115610b3d565b91908201809211610a8757565b6001600160a01b0316908115610c49577fddf252ad1be2c89b69c2b068fc378daa952ba7f163c4a11628f55a4df523b3ef60206000927f30c3d94c9412176421426071a99648cfd101fdf4843cf6108b60739ebb404a5a610c07828254610b98565b90558484527f30c3d94c9412176421426071a99648cfd101fdf4843cf6108b60739ebb404a58825260408420610c3e828254610b98565b9055604051908152a3565b60405162461bcd60e51b815260206004820152601b60248201527f45524332303a206d696e7420746f207a65726f206164647265737300000000006044820152606490fdfe9513e43fa7808f2a86971bf1bf58b6525085b82cb8b5057cd96ba8d8ba064146a26469706673582212209b19c77ea1459a24656a22e37cba14c8632a7032ac29bb465d3b0f3e004ae40664736f6c63430008180033","opcodes":"PUSH1 0x80 DUP1 PUSH1 0x40 MSTORE CALLVALUE PUSH2 0x16 JUMPI PUSH2 0xCE4 SWAP1 DUP2 PUSH2 0x1C DUP3 CODECOPY RETURN JUMPDEST PUSH1 0x0 DUP1 REVERT INVALID PUSH1 0x40 PUSH1 0x80 DUP2 MSTORE PUSH1 0x4 DUP1 CALLDATASIZE LT ISZERO PUSH2 0x14 JUMPI PUSH1 0x0 DUP1 REVERT JUMPDEST PUSH1 0x0 SWAP2 DUP3 CALLDATALOAD PUSH1 0xE0 SHR DUP1 PUSH4 0x902F1AC EQ PUSH2 0x97E JUMPI DUP1 PUSH4 0x19AB453C EQ PUSH2 0x8E7 JUMPI DUP1 PUSH4 0x51C6590A EQ PUSH2 0x640 JUMPI DUP1 PUSH4 0x9C8F9F23 EQ PUSH2 0x3BF JUMPI DUP1 PUSH4 0xC338287F EQ PUSH2 0x397 JUMPI PUSH4 0xD3986F08 EQ PUSH2 0x62 JUMPI PUSH1 0x0 DUP1 REVERT JUMPDEST DUP1 PUSH1 0x3 NOT CALLDATASIZE ADD SLT PUSH2 0x393 JUMPI PUSH1 0x1 PUSH1 0x1 PUSH1 0xA0 SHL SUB PUSH1 0x24 DUP1 CALLDATALOAD DUP3 DUP2 AND SWAP5 SWAP2 SWAP4 SWAP3 SWAP1 DUP6 SWAP1 SUB PUSH2 0x38F JUMPI DUP2 CALLDATALOAD SWAP4 PUSH2 0x93 PUSH2 0x9E0 JUMP JUMPDEST SWAP2 SWAP1 SWAP3 PUSH1 0x0 DUP1 MLOAD PUSH1 0x20 PUSH2 0xC8F DUP4 CODECOPY DUP2 MLOAD SWAP2 MSTORE DUP2 DUP2 SLOAD AND DUP1 DUP11 EQ PUSH1 0x0 EQ PUSH2 0x252 JUMPI POP DUP8 ISZERO PUSH2 0x210 JUMPI SLOAD DUP7 MLOAD PUSH4 0x23B872DD PUSH1 0xE0 SHL DUP2 MSTORE CALLER DUP8 DUP3 ADD SWAP1 DUP2 MSTORE ADDRESS PUSH1 0x20 DUP3 DUP2 ADD SWAP2 SWAP1 SWAP2 MSTORE PUSH1 0x40 DUP3 ADD DUP12 SWAP1 MSTORE SWAP2 SWAP4 SWAP2 SWAP3 DUP5 SWAP3 AND SWAP1 DUP3 SWAP1 DUP14 SWAP1 DUP3 SWAP1 PUSH1 0x60 ADD SUB SWAP3 GAS CALL SWAP1 DUP2 ISZERO PUSH2 0x206 JUMPI SWAP1 PUSH2 0x10D SWAP2 DUP11 SWAP2 PUSH2 0x1D7 JUMPI JUMPDEST POP PUSH2 0xAE8 JUMP JUMPDEST PUSH2 0x3E5 DUP7 MUL SWAP3 PUSH2 0x3E4 NOT DUP8 DUP6 DIV ADD PUSH2 0x1C5 JUMPI DUP4 PUSH2 0x129 SWAP2 PUSH2 0xA9D JUMP JUMPDEST SWAP4 PUSH2 0x3E8 SWAP3 DUP4 DUP2 MUL SWAP4 DUP2 DUP6 DIV EQ SWAP1 ISZERO OR ISZERO PUSH2 0x1B4 JUMPI POP POP PUSH2 0x154 SWAP3 SWAP2 PUSH2 0x14E SWAP2 PUSH2 0xB98 JUMP JUMPDEST SWAP1 PUSH2 0xAB0 JUMP JUMPDEST DUP5 DUP1 DUP3 DUP1 ISZERO PUSH2 0x1AA JUMPI JUMPDEST DUP3 DUP1 SWAP3 SWAP2 DUP2 SWAP3 CALLER SWAP1 CALL ISZERO PUSH2 0x1A0 JUMPI SWAP1 PUSH32 0x2A9237FF5AA599EF4C5EE4B1142B53429D5755E2685FE6288B2E3320202115F5 SWAP2 JUMPDEST DUP2 MLOAD SWAP4 DUP5 MSTORE PUSH1 0x20 DUP5 ADD MSTORE CALLER SWAP3 LOG3 DUP1 RETURN JUMPDEST DUP2 MLOAD RETURNDATASIZE DUP7 DUP3 RETURNDATACOPY RETURNDATASIZE SWAP1 REVERT JUMPDEST PUSH2 0x8FC SWAP2 POP PUSH2 0x15E JUMP JUMPDEST PUSH4 0x4E487B71 PUSH1 0xE0 SHL DUP10 MSTORE PUSH1 0x11 SWAP1 MSTORE DUP8 REVERT JUMPDEST POP PUSH4 0x4E487B71 PUSH1 0xE0 SHL DUP9 MSTORE PUSH1 0x11 DUP5 MSTORE DUP8 REVERT JUMPDEST PUSH2 0x1F9 SWAP2 POP PUSH1 0x20 RETURNDATASIZE PUSH1 0x20 GT PUSH2 0x1FF JUMPI JUMPDEST PUSH2 0x1F1 DUP2 DUP4 PUSH2 0x9A8 JUMP JUMPDEST DUP2 ADD SWAP1 PUSH2 0xAD0 JUMP JUMPDEST CODESIZE PUSH2 0x107 JUMP JUMPDEST POP RETURNDATASIZE PUSH2 0x1E7 JUMP JUMPDEST DUP7 MLOAD RETURNDATASIZE DUP12 DUP3 RETURNDATACOPY RETURNDATASIZE SWAP1 REVERT JUMPDEST DUP7 MLOAD PUSH3 0x461BCD PUSH1 0xE5 SHL DUP2 MSTORE PUSH1 0x20 DUP2 DUP9 ADD MSTORE PUSH1 0x1A DUP2 DUP6 ADD MSTORE PUSH32 0x416D6F756E7420696E206D75737420626520706F736974697665000000000000 PUSH1 0x44 DUP3 ADD MSTORE PUSH1 0x64 SWAP1 REVERT JUMPDEST SWAP8 POP POP POP SWAP2 CALLVALUE ISZERO PUSH2 0x341 JUMPI PUSH2 0x3E5 SWAP2 DUP3 CALLVALUE MUL SWAP3 CALLVALUE DUP5 DIV SUB PUSH2 0x32F JUMPI DUP3 PUSH2 0x277 SWAP2 PUSH2 0xA9D JUMP JUMPDEST SWAP3 PUSH2 0x3E8 SWAP2 DUP3 DUP2 MUL SWAP3 DUP2 DUP5 DIV EQ SWAP1 ISZERO OR ISZERO PUSH2 0x31E JUMPI POP PUSH1 0x20 SWAP3 PUSH2 0x14E PUSH2 0x2CF SWAP6 SWAP4 PUSH2 0x2A1 SWAP4 PUSH2 0xB98 JUMP JUMPDEST DUP5 MLOAD PUSH4 0xA9059CBB PUSH1 0xE0 SHL DUP2 MSTORE CALLER SWAP3 DUP2 ADD SWAP3 DUP4 MSTORE PUSH1 0x20 DUP4 ADD DUP3 SWAP1 MSTORE SWAP1 SWAP6 SWAP1 SWAP4 DUP5 SWAP3 DUP4 SWAP2 DUP11 SWAP2 DUP4 SWAP2 PUSH1 0x40 SWAP1 SWAP2 ADD SWAP1 JUMP JUMPDEST SUB SWAP3 GAS CALL SWAP1 DUP2 ISZERO PUSH2 0x314 JUMPI PUSH32 0x2A9237FF5AA599EF4C5EE4B1142B53429D5755E2685FE6288B2E3320202115F5 SWAP3 SWAP2 PUSH2 0x30D SWAP2 DUP8 SWAP2 PUSH2 0x1D7 JUMPI POP PUSH2 0xAE8 JUMP JUMPDEST CALLVALUE SWAP3 PUSH2 0x190 JUMP JUMPDEST DUP3 MLOAD RETURNDATASIZE DUP8 DUP3 RETURNDATACOPY RETURNDATASIZE SWAP1 REVERT JUMPDEST PUSH4 0x4E487B71 PUSH1 0xE0 SHL DUP10 MSTORE PUSH1 0x11 DUP6 MSTORE DUP9 REVERT JUMPDEST PUSH4 0x4E487B71 PUSH1 0xE0 SHL DUP10 MSTORE PUSH1 0x11 DUP6 MSTORE DUP4 DUP10 REVERT JUMPDEST POP POP PUSH1 0x20 PUSH1 0x84 SWAP4 MLOAD SWAP3 PUSH3 0x461BCD PUSH1 0xE5 SHL DUP5 MSTORE DUP4 ADD MSTORE DUP1 DUP3 ADD MSTORE PUSH32 0x4D7573742073656E64206E617469766520617373657420666F72207468697320 PUSH1 0x44 DUP3 ADD MSTORE PUSH4 0x7377617 PUSH1 0xE4 SHL PUSH1 0x64 DUP3 ADD MSTORE REVERT JUMPDEST DUP6 DUP1 REVERT JUMPDEST DUP3 DUP1 REVERT JUMPDEST DUP4 DUP3 CALLVALUE PUSH2 0x3BB JUMPI DUP2 PUSH1 0x3 NOT CALLDATASIZE ADD SLT PUSH2 0x3BB JUMPI PUSH1 0x20 SWAP1 PUSH2 0x3B4 PUSH2 0xB2B JUMP JUMPDEST SWAP1 MLOAD SWAP1 DUP2 MSTORE RETURN JUMPDEST POP DUP1 REVERT JUMPDEST POP DUP3 SWAP1 CALLVALUE PUSH2 0x3BB JUMPI PUSH1 0x20 DUP1 PUSH1 0x3 NOT CALLDATASIZE ADD SLT PUSH2 0x393 JUMPI DUP4 CALLDATALOAD SWAP1 PUSH32 0x30C3D94C9412176421426071A99648CFD101FDF4843CF6108B60739EBB404A5A SWAP1 DUP2 SLOAD SWAP6 DUP4 ISZERO ISZERO DUP1 PUSH2 0x636 JUMPI JUMPDEST ISZERO PUSH2 0x5F5 JUMPI PUSH2 0x436 DUP8 PUSH2 0x42A PUSH2 0x42F PUSH2 0x42A SWAP9 SWAP10 SWAP11 PUSH2 0x422 PUSH2 0x9E0 JUMP JUMPDEST SWAP11 SWAP1 DUP11 PUSH2 0xA9D JUMP JUMPDEST PUSH2 0xAB0 JUMP JUMPDEST SWAP8 DUP8 PUSH2 0xA9D JUMP JUMPDEST SWAP3 CALLER DUP9 MSTORE PUSH32 0x30C3D94C9412176421426071A99648CFD101FDF4843CF6108B60739EBB404A58 DUP1 DUP5 MSTORE DUP8 DUP10 KECCAK256 SLOAD DUP7 DUP2 LT PUSH2 0x5A7 JUMPI DUP7 PUSH2 0x473 SWAP2 PUSH2 0xA7A JUMP JUMPDEST SWAP1 CALLER DUP11 MSTORE DUP5 MSTORE DUP8 DUP10 KECCAK256 SSTORE PUSH2 0x488 DUP6 DUP3 SLOAD PUSH2 0xA7A JUMP JUMPDEST SWAP1 SSTORE DUP7 DUP7 MLOAD DUP6 DUP2 MSTORE PUSH32 0xDDF252AD1BE2C89B69C2B068FC378DAA952BA7F163C4A11628F55A4DF523B3EF DUP5 CALLER SWAP3 LOG3 DUP7 DUP1 DUP7 DUP1 ISZERO PUSH2 0x59D JUMPI JUMPDEST DUP3 DUP1 SWAP3 SWAP2 DUP2 SWAP3 CALLER SWAP1 CALL ISZERO PUSH2 0x593 JUMPI PUSH1 0x0 DUP1 MLOAD PUSH1 0x20 PUSH2 0xC8F DUP4 CODECOPY DUP2 MLOAD SWAP2 MSTORE SLOAD DUP7 MLOAD PUSH4 0xA9059CBB PUSH1 0xE0 SHL DUP2 MSTORE CALLER SWAP3 DUP2 ADD SWAP3 DUP4 MSTORE PUSH1 0x20 DUP4 ADD DUP6 SWAP1 MSTORE SWAP2 DUP4 SWAP2 DUP4 SWAP2 DUP3 SWAP1 SUB PUSH1 0x40 ADD SWAP1 DUP3 SWAP1 DUP12 SWAP1 PUSH1 0x1 PUSH1 0x1 PUSH1 0xA0 SHL SUB AND GAS CALL DUP1 ISZERO PUSH2 0x589 JUMPI SWAP2 PUSH32 0x1DC8BB69DF2B8E91FBDCBFCF93D951B3F0000F085A95FE3F7946D6161439245D SWAP6 SWAP7 SWAP2 PUSH2 0x565 SWAP4 PUSH2 0x56B JUMPI JUMPDEST POP POP MLOAD SWAP3 DUP4 SWAP3 CALLER SWAP7 DUP5 PUSH1 0x40 SWAP2 SWAP5 SWAP4 SWAP3 PUSH1 0x60 DUP3 ADD SWAP6 DUP3 MSTORE PUSH1 0x20 DUP3 ADD MSTORE ADD MSTORE JUMP JUMPDEST SUB SWAP1 LOG2 DUP1 RETURN JUMPDEST DUP2 PUSH2 0x581 SWAP3 SWAP1 RETURNDATASIZE LT PUSH2 0x1FF JUMPI PUSH2 0x1F1 DUP2 DUP4 PUSH2 0x9A8 JUMP JUMPDEST POP DUP8 DUP1 PUSH2 0x546 JUMP JUMPDEST DUP7 MLOAD RETURNDATASIZE DUP10 DUP3 RETURNDATACOPY RETURNDATASIZE SWAP1 REVERT JUMPDEST DUP6 MLOAD RETURNDATASIZE DUP9 DUP3 RETURNDATACOPY RETURNDATASIZE SWAP1 REVERT JUMPDEST PUSH2 0x8FC SWAP2 POP PUSH2 0x4BF JUMP JUMPDEST DUP9 MLOAD PUSH3 0x461BCD PUSH1 0xE5 SHL DUP2 MSTORE DUP1 DUP6 ADD DUP7 SWAP1 MSTORE PUSH1 0x22 PUSH1 0x24 DUP3 ADD MSTORE PUSH32 0x45524332303A206275726E20616D6F756E7420657863656564732062616C616E PUSH1 0x44 DUP3 ADD MSTORE PUSH2 0x6365 PUSH1 0xF0 SHL PUSH1 0x64 DUP3 ADD MSTORE PUSH1 0x84 SWAP1 REVERT JUMPDEST PUSH1 0x64 SWAP2 DUP6 MLOAD SWAP2 PUSH3 0x461BCD PUSH1 0xE5 SHL DUP4 MSTORE DUP3 ADD MSTORE PUSH1 0x18 PUSH1 0x24 DUP3 ADD MSTORE PUSH32 0x496E76616C6964206C697175696469747920616D6F756E740000000000000000 PUSH1 0x44 DUP3 ADD MSTORE REVERT JUMPDEST POP DUP7 DUP5 GT ISZERO PUSH2 0x405 JUMP JUMPDEST POP PUSH1 0x20 DUP1 PUSH1 0x3 NOT CALLDATASIZE ADD SLT PUSH2 0x8E3 JUMPI DUP3 CALLDATALOAD SWAP3 PUSH32 0x30C3D94C9412176421426071A99648CFD101FDF4843CF6108B60739EBB404A5A DUP1 SLOAD ISZERO PUSH1 0x0 EQ PUSH2 0x7AA JUMPI POP CALLVALUE ISZERO PUSH2 0x769 JUMPI DUP2 DUP5 PUSH2 0x6E0 SWAP3 PUSH2 0x693 CALLVALUE CALLER PUSH2 0xBA5 JUMP JUMPDEST PUSH1 0x0 DUP1 MLOAD PUSH1 0x20 PUSH2 0xC8F DUP4 CODECOPY DUP2 MLOAD SWAP2 MSTORE SLOAD DUP7 MLOAD PUSH4 0x23B872DD PUSH1 0xE0 SHL DUP2 MSTORE CALLER SWAP3 DUP2 ADD SWAP3 DUP4 MSTORE ADDRESS PUSH1 0x20 DUP5 ADD MSTORE PUSH1 0x40 DUP4 ADD SWAP4 SWAP1 SWAP4 MSTORE SWAP2 SWAP4 DUP5 SWAP3 PUSH1 0x1 PUSH1 0x1 PUSH1 0xA0 SHL SUB AND SWAP2 DUP4 SWAP2 DUP11 SWAP2 DUP4 SWAP2 PUSH1 0x60 SWAP1 SWAP2 ADD SWAP1 JUMP JUMPDEST SUB SWAP3 GAS CALL SWAP2 DUP3 ISZERO PUSH2 0x75F JUMPI SWAP2 PUSH2 0x721 SWAP2 PUSH32 0x64B83944E79C3CE8D4C297411DE637C3E102D064677AAC0C163976EBDCD6F50E SWAP5 SWAP4 DUP8 SWAP3 PUSH2 0x742 JUMPI JUMPDEST POP POP PUSH2 0xAE8 JUMP JUMPDEST MLOAD DUP1 PUSH2 0x565 CALLER SWAP5 CALLVALUE SWAP1 CALLVALUE DUP5 PUSH1 0x40 SWAP2 SWAP5 SWAP4 SWAP3 PUSH1 0x60 DUP3 ADD SWAP6 DUP3 MSTORE PUSH1 0x20 DUP3 ADD MSTORE ADD MSTORE JUMP JUMPDEST PUSH2 0x758 SWAP3 POP DUP1 RETURNDATASIZE LT PUSH2 0x1FF JUMPI PUSH2 0x1F1 DUP2 DUP4 PUSH2 0x9A8 JUMP JUMPDEST CODESIZE DUP1 PUSH2 0x71A JUMP JUMPDEST DUP4 MLOAD RETURNDATASIZE DUP8 DUP3 RETURNDATACOPY RETURNDATASIZE SWAP1 REVERT JUMPDEST SWAP2 MLOAD PUSH3 0x461BCD PUSH1 0xE5 SHL DUP2 MSTORE SWAP2 DUP3 ADD MSTORE PUSH1 0x1D PUSH1 0x24 DUP3 ADD MSTORE PUSH32 0x496E697469616C206C6971756964697479206D757374206265203E2030000000 PUSH1 0x44 DUP3 ADD MSTORE PUSH1 0x64 SWAP1 REVERT JUMPDEST SWAP1 SWAP2 PUSH2 0x42A SWAP3 PUSH2 0x7D0 PUSH2 0x7C7 PUSH2 0x7BE PUSH2 0x9E0 JUMP JUMPDEST SWAP2 SWAP1 CALLVALUE SWAP1 PUSH2 0xA7A JUMP JUMPDEST SWAP6 DUP7 SWAP2 CALLVALUE PUSH2 0xA9D JUMP JUMPDEST DUP1 SWAP7 LT PUSH2 0x8A2 JUMPI PUSH1 0x0 DUP1 MLOAD PUSH1 0x20 PUSH2 0xC8F DUP4 CODECOPY DUP2 MLOAD SWAP2 MSTORE SLOAD DUP6 MLOAD PUSH4 0x23B872DD PUSH1 0xE0 SHL DUP2 MSTORE CALLER SWAP3 DUP2 ADD SWAP3 DUP4 MSTORE ADDRESS PUSH1 0x20 DUP5 ADD MSTORE PUSH1 0x40 DUP4 ADD DUP9 SWAP1 MSTORE SWAP2 DUP4 SWAP2 DUP4 SWAP2 DUP3 SWAP1 SUB PUSH1 0x60 ADD SWAP1 DUP3 SWAP1 DUP12 SWAP1 PUSH1 0x1 PUSH1 0x1 PUSH1 0xA0 SHL SUB AND GAS CALL SWAP2 DUP3 ISZERO PUSH2 0x898 JUMPI PUSH32 0x64B83944E79C3CE8D4C297411DE637C3E102D064677AAC0C163976EBDCD6F50E SWAP6 SWAP4 PUSH2 0x869 PUSH2 0x870 SWAP5 PUSH2 0x565 SWAP8 SWAP5 PUSH2 0x42A SWAP5 DUP13 SWAP3 PUSH2 0x742 JUMPI POP POP PUSH2 0xAE8 JUMP JUMPDEST SLOAD CALLVALUE PUSH2 0xA9D JUMP JUMPDEST SWAP1 PUSH2 0x87B DUP3 CALLER PUSH2 0xBA5 JUMP JUMPDEST MLOAD CALLVALUE DUP2 MSTORE PUSH1 0x20 DUP2 ADD SWAP5 SWAP1 SWAP5 MSTORE PUSH1 0x40 DUP5 ADD MSTORE CALLER SWAP3 SWAP1 DUP2 SWAP1 PUSH1 0x60 DUP3 ADD SWAP1 JUMP JUMPDEST DUP6 MLOAD RETURNDATASIZE DUP10 DUP3 RETURNDATACOPY RETURNDATASIZE SWAP1 REVERT JUMPDEST PUSH1 0x64 SWAP2 DUP6 MLOAD SWAP2 PUSH3 0x461BCD PUSH1 0xE5 SHL DUP4 MSTORE DUP3 ADD MSTORE PUSH1 0x18 PUSH1 0x24 DUP3 ADD MSTORE PUSH32 0x496E73756666696369656E74205553444320616D6F756E740000000000000000 PUSH1 0x44 DUP3 ADD MSTORE REVERT JUMPDEST DUP4 DUP1 REVERT JUMPDEST POP CALLVALUE PUSH2 0x393 JUMPI PUSH1 0x20 CALLDATASIZE PUSH1 0x3 NOT ADD SLT PUSH2 0x393 JUMPI DUP2 CALLDATALOAD PUSH1 0x1 PUSH1 0x1 PUSH1 0xA0 SHL SUB DUP2 AND SWAP1 DUP2 SWAP1 SUB PUSH2 0x8E3 JUMPI PUSH1 0x0 DUP1 MLOAD PUSH1 0x20 PUSH2 0xC8F DUP4 CODECOPY DUP2 MLOAD SWAP2 MSTORE SWAP3 DUP4 SLOAD SWAP3 PUSH1 0xFF DUP5 PUSH1 0xA0 SHR AND PUSH2 0x945 JUMPI POP POP PUSH1 0x1 PUSH1 0x1 PUSH1 0xA8 SHL SUB NOT SWAP1 SWAP2 AND OR PUSH1 0x1 PUSH1 0xA0 SHL OR SWAP1 SSTORE DUP1 RETURN JUMPDEST SWAP1 PUSH1 0x20 PUSH1 0x64 SWAP3 MLOAD SWAP2 PUSH3 0x461BCD PUSH1 0xE5 SHL DUP4 MSTORE DUP3 ADD MSTORE PUSH1 0x13 PUSH1 0x24 DUP3 ADD MSTORE PUSH19 0x105B1C9958591E481A5B9A5D1A585B1A5E9959 PUSH1 0x6A SHL PUSH1 0x44 DUP3 ADD MSTORE REVERT JUMPDEST POP DUP3 CALLVALUE PUSH2 0x9A5 JUMPI DUP1 PUSH1 0x3 NOT CALLDATASIZE ADD SLT PUSH2 0x9A5 JUMPI POP PUSH2 0x999 PUSH2 0x9E0 JUMP JUMPDEST DUP3 MLOAD SWAP2 DUP3 MSTORE PUSH1 0x20 DUP3 ADD MSTORE RETURN JUMPDEST DUP1 REVERT JUMPDEST SWAP1 PUSH1 0x1F DUP1 NOT SWAP2 ADD AND DUP2 ADD SWAP1 DUP2 LT PUSH8 0xFFFFFFFFFFFFFFFF DUP3 GT OR PUSH2 0x9CA JUMPI PUSH1 0x40 MSTORE JUMP JUMPDEST PUSH4 0x4E487B71 PUSH1 0xE0 SHL PUSH1 0x0 MSTORE PUSH1 0x41 PUSH1 0x4 MSTORE PUSH1 0x24 PUSH1 0x0 REVERT JUMPDEST PUSH1 0x0 DUP1 MLOAD PUSH1 0x20 PUSH2 0xC8F DUP4 CODECOPY DUP2 MLOAD SWAP2 MSTORE SLOAD SELFBALANCE SWAP2 PUSH1 0x0 SWAP2 PUSH1 0x1 PUSH1 0x1 PUSH1 0xA0 SHL SUB AND DUP1 PUSH2 0xA06 JUMPI POP JUMP JUMPDEST PUSH1 0x40 MLOAD PUSH4 0x70A08231 PUSH1 0xE0 SHL DUP2 MSTORE ADDRESS PUSH1 0x4 DUP3 ADD MSTORE SWAP2 SWAP3 POP PUSH1 0x20 SWAP1 DUP3 SWAP1 PUSH1 0x24 SWAP1 DUP3 SWAP1 GAS STATICCALL SWAP1 DUP2 ISZERO PUSH2 0xA6E JUMPI PUSH1 0x0 SWAP2 PUSH2 0xA3A JUMPI POP SWAP1 JUMP JUMPDEST SWAP1 POP PUSH1 0x20 DUP2 RETURNDATASIZE PUSH1 0x20 GT PUSH2 0xA66 JUMPI JUMPDEST DUP2 PUSH2 0xA55 PUSH1 0x20 SWAP4 DUP4 PUSH2 0x9A8 JUMP JUMPDEST DUP2 ADD SUB SLT PUSH2 0xA61 JUMPI MLOAD SWAP1 JUMP JUMPDEST PUSH1 0x0 DUP1 REVERT JUMPDEST RETURNDATASIZE SWAP2 POP PUSH2 0xA48 JUMP JUMPDEST PUSH1 0x40 MLOAD RETURNDATASIZE PUSH1 0x0 DUP3 RETURNDATACOPY RETURNDATASIZE SWAP1 REVERT JUMPDEST SWAP2 SWAP1 DUP3 SUB SWAP2 DUP3 GT PUSH2 0xA87 JUMPI JUMP JUMPDEST PUSH4 0x4E487B71 PUSH1 0xE0 SHL PUSH1 0x0 MSTORE PUSH1 0x11 PUSH1 0x4 MSTORE PUSH1 0x24 PUSH1 0x0 REVERT JUMPDEST DUP2 DUP2 MUL SWAP3 SWAP2 DUP2 ISZERO SWAP2 DUP5 DIV EQ OR ISZERO PUSH2 0xA87 JUMPI JUMP JUMPDEST DUP2 ISZERO PUSH2 0xABA JUMPI DIV SWAP1 JUMP JUMPDEST PUSH4 0x4E487B71 PUSH1 0xE0 SHL PUSH1 0x0 MSTORE PUSH1 0x12 PUSH1 0x4 MSTORE PUSH1 0x24 PUSH1 0x0 REVERT JUMPDEST SWAP1 DUP2 PUSH1 0x20 SWAP2 SUB SLT PUSH2 0xA61 JUMPI MLOAD DUP1 ISZERO ISZERO DUP2 SUB PUSH2 0xA61 JUMPI SWAP1 JUMP JUMPDEST ISZERO PUSH2 0xAEF JUMPI JUMP JUMPDEST PUSH1 0x40 MLOAD PUSH3 0x461BCD PUSH1 0xE5 SHL DUP2 MSTORE PUSH1 0x20 PUSH1 0x4 DUP3 ADD MSTORE PUSH1 0x14 PUSH1 0x24 DUP3 ADD MSTORE PUSH20 0x1554D110C81D1C985B9CD9995C8819985A5B1959 PUSH1 0x62 SHL PUSH1 0x44 DUP3 ADD MSTORE PUSH1 0x64 SWAP1 REVERT JUMPDEST PUSH2 0xB33 PUSH2 0x9E0 JUMP JUMPDEST SWAP1 DUP1 ISZERO DUP1 ISZERO PUSH2 0xB90 JUMPI JUMPDEST PUSH2 0xB89 JUMPI PUSH8 0xDE0B6B3A7640000 SWAP2 DUP3 DUP2 MUL SWAP3 DUP2 DUP5 DIV EQ DUP2 ISZERO OR ISZERO PUSH2 0xA87 JUMPI PUSH13 0xC9F2C9CD04674EDEA40000000 MUL SWAP2 DUP1 DUP4 DIV PUSH5 0xE8D4A51000 EQ SWAP1 ISZERO OR ISZERO PUSH2 0xA87 JUMPI PUSH2 0xB86 SWAP2 PUSH2 0xAB0 JUMP JUMPDEST SWAP1 JUMP JUMPDEST POP POP PUSH1 0x0 SWAP1 JUMP JUMPDEST POP DUP2 ISZERO PUSH2 0xB3D JUMP JUMPDEST SWAP2 SWAP1 DUP3 ADD DUP1 SWAP3 GT PUSH2 0xA87 JUMPI JUMP JUMPDEST PUSH1 0x1 PUSH1 0x1 PUSH1 0xA0 SHL SUB AND SWAP1 DUP2 ISZERO PUSH2 0xC49 JUMPI PUSH32 0xDDF252AD1BE2C89B69C2B068FC378DAA952BA7F163C4A11628F55A4DF523B3EF PUSH1 0x20 PUSH1 0x0 SWAP3 PUSH32 0x30C3D94C9412176421426071A99648CFD101FDF4843CF6108B60739EBB404A5A PUSH2 0xC07 DUP3 DUP3 SLOAD PUSH2 0xB98 JUMP JUMPDEST SWAP1 SSTORE DUP5 DUP5 MSTORE PUSH32 0x30C3D94C9412176421426071A99648CFD101FDF4843CF6108B60739EBB404A58 DUP3 MSTORE PUSH1 0x40 DUP5 KECCAK256 PUSH2 0xC3E DUP3 DUP3 SLOAD PUSH2 0xB98 JUMP JUMPDEST SWAP1 SSTORE PUSH1 0x40 MLOAD SWAP1 DUP2 MSTORE LOG3 JUMP JUMPDEST PUSH1 0x40 MLOAD PUSH3 0x461BCD PUSH1 0xE5 SHL DUP2 MSTORE PUSH1 0x20 PUSH1 0x4 DUP3 ADD MSTORE PUSH1 0x1B PUSH1 0x24 DUP3 ADD MSTORE PUSH32 0x45524332303A206D696E7420746F207A65726F20616464726573730000000000 PUSH1 0x44 DUP3 ADD MSTORE PUSH1 0x64 SWAP1 REVERT INVALID SWAP6 SGT 0xE4 EXTCODEHASH 0xA7 DUP1 DUP16 0x2A DUP7 SWAP8 SHL CALL 0xBF PC 0xB6 MSTORE POP DUP6 0xB8 0x2C 0xB8 0xB5 SDIV PUSH29 0xD96BA8D8BA064146A26469706673582212209B19C77EA1459A24656A22 0xE3 PUSH29 0xBA14C8632A7032AC29BB465D3B0F3E004AE40664736F6C634300081800 CALLER "},"methodIdentifiers":{"addLiquidity(uint256)":"51c6590a","getReserves()":"0902f1ac","getUSDPrice()":"c338287f","init(address)":"19ab453c","removeLiquidity(uint256)":"9c8f9f23","swap(uint256,address)":"d3986f08"}},"storageLayout":{"storage":[],"types":null}}}}