{"contracts/facets/ERC20Facet.sol":{"ERC20Facet":{"abi":[{"anonymous":false,"inputs":[{"indexed":true,"internalType":"address","name":"owner","type":"address"},{"indexed":true,"internalType":"address","name":"spender","type":"address"},{"indexed":false,"internalType":"uint256","name":"value","type":"uint256"}],"name":"Approval","type":"event"},{"anonymous":false,"inputs":[{"indexed":true,"internalType":"address","name":"from","type":"address"},{"indexed":true,"internalType":"address","name":"to","type":"address"},{"indexed":false,"internalType":"uint256","name":"value","type":"uint256"}],"name":"Transfer","type":"event"},{"inputs":[{"internalType":"address","name":"owner","type":"address"},{"internalType":"address","name":"spender","type":"address"}],"name":"allowance","outputs":[{"internalType":"uint256","name":"","type":"uint256"}],"stateMutability":"view","type":"function"},{"inputs":[{"internalType":"address","name":"spender","type":"address"},{"internalType":"uint256","name":"amount","type":"uint256"}],"name":"approve","outputs":[{"internalType":"bool","name":"","type":"bool"}],"stateMutability":"nonpayable","type":"function"},{"inputs":[{"internalType":"address","name":"account","type":"address"}],"name":"balanceOf","outputs":[{"internalType":"uint256","name":"","type":"uint256"}],"stateMutability":"view","type":"function"},{"inputs":[],"name":"decimals","outputs":[{"internalType":"uint8","name":"","type":"uint8"}],"stateMutability":"pure","type":"function"},{"inputs":[{"internalType":"string","name":"_name","type":"string"},{"internalType":"string","name":"_symbol","type":"string"}],"name":"init","outputs":[],"stateMutability":"nonpayable","type":"function"},{"inputs":[],"name":"name","outputs":[{"internalType":"string","name":"","type":"string"}],"stateMutability":"view","type":"function"},{"inputs":[],"name":"symbol","outputs":[{"internalType":"string","name":"","type":"string"}],"stateMutability":"view","type":"function"},{"inputs":[],"name":"totalSupply","outputs":[{"internalType":"uint256","name":"","type":"uint256"}],"stateMutability":"view","type":"function"},{"inputs":[{"internalType":"address","name":"recipient","type":"address"},{"internalType":"uint256","name":"amount","type":"uint256"}],"name":"transfer","outputs":[{"internalType":"bool","name":"","type":"bool"}],"stateMutability":"nonpayable","type":"function"},{"inputs":[{"internalType":"address","name":"sender","type":"address"},{"internalType":"address","name":"recipient","type":"address"},{"internalType":"uint256","name":"amount","type":"uint256"}],"name":"transferFrom","outputs":[{"internalType":"bool","name":"","type":"bool"}],"stateMutability":"nonpayable","type":"function"}],"evm":{"bytecode":{"linkReferences":{},"object":"6080806040523461001657610b88908161001c8239f35b600080fdfe608060408181526004918236101561001657600080fd5b600092833560e01c91826306fdde031461081f57508163095ea7b3146107ab57816318160ddd1461076d57816323b872dd1461064b578163313ce5671461062f5781637029144c146102ac5750806370a082311461027f57806395d89b4114610178578063a9059cbb146100dc5763dd62ed3e1461009357600080fd5b346100d857806003193601126100d857806020926100af61095b565b6100c06100ba610976565b91610a55565b6001600160a01b039091168252845220549051908152f35b5080fd5b50346100d857806003193601126100d8576020906100f861095b565b6024359061011b8261010933610a8e565b5461011682821015610ac7565b610b22565b61012433610a8e565b5561012e81610a8e565b610139838254610b45565b905582519182526001600160a01b03169033907fddf252ad1be2c89b69c2b068fc378daa952ba7f163c4a11628f55a4df523b3ef908590a35160018152f35b50903461027c578060031936011261027c57815190807f30c3d94c9412176421426071a99648cfd101fdf4843cf6108b60739ebb404a5c80546101ba81610a1b565b8086529260209260019280841690811561024d57506001146101f6575b6101f287896101e8828a038361098c565b5191829182610912565b0390f35b815293507f41c9c4c36f051b05d0436fcb231fc7e171b5ef5a6caae12b8c6d62b654f0c78c5b83851061023a575050505081016020016101e8826101f238806101d7565b805486860184015293820193810161021c565b9150506101f2979550869350602092506101e894915060ff191682840152151560051b820101929438806101d7565b80fd5b50346100d85760203660031901126100d8576020906102a461029f61095b565b610a8e565b549051908152f35b839150346100d857826003193601126100d85767ffffffffffffffff813581811161062b576102de90369084016109c4565b91602435828111610627576102f690369083016109c4565b947f30c3d94c9412176421426071a99648cfd101fdf4843cf6108b60739ebb404a5b9081549061032582610a1b565b6105e557508451908482116105d25761033e8291610a1b565b95601f96878111610567575b506020908783116001146104e65788926104db575b50508160011b916000199060031b1c19161790555b84519182116104c857507f30c3d94c9412176421426071a99648cfd101fdf4843cf6108b60739ebb404a5c916103aa8354610a1b565b818111610469575b5060209082116001146103ec578394829394926103e1575b50508160011b916000199060031b1c191617905580f35b0151905084806103ca565b8284527f41c9c4c36f051b05d0436fcb231fc7e171b5ef5a6caae12b8c6d62b654f0c78c90601f198316855b81811061045157509583600195969710610438575b505050811b01905580f35b015160001960f88460031b161c1916905584808061042d565b9192602060018192868b015181550194019201610418565b8385527f41c9c4c36f051b05d0436fcb231fc7e171b5ef5a6caae12b8c6d62b654f0c78c8280850160051c820192602086106104bf575b0160051c01905b8181106104b457506103b2565b8581556001016104a7565b925081926104a0565b634e487b7160e01b845260419052602483fd5b01519050888061035f565b8489527fc6eca20b5910bb0bf53b65d139a0a10959064b121c399c67820ce8846191715a9250601f198416895b81811061054f5750908460019594939210610536575b505050811b019055610374565b015160001960f88460031b161c19169055888080610529565b92936020600181928786015181550195019301610513565b9091508388527fc6eca20b5910bb0bf53b65d139a0a10959064b121c399c67820ce8846191715a8780850160051c820192602086106105c9575b9085949392910160051c01905b8181106105bb575061034a565b8981558493506001016105ae565b925081926105a1565b634e487b7160e01b875260418452602487fd5b5162461bcd60e51b8152602081850152601a60248201527f45524332303a20416c726561647920696e697469616c697a65640000000000006044820152606490fd5b8480fd5b8380fd5b5050346100d857816003193601126100d8576020905160128152f35b82843461027c57606036600319011261027c5761066661095b565b9061066f610976565b6044359161067c84610a55565b338252602052848120548381106107195760209650918691866106ed867fddf252ad1be2c89b69c2b068fc378daa952ba7f163c4a11628f55a4df523b3ef966106c8826101098c610a8e565b6106d18b610a8e565b556106db86610a8e565b6106e6838254610b45565b9055610b22565b916106f788610a55565b3382528552205585519384526001600160a01b03908116941692a35160018152f35b855162461bcd60e51b8152602081890152602860248201527f45524332303a207472616e7366657220616d6f756e74206578636565647320616044820152676c6c6f77616e636560c01b6064820152608490fd5b5050346100d857816003193601126100d8576020907f30c3d94c9412176421426071a99648cfd101fdf4843cf6108b60739ebb404a5a549051908152f35b5050346100d857806003193601126100d857602091816107c961095b565b916024359182916107d933610a55565b6001600160a01b039095168082529487522055825190815233907f8c5be1e5ebec7d5bd14f71427d1e84f3dd0314c0f7b2291e5b200ac8c7c3b925908590a35160018152f35b8390853461027c578060031936011261027c57807f30c3d94c9412176421426071a99648cfd101fdf4843cf6108b60739ebb404a5b805461085f81610a1b565b808652926020926001928084169081156108e3575060011461088c576101f287896101e8828a038361098c565b815293507fc6eca20b5910bb0bf53b65d139a0a10959064b121c399c67820ce8846191715a5b8385106108d0575050505081016020016101e8826101f286806101d7565b80548686018401529382019381016108b2565b9150506101f2979550869350602092506101e894915060ff191682840152151560051b820101929486806101d7565b6020808252825181830181905290939260005b82811061094757505060409293506000838284010152601f8019910116010190565b818101860151848201604001528501610925565b600435906001600160a01b038216820361097157565b600080fd5b602435906001600160a01b038216820361097157565b90601f8019910116810190811067ffffffffffffffff8211176109ae57604052565b634e487b7160e01b600052604160045260246000fd5b81601f820112156109715780359067ffffffffffffffff82116109ae57604051926109f9601f8401601f19166020018561098c565b8284526020838301011161097157816000926020809301838601378301015290565b90600182811c92168015610a4b575b6020831014610a3557565b634e487b7160e01b600052602260045260246000fd5b91607f1691610a2a565b6001600160a01b031660009081527f30c3d94c9412176421426071a99648cfd101fdf4843cf6108b60739ebb404a596020526040902090565b6001600160a01b031660009081527f30c3d94c9412176421426071a99648cfd101fdf4843cf6108b60739ebb404a586020526040902090565b15610ace57565b60405162461bcd60e51b815260206004820152602660248201527f45524332303a207472616e7366657220616d6f756e7420657863656564732062604482015265616c616e636560d01b6064820152608490fd5b91908203918211610b2f57565b634e487b7160e01b600052601160045260246000fd5b91908201809211610b2f5756fea26469706673582212202b506422433442a97b87f46fda7770d312306b3f48edf6f5999880613691aa9e64736f6c63430008180033","opcodes":"PUSH1 0x80 DUP1 PUSH1 0x40 MSTORE CALLVALUE PUSH2 0x16 JUMPI PUSH2 0xB88 SWAP1 DUP2 PUSH2 0x1C DUP3 CODECOPY RETURN JUMPDEST PUSH1 0x0 DUP1 REVERT INVALID PUSH1 0x80 PUSH1 0x40 DUP2 DUP2 MSTORE PUSH1 0x4 SWAP2 DUP3 CALLDATASIZE LT ISZERO PUSH2 0x16 JUMPI PUSH1 0x0 DUP1 REVERT JUMPDEST PUSH1 0x0 SWAP3 DUP4 CALLDATALOAD PUSH1 0xE0 SHR SWAP2 DUP3 PUSH4 0x6FDDE03 EQ PUSH2 0x81F JUMPI POP DUP2 PUSH4 0x95EA7B3 EQ PUSH2 0x7AB JUMPI DUP2 PUSH4 0x18160DDD EQ PUSH2 0x76D JUMPI DUP2 PUSH4 0x23B872DD EQ PUSH2 0x64B JUMPI DUP2 PUSH4 0x313CE567 EQ PUSH2 0x62F JUMPI DUP2 PUSH4 0x7029144C EQ PUSH2 0x2AC JUMPI POP DUP1 PUSH4 0x70A08231 EQ PUSH2 0x27F JUMPI DUP1 PUSH4 0x95D89B41 EQ PUSH2 0x178 JUMPI DUP1 PUSH4 0xA9059CBB EQ PUSH2 0xDC JUMPI PUSH4 0xDD62ED3E EQ PUSH2 0x93 JUMPI PUSH1 0x0 DUP1 REVERT JUMPDEST CALLVALUE PUSH2 0xD8 JUMPI DUP1 PUSH1 0x3 NOT CALLDATASIZE ADD SLT PUSH2 0xD8 JUMPI DUP1 PUSH1 0x20 SWAP3 PUSH2 0xAF PUSH2 0x95B JUMP JUMPDEST PUSH2 0xC0 PUSH2 0xBA PUSH2 0x976 JUMP JUMPDEST SWAP2 PUSH2 0xA55 JUMP JUMPDEST PUSH1 0x1 PUSH1 0x1 PUSH1 0xA0 SHL SUB SWAP1 SWAP2 AND DUP3 MSTORE DUP5 MSTORE KECCAK256 SLOAD SWAP1 MLOAD SWAP1 DUP2 MSTORE RETURN JUMPDEST POP DUP1 REVERT JUMPDEST POP CALLVALUE PUSH2 0xD8 JUMPI DUP1 PUSH1 0x3 NOT CALLDATASIZE ADD SLT PUSH2 0xD8 JUMPI PUSH1 0x20 SWAP1 PUSH2 0xF8 PUSH2 0x95B JUMP JUMPDEST PUSH1 0x24 CALLDATALOAD SWAP1 PUSH2 0x11B DUP3 PUSH2 0x109 CALLER PUSH2 0xA8E JUMP JUMPDEST SLOAD PUSH2 0x116 DUP3 DUP3 LT ISZERO PUSH2 0xAC7 JUMP JUMPDEST PUSH2 0xB22 JUMP JUMPDEST PUSH2 0x124 CALLER PUSH2 0xA8E JUMP JUMPDEST SSTORE PUSH2 0x12E DUP2 PUSH2 0xA8E JUMP JUMPDEST PUSH2 0x139 DUP4 DUP3 SLOAD PUSH2 0xB45 JUMP JUMPDEST SWAP1 SSTORE DUP3 MLOAD SWAP2 DUP3 MSTORE PUSH1 0x1 PUSH1 0x1 PUSH1 0xA0 SHL SUB AND SWAP1 CALLER SWAP1 PUSH32 0xDDF252AD1BE2C89B69C2B068FC378DAA952BA7F163C4A11628F55A4DF523B3EF SWAP1 DUP6 SWAP1 LOG3 MLOAD PUSH1 0x1 DUP2 MSTORE RETURN JUMPDEST POP SWAP1 CALLVALUE PUSH2 0x27C JUMPI DUP1 PUSH1 0x3 NOT CALLDATASIZE ADD SLT PUSH2 0x27C JUMPI DUP2 MLOAD SWAP1 DUP1 PUSH32 0x30C3D94C9412176421426071A99648CFD101FDF4843CF6108B60739EBB404A5C DUP1 SLOAD PUSH2 0x1BA DUP2 PUSH2 0xA1B JUMP JUMPDEST DUP1 DUP7 MSTORE SWAP3 PUSH1 0x20 SWAP3 PUSH1 0x1 SWAP3 DUP1 DUP5 AND SWAP1 DUP2 ISZERO PUSH2 0x24D JUMPI POP PUSH1 0x1 EQ PUSH2 0x1F6 JUMPI JUMPDEST PUSH2 0x1F2 DUP8 DUP10 PUSH2 0x1E8 DUP3 DUP11 SUB DUP4 PUSH2 0x98C JUMP JUMPDEST MLOAD SWAP2 DUP3 SWAP2 DUP3 PUSH2 0x912 JUMP JUMPDEST SUB SWAP1 RETURN JUMPDEST DUP2 MSTORE SWAP4 POP PUSH32 0x41C9C4C36F051B05D0436FCB231FC7E171B5EF5A6CAAE12B8C6D62B654F0C78C JUMPDEST DUP4 DUP6 LT PUSH2 0x23A JUMPI POP POP POP POP DUP2 ADD PUSH1 0x20 ADD PUSH2 0x1E8 DUP3 PUSH2 0x1F2 CODESIZE DUP1 PUSH2 0x1D7 JUMP JUMPDEST DUP1 SLOAD DUP7 DUP7 ADD DUP5 ADD MSTORE SWAP4 DUP3 ADD SWAP4 DUP2 ADD PUSH2 0x21C JUMP JUMPDEST SWAP2 POP POP PUSH2 0x1F2 SWAP8 SWAP6 POP DUP7 SWAP4 POP PUSH1 0x20 SWAP3 POP PUSH2 0x1E8 SWAP5 SWAP2 POP PUSH1 0xFF NOT AND DUP3 DUP5 ADD MSTORE ISZERO ISZERO PUSH1 0x5 SHL DUP3 ADD ADD SWAP3 SWAP5 CODESIZE DUP1 PUSH2 0x1D7 JUMP JUMPDEST DUP1 REVERT JUMPDEST POP CALLVALUE PUSH2 0xD8 JUMPI PUSH1 0x20 CALLDATASIZE PUSH1 0x3 NOT ADD SLT PUSH2 0xD8 JUMPI PUSH1 0x20 SWAP1 PUSH2 0x2A4 PUSH2 0x29F PUSH2 0x95B JUMP JUMPDEST PUSH2 0xA8E JUMP JUMPDEST SLOAD SWAP1 MLOAD SWAP1 DUP2 MSTORE RETURN JUMPDEST DUP4 SWAP2 POP CALLVALUE PUSH2 0xD8 JUMPI DUP3 PUSH1 0x3 NOT CALLDATASIZE ADD SLT PUSH2 0xD8 JUMPI PUSH8 0xFFFFFFFFFFFFFFFF DUP2 CALLDATALOAD DUP2 DUP2 GT PUSH2 0x62B JUMPI PUSH2 0x2DE SWAP1 CALLDATASIZE SWAP1 DUP5 ADD PUSH2 0x9C4 JUMP JUMPDEST SWAP2 PUSH1 0x24 CALLDATALOAD DUP3 DUP2 GT PUSH2 0x627 JUMPI PUSH2 0x2F6 SWAP1 CALLDATASIZE SWAP1 DUP4 ADD PUSH2 0x9C4 JUMP JUMPDEST SWAP5 PUSH32 0x30C3D94C9412176421426071A99648CFD101FDF4843CF6108B60739EBB404A5B SWAP1 DUP2 SLOAD SWAP1 PUSH2 0x325 DUP3 PUSH2 0xA1B JUMP JUMPDEST PUSH2 0x5E5 JUMPI POP DUP5 MLOAD SWAP1 DUP5 DUP3 GT PUSH2 0x5D2 JUMPI PUSH2 0x33E DUP3 SWAP2 PUSH2 0xA1B JUMP JUMPDEST SWAP6 PUSH1 0x1F SWAP7 DUP8 DUP2 GT PUSH2 0x567 JUMPI JUMPDEST POP PUSH1 0x20 SWAP1 DUP8 DUP4 GT PUSH1 0x1 EQ PUSH2 0x4E6 JUMPI DUP9 SWAP3 PUSH2 0x4DB JUMPI JUMPDEST POP POP DUP2 PUSH1 0x1 SHL SWAP2 PUSH1 0x0 NOT SWAP1 PUSH1 0x3 SHL SHR NOT AND OR SWAP1 SSTORE JUMPDEST DUP5 MLOAD SWAP2 DUP3 GT PUSH2 0x4C8 JUMPI POP PUSH32 0x30C3D94C9412176421426071A99648CFD101FDF4843CF6108B60739EBB404A5C SWAP2 PUSH2 0x3AA DUP4 SLOAD PUSH2 0xA1B JUMP JUMPDEST DUP2 DUP2 GT PUSH2 0x469 JUMPI JUMPDEST POP PUSH1 0x20 SWAP1 DUP3 GT PUSH1 0x1 EQ PUSH2 0x3EC JUMPI DUP4 SWAP5 DUP3 SWAP4 SWAP5 SWAP3 PUSH2 0x3E1 JUMPI JUMPDEST POP POP DUP2 PUSH1 0x1 SHL SWAP2 PUSH1 0x0 NOT SWAP1 PUSH1 0x3 SHL SHR NOT AND OR SWAP1 SSTORE DUP1 RETURN JUMPDEST ADD MLOAD SWAP1 POP DUP5 DUP1 PUSH2 0x3CA JUMP JUMPDEST DUP3 DUP5 MSTORE PUSH32 0x41C9C4C36F051B05D0436FCB231FC7E171B5EF5A6CAAE12B8C6D62B654F0C78C SWAP1 PUSH1 0x1F NOT DUP4 AND DUP6 JUMPDEST DUP2 DUP2 LT PUSH2 0x451 JUMPI POP SWAP6 DUP4 PUSH1 0x1 SWAP6 SWAP7 SWAP8 LT PUSH2 0x438 JUMPI JUMPDEST POP POP POP DUP2 SHL ADD SWAP1 SSTORE DUP1 RETURN JUMPDEST ADD MLOAD PUSH1 0x0 NOT PUSH1 0xF8 DUP5 PUSH1 0x3 SHL AND SHR NOT AND SWAP1 SSTORE DUP5 DUP1 DUP1 PUSH2 0x42D JUMP JUMPDEST SWAP2 SWAP3 PUSH1 0x20 PUSH1 0x1 DUP2 SWAP3 DUP7 DUP12 ADD MLOAD DUP2 SSTORE ADD SWAP5 ADD SWAP3 ADD PUSH2 0x418 JUMP JUMPDEST DUP4 DUP6 MSTORE PUSH32 0x41C9C4C36F051B05D0436FCB231FC7E171B5EF5A6CAAE12B8C6D62B654F0C78C DUP3 DUP1 DUP6 ADD PUSH1 0x5 SHR DUP3 ADD SWAP3 PUSH1 0x20 DUP7 LT PUSH2 0x4BF JUMPI JUMPDEST ADD PUSH1 0x5 SHR ADD SWAP1 JUMPDEST DUP2 DUP2 LT PUSH2 0x4B4 JUMPI POP PUSH2 0x3B2 JUMP JUMPDEST DUP6 DUP2 SSTORE PUSH1 0x1 ADD PUSH2 0x4A7 JUMP JUMPDEST SWAP3 POP DUP2 SWAP3 PUSH2 0x4A0 JUMP JUMPDEST PUSH4 0x4E487B71 PUSH1 0xE0 SHL DUP5 MSTORE PUSH1 0x41 SWAP1 MSTORE PUSH1 0x24 DUP4 REVERT JUMPDEST ADD MLOAD SWAP1 POP DUP9 DUP1 PUSH2 0x35F JUMP JUMPDEST DUP5 DUP10 MSTORE PUSH32 0xC6ECA20B5910BB0BF53B65D139A0A10959064B121C399C67820CE8846191715A SWAP3 POP PUSH1 0x1F NOT DUP5 AND DUP10 JUMPDEST DUP2 DUP2 LT PUSH2 0x54F JUMPI POP SWAP1 DUP5 PUSH1 0x1 SWAP6 SWAP5 SWAP4 SWAP3 LT PUSH2 0x536 JUMPI JUMPDEST POP POP POP DUP2 SHL ADD SWAP1 SSTORE PUSH2 0x374 JUMP JUMPDEST ADD MLOAD PUSH1 0x0 NOT PUSH1 0xF8 DUP5 PUSH1 0x3 SHL AND SHR NOT AND SWAP1 SSTORE DUP9 DUP1 DUP1 PUSH2 0x529 JUMP JUMPDEST SWAP3 SWAP4 PUSH1 0x20 PUSH1 0x1 DUP2 SWAP3 DUP8 DUP7 ADD MLOAD DUP2 SSTORE ADD SWAP6 ADD SWAP4 ADD PUSH2 0x513 JUMP JUMPDEST SWAP1 SWAP2 POP DUP4 DUP9 MSTORE PUSH32 0xC6ECA20B5910BB0BF53B65D139A0A10959064B121C399C67820CE8846191715A DUP8 DUP1 DUP6 ADD PUSH1 0x5 SHR DUP3 ADD SWAP3 PUSH1 0x20 DUP7 LT PUSH2 0x5C9 JUMPI JUMPDEST SWAP1 DUP6 SWAP5 SWAP4 SWAP3 SWAP2 ADD PUSH1 0x5 SHR ADD SWAP1 JUMPDEST DUP2 DUP2 LT PUSH2 0x5BB JUMPI POP PUSH2 0x34A JUMP JUMPDEST DUP10 DUP2 SSTORE DUP5 SWAP4 POP PUSH1 0x1 ADD PUSH2 0x5AE JUMP JUMPDEST SWAP3 POP DUP2 SWAP3 PUSH2 0x5A1 JUMP JUMPDEST PUSH4 0x4E487B71 PUSH1 0xE0 SHL DUP8 MSTORE PUSH1 0x41 DUP5 MSTORE PUSH1 0x24 DUP8 REVERT JUMPDEST MLOAD PUSH3 0x461BCD PUSH1 0xE5 SHL DUP2 MSTORE PUSH1 0x20 DUP2 DUP6 ADD MSTORE PUSH1 0x1A PUSH1 0x24 DUP3 ADD MSTORE PUSH32 0x45524332303A20416C726561647920696E697469616C697A6564000000000000 PUSH1 0x44 DUP3 ADD MSTORE PUSH1 0x64 SWAP1 REVERT JUMPDEST DUP5 DUP1 REVERT JUMPDEST DUP4 DUP1 REVERT JUMPDEST POP POP CALLVALUE PUSH2 0xD8 JUMPI DUP2 PUSH1 0x3 NOT CALLDATASIZE ADD SLT PUSH2 0xD8 JUMPI PUSH1 0x20 SWAP1 MLOAD PUSH1 0x12 DUP2 MSTORE RETURN JUMPDEST DUP3 DUP5 CALLVALUE PUSH2 0x27C JUMPI PUSH1 0x60 CALLDATASIZE PUSH1 0x3 NOT ADD SLT PUSH2 0x27C JUMPI PUSH2 0x666 PUSH2 0x95B JUMP JUMPDEST SWAP1 PUSH2 0x66F PUSH2 0x976 JUMP JUMPDEST PUSH1 0x44 CALLDATALOAD SWAP2 PUSH2 0x67C DUP5 PUSH2 0xA55 JUMP JUMPDEST CALLER DUP3 MSTORE PUSH1 0x20 MSTORE DUP5 DUP2 KECCAK256 SLOAD DUP4 DUP2 LT PUSH2 0x719 JUMPI PUSH1 0x20 SWAP7 POP SWAP2 DUP7 SWAP2 DUP7 PUSH2 0x6ED DUP7 PUSH32 0xDDF252AD1BE2C89B69C2B068FC378DAA952BA7F163C4A11628F55A4DF523B3EF SWAP7 PUSH2 0x6C8 DUP3 PUSH2 0x109 DUP13 PUSH2 0xA8E JUMP JUMPDEST PUSH2 0x6D1 DUP12 PUSH2 0xA8E JUMP JUMPDEST SSTORE PUSH2 0x6DB DUP7 PUSH2 0xA8E JUMP JUMPDEST PUSH2 0x6E6 DUP4 DUP3 SLOAD PUSH2 0xB45 JUMP JUMPDEST SWAP1 SSTORE PUSH2 0xB22 JUMP JUMPDEST SWAP2 PUSH2 0x6F7 DUP9 PUSH2 0xA55 JUMP JUMPDEST CALLER DUP3 MSTORE DUP6 MSTORE KECCAK256 SSTORE DUP6 MLOAD SWAP4 DUP5 MSTORE PUSH1 0x1 PUSH1 0x1 PUSH1 0xA0 SHL SUB SWAP1 DUP2 AND SWAP5 AND SWAP3 LOG3 MLOAD PUSH1 0x1 DUP2 MSTORE RETURN JUMPDEST DUP6 MLOAD PUSH3 0x461BCD PUSH1 0xE5 SHL DUP2 MSTORE PUSH1 0x20 DUP2 DUP10 ADD MSTORE PUSH1 0x28 PUSH1 0x24 DUP3 ADD MSTORE PUSH32 0x45524332303A207472616E7366657220616D6F756E7420657863656564732061 PUSH1 0x44 DUP3 ADD MSTORE PUSH8 0x6C6C6F77616E6365 PUSH1 0xC0 SHL PUSH1 0x64 DUP3 ADD MSTORE PUSH1 0x84 SWAP1 REVERT JUMPDEST POP POP CALLVALUE PUSH2 0xD8 JUMPI DUP2 PUSH1 0x3 NOT CALLDATASIZE ADD SLT PUSH2 0xD8 JUMPI PUSH1 0x20 SWAP1 PUSH32 0x30C3D94C9412176421426071A99648CFD101FDF4843CF6108B60739EBB404A5A SLOAD SWAP1 MLOAD SWAP1 DUP2 MSTORE RETURN JUMPDEST POP POP CALLVALUE PUSH2 0xD8 JUMPI DUP1 PUSH1 0x3 NOT CALLDATASIZE ADD SLT PUSH2 0xD8 JUMPI PUSH1 0x20 SWAP2 DUP2 PUSH2 0x7C9 PUSH2 0x95B JUMP JUMPDEST SWAP2 PUSH1 0x24 CALLDATALOAD SWAP2 DUP3 SWAP2 PUSH2 0x7D9 CALLER PUSH2 0xA55 JUMP JUMPDEST PUSH1 0x1 PUSH1 0x1 PUSH1 0xA0 SHL SUB SWAP1 SWAP6 AND DUP1 DUP3 MSTORE SWAP5 DUP8 MSTORE KECCAK256 SSTORE DUP3 MLOAD SWAP1 DUP2 MSTORE CALLER SWAP1 PUSH32 0x8C5BE1E5EBEC7D5BD14F71427D1E84F3DD0314C0F7B2291E5B200AC8C7C3B925 SWAP1 DUP6 SWAP1 LOG3 MLOAD PUSH1 0x1 DUP2 MSTORE RETURN JUMPDEST DUP4 SWAP1 DUP6 CALLVALUE PUSH2 0x27C JUMPI DUP1 PUSH1 0x3 NOT CALLDATASIZE ADD SLT PUSH2 0x27C JUMPI DUP1 PUSH32 0x30C3D94C9412176421426071A99648CFD101FDF4843CF6108B60739EBB404A5B DUP1 SLOAD PUSH2 0x85F DUP2 PUSH2 0xA1B JUMP JUMPDEST DUP1 DUP7 MSTORE SWAP3 PUSH1 0x20 SWAP3 PUSH1 0x1 SWAP3 DUP1 DUP5 AND SWAP1 DUP2 ISZERO PUSH2 0x8E3 JUMPI POP PUSH1 0x1 EQ PUSH2 0x88C JUMPI PUSH2 0x1F2 DUP8 DUP10 PUSH2 0x1E8 DUP3 DUP11 SUB DUP4 PUSH2 0x98C JUMP JUMPDEST DUP2 MSTORE SWAP4 POP PUSH32 0xC6ECA20B5910BB0BF53B65D139A0A10959064B121C399C67820CE8846191715A JUMPDEST DUP4 DUP6 LT PUSH2 0x8D0 JUMPI POP POP POP POP DUP2 ADD PUSH1 0x20 ADD PUSH2 0x1E8 DUP3 PUSH2 0x1F2 DUP7 DUP1 PUSH2 0x1D7 JUMP JUMPDEST DUP1 SLOAD DUP7 DUP7 ADD DUP5 ADD MSTORE SWAP4 DUP3 ADD SWAP4 DUP2 ADD PUSH2 0x8B2 JUMP JUMPDEST SWAP2 POP POP PUSH2 0x1F2 SWAP8 SWAP6 POP DUP7 SWAP4 POP PUSH1 0x20 SWAP3 POP PUSH2 0x1E8 SWAP5 SWAP2 POP PUSH1 0xFF NOT AND DUP3 DUP5 ADD MSTORE ISZERO ISZERO PUSH1 0x5 SHL DUP3 ADD ADD SWAP3 SWAP5 DUP7 DUP1 PUSH2 0x1D7 JUMP JUMPDEST PUSH1 0x20 DUP1 DUP3 MSTORE DUP3 MLOAD DUP2 DUP4 ADD DUP2 SWAP1 MSTORE SWAP1 SWAP4 SWAP3 PUSH1 0x0 JUMPDEST DUP3 DUP2 LT PUSH2 0x947 JUMPI POP POP PUSH1 0x40 SWAP3 SWAP4 POP PUSH1 0x0 DUP4 DUP3 DUP5 ADD ADD MSTORE PUSH1 0x1F DUP1 NOT SWAP2 ADD AND ADD ADD SWAP1 JUMP JUMPDEST DUP2 DUP2 ADD DUP7 ADD MLOAD DUP5 DUP3 ADD PUSH1 0x40 ADD MSTORE DUP6 ADD PUSH2 0x925 JUMP JUMPDEST PUSH1 0x4 CALLDATALOAD SWAP1 PUSH1 0x1 PUSH1 0x1 PUSH1 0xA0 SHL SUB DUP3 AND DUP3 SUB PUSH2 0x971 JUMPI JUMP JUMPDEST PUSH1 0x0 DUP1 REVERT JUMPDEST PUSH1 0x24 CALLDATALOAD SWAP1 PUSH1 0x1 PUSH1 0x1 PUSH1 0xA0 SHL SUB DUP3 AND DUP3 SUB PUSH2 0x971 JUMPI JUMP JUMPDEST SWAP1 PUSH1 0x1F DUP1 NOT SWAP2 ADD AND DUP2 ADD SWAP1 DUP2 LT PUSH8 0xFFFFFFFFFFFFFFFF DUP3 GT OR PUSH2 0x9AE JUMPI PUSH1 0x40 MSTORE JUMP JUMPDEST PUSH4 0x4E487B71 PUSH1 0xE0 SHL PUSH1 0x0 MSTORE PUSH1 0x41 PUSH1 0x4 MSTORE PUSH1 0x24 PUSH1 0x0 REVERT JUMPDEST DUP2 PUSH1 0x1F DUP3 ADD SLT ISZERO PUSH2 0x971 JUMPI DUP1 CALLDATALOAD SWAP1 PUSH8 0xFFFFFFFFFFFFFFFF DUP3 GT PUSH2 0x9AE JUMPI PUSH1 0x40 MLOAD SWAP3 PUSH2 0x9F9 PUSH1 0x1F DUP5 ADD PUSH1 0x1F NOT AND PUSH1 0x20 ADD DUP6 PUSH2 0x98C JUMP JUMPDEST DUP3 DUP5 MSTORE PUSH1 0x20 DUP4 DUP4 ADD ADD GT PUSH2 0x971 JUMPI DUP2 PUSH1 0x0 SWAP3 PUSH1 0x20 DUP1 SWAP4 ADD DUP4 DUP7 ADD CALLDATACOPY DUP4 ADD ADD MSTORE SWAP1 JUMP JUMPDEST SWAP1 PUSH1 0x1 DUP3 DUP2 SHR SWAP3 AND DUP1 ISZERO PUSH2 0xA4B JUMPI JUMPDEST PUSH1 0x20 DUP4 LT EQ PUSH2 0xA35 JUMPI JUMP JUMPDEST PUSH4 0x4E487B71 PUSH1 0xE0 SHL PUSH1 0x0 MSTORE PUSH1 0x22 PUSH1 0x4 MSTORE PUSH1 0x24 PUSH1 0x0 REVERT JUMPDEST SWAP2 PUSH1 0x7F AND SWAP2 PUSH2 0xA2A JUMP JUMPDEST PUSH1 0x1 PUSH1 0x1 PUSH1 0xA0 SHL SUB AND PUSH1 0x0 SWAP1 DUP2 MSTORE PUSH32 0x30C3D94C9412176421426071A99648CFD101FDF4843CF6108B60739EBB404A59 PUSH1 0x20 MSTORE PUSH1 0x40 SWAP1 KECCAK256 SWAP1 JUMP JUMPDEST PUSH1 0x1 PUSH1 0x1 PUSH1 0xA0 SHL SUB AND PUSH1 0x0 SWAP1 DUP2 MSTORE PUSH32 0x30C3D94C9412176421426071A99648CFD101FDF4843CF6108B60739EBB404A58 PUSH1 0x20 MSTORE PUSH1 0x40 SWAP1 KECCAK256 SWAP1 JUMP JUMPDEST ISZERO PUSH2 0xACE JUMPI JUMP JUMPDEST PUSH1 0x40 MLOAD PUSH3 0x461BCD PUSH1 0xE5 SHL DUP2 MSTORE PUSH1 0x20 PUSH1 0x4 DUP3 ADD MSTORE PUSH1 0x26 PUSH1 0x24 DUP3 ADD MSTORE PUSH32 0x45524332303A207472616E7366657220616D6F756E7420657863656564732062 PUSH1 0x44 DUP3 ADD MSTORE PUSH6 0x616C616E6365 PUSH1 0xD0 SHL PUSH1 0x64 DUP3 ADD MSTORE PUSH1 0x84 SWAP1 REVERT JUMPDEST SWAP2 SWAP1 DUP3 SUB SWAP2 DUP3 GT PUSH2 0xB2F JUMPI JUMP JUMPDEST PUSH4 0x4E487B71 PUSH1 0xE0 SHL PUSH1 0x0 MSTORE PUSH1 0x11 PUSH1 0x4 MSTORE PUSH1 0x24 PUSH1 0x0 REVERT JUMPDEST SWAP2 SWAP1 DUP3 ADD DUP1 SWAP3 GT PUSH2 0xB2F JUMPI JUMP INVALID LOG2 PUSH5 0x6970667358 0x22 SLT KECCAK256 0x2B POP PUSH5 0x22433442A9 PUSH28 0x87F46FDA7770D312306B3F48EDF6F5999880613691AA9E64736F6C63 NUMBER STOP ADDMOD XOR STOP CALLER "},"methodIdentifiers":{"allowance(address,address)":"dd62ed3e","approve(address,uint256)":"095ea7b3","balanceOf(address)":"70a08231","decimals()":"313ce567","init(string,string)":"7029144c","name()":"06fdde03","symbol()":"95d89b41","totalSupply()":"18160ddd","transfer(address,uint256)":"a9059cbb","transferFrom(address,address,uint256)":"23b872dd"}},"storageLayout":{"storage":[],"types":null}}}}