{"contracts/facets/PoolFacet.sol":{"PoolFacet":{"abi":[{"anonymous":false,"inputs":[{"indexed":true,"internalType":"address","name":"user","type":"address"},{"indexed":false,"internalType":"uint256","name":"lpMinted","type":"uint256"},{"indexed":false,"internalType":"uint256","name":"usdcAmount","type":"uint256"}],"name":"LiquidityAdded","type":"event"},{"anonymous":false,"inputs":[{"indexed":true,"internalType":"address","name":"user","type":"address"},{"indexed":false,"internalType":"uint256","name":"lpBurned","type":"uint256"},{"indexed":false,"internalType":"uint256","name":"pxlAmount","type":"uint256"},{"indexed":false,"internalType":"uint256","name":"usdcAmount","type":"uint256"}],"name":"LiquidityRemoved","type":"event"},{"anonymous":false,"inputs":[{"indexed":true,"internalType":"address","name":"user","type":"address"},{"indexed":false,"internalType":"uint256","name":"amountIn","type":"uint256"},{"indexed":false,"internalType":"uint256","name":"amountOut","type":"uint256"},{"indexed":true,"internalType":"address","name":"tokenIn","type":"address"}],"name":"Swap","type":"event"},{"anonymous":false,"inputs":[{"indexed":true,"internalType":"address","name":"from","type":"address"},{"indexed":true,"internalType":"address","name":"to","type":"address"},{"indexed":false,"internalType":"uint256","name":"value","type":"uint256"}],"name":"Transfer","type":"event"},{"inputs":[{"internalType":"uint256","name":"usdcAmount","type":"uint256"}],"name":"addLiquidity","outputs":[],"stateMutability":"nonpayable","type":"function"},{"inputs":[],"name":"getPXLPrice","outputs":[{"internalType":"uint256","name":"price","type":"uint256"}],"stateMutability":"view","type":"function"},{"inputs":[],"name":"getReserves","outputs":[{"internalType":"uint256","name":"reservePXL","type":"uint256"},{"internalType":"uint256","name":"reserveUSDC","type":"uint256"}],"stateMutability":"view","type":"function"},{"inputs":[{"internalType":"string","name":"_tokenName","type":"string"},{"internalType":"string","name":"_tokenSymbol","type":"string"},{"internalType":"uint256","name":"_initialTokenSupply","type":"uint256"},{"internalType":"address","name":"_usdcAddress","type":"address"}],"name":"init","outputs":[],"stateMutability":"nonpayable","type":"function"},{"inputs":[{"internalType":"address","name":"account","type":"address"}],"name":"lpBalanceOf","outputs":[{"internalType":"uint256","name":"","type":"uint256"}],"stateMutability":"view","type":"function"},{"inputs":[{"internalType":"uint256","name":"lpAmount","type":"uint256"}],"name":"removeLiquidity","outputs":[],"stateMutability":"nonpayable","type":"function"},{"inputs":[{"internalType":"uint256","name":"amountIn","type":"uint256"},{"internalType":"address","name":"tokenIn","type":"address"}],"name":"swap","outputs":[],"stateMutability":"nonpayable","type":"function"}],"evm":{"bytecode":{"linkReferences":{},"object":"6080806040523461001657610ff1908161001c8239f35b600080fdfe60406080815260048036101561001457600080fd5b600091823560e01c80630902f1ac14610b3557806351c6590a14610950578063685d0a961461052857806368ca8e74146105005780639c46665c146104c45780639c8f9f23146103155763d3986f081461006d57600080fd5b346103115780600319360112610311576001600160a01b036024358181169380359392909185900361030d576100a1610c62565b9091600080516020610f9c83398151915281815416881460001461020c575485516323b872dd60e01b81523386820190815230602082810191909152604082018a9052919391928492169082908c90829060600103925af190811561020257906101129189916101d3575b50610d62565b6103e5918286029286840414861517156101c0576101309083610d01565b926103e8918281029281840414901517156101ad57509161017661017c927f2a9237ff5aa599ef4c5ee4b1142b53429d5755e2685fe6288b2e3320202115f59594610e04565b90610d2a565b6101868130610eae565b61018f33610bf0565b61019a828254610e04565b90555b815193845260208401523392a380f35b634e487b7160e01b885260119052602487fd5b634e487b7160e01b885260118452602488fd5b6101f5915060203d6020116101fb575b6101ed8183610b5c565b810190610d4a565b3861010c565b503d6101e3565b85513d8a823e3d90fd5b9290939161021933610bf0565b610224888254610df7565b90556102308730610e11565b6103e5908188029188830414881517156102fa5761024e9082610d01565b916103e8908181029181830414901517156102fa576102ac94926101766020959361027893610e04565b9154865163a9059cbb60e01b815233928101928352602083018490529295929485939091169183918b918391604090910190565b03925af19081156102f0577f2a9237ff5aa599ef4c5ee4b1142b53429d5755e2685fe6288b2e3320202115f59392916102eb9188916101d35750610d62565b61019d565b83513d88823e3d90fd5b634e487b7160e01b8a526011845260248afd5b8580fd5b8280fd5b50903461031157602091826003193601126104c057610340823593610338610c62565b929086610d01565b936103817f17756e7333c37ce4d830b74bfb15e55c8c8c3412515bebc84e81f7b32910cbca9561037c61037588548093610d2a565b9589610d01565b610d2a565b9461038b33610c29565b5487811061047d5761040c9284926103a48a8a94610df7565b6103ad33610c29565b556103b98a8254610df7565b90556103c58630610eae565b600080516020610f9c83398151915254875163a9059cbb60e01b8152339281019283526020830193909352919384926001600160a01b03169183918c918391604090910190565b03925af1908115610473579061042891889161045c5750610d62565b82519485528401528201527f1dc8bb69df2b8e91fbdcbfcf93d951b3f0000f085a95fe3f7946d6161439245d60603392a280f35b6101f59150833d85116101fb576101ed8183610b5c565b84513d89823e3d90fd5b855162461bcd60e51b8152808401859052601f60248201527f4c503a206275726e20616d6f756e7420657863656564732062616c616e6365006044820152606490fd5b8380fd5b5090346103115760203660031901126103115735916001600160a01b03831683036104fd57506104f5602092610c29565b549051908152f35b80fd5b83823461052457816003193601126105245760209061051d610da5565b9051908152f35b5080fd5b5090346103115760803660031901126103115767ffffffffffffffff90803582811161094c5761055b9036908301610b94565b9160243581811161030d576105739036908401610b94565b906064359360018060a01b03851680950361094857600080516020610f9c8339815191529560ff875460a01c1661091057508051928284116108fd577f17756e7333c37ce4d830b74bfb15e55c8c8c3412515bebc84e81f7b32910cbc7918254926001958685811c95169283156108f3575b602093848710146108e0578190601f96878111610871575b5084908d8884116001146107f457926107e9575b5050600019600383901b1c191690871b1790555b81519384116107d6577f17756e7333c37ce4d830b74bfb15e55c8c8c3412515bebc84e81f7b32910cbc8958654908682811c921680156107cc575b838310146107b95750838111610758575b50809284116001146106d7575092829391839289946106cc575b50501b916000199060031b1c19161790555b81546001600160a01b0319161781556106b860443530610e11565b805460ff60a01b1916600160a01b17905580f35b01519250388061068b565b919083601f198116878b527f74910373f181c6833031399c7627e773436bd37759d0d573f4e5fa6e674a0566948b905b8883831061073e5750505010610725575b505050811b01905561069d565b015160001960f88460031b161c19169055388080610718565b858701518855909601959485019487935090810190610707565b868a527f74910373f181c6833031399c7627e773436bd37759d0d573f4e5fa6e674a05668480870160051c8201928488106107b0575b0160051c019086905b8281106107a5575050610671565b8b8155018690610797565b9250819261078e565b634e487b7160e01b8b526022905260248afd5b91607f1691610660565b634e487b7160e01b895260418652602489fd5b015190503880610611565b91908a9450601f1984168684527fee50c1baa780082585cf08a8dc7364cc89122f9412c4f8c6fa1ef207daf14d42935b8882821061085b5750508411610842575b505050811b019055610625565b015160001960f88460031b161c19169055388080610835565b8385015186558d97909501949384019301610824565b909150838d527fee50c1baa780082585cf08a8dc7364cc89122f9412c4f8c6fa1ef207daf14d428780850160051c8201928786106108d7575b859493910160051c909101908a908f5b8382106108c9575050506105fd565b81558594508b91018f6108ba565b925081926108aa565b634e487b7160e01b8c526022895260248cfd5b94607f16946105e5565b634e487b7160e01b885260418552602488fd5b5162461bcd60e51b81526020818601526013602482015272105b1c9958591e481a5b9a5d1a585b1a5e9959606a1b6044820152606490fd5b8680fd5b8480fd5b5082903461052457602090816003193601126103115783357f17756e7333c37ce4d830b74bfb15e55c8c8c3412515bebc84e81f7b32910cbca92835415600014610ac05761099d30610bf0565b54935b8415610a875782610a1e9697826109b988869554610e04565b90556109c433610c29565b6109cf888254610e04565b9055600080516020610f9c8339815191525486516323b872dd60e01b8152339281019283523060208401526040830193909352919788926001600160a01b03169183918b918391606090910190565b03925af19485156102f0577fac1d76749e5447b7b16f5ab61447e1bd502f3bb4807af3b28e620d1700a6ee459495610a5c918891610a6a5750610d62565b82519485528401523392a280f35b610a819150833d85116101fb576101ed8183610b5c565b8861010c565b835162461bcd60e51b815280880183905260136024820152724d757374206d696e74204c502073686172657360681b6044820152606490fd5b61037c610ad7610ace610c62565b92839186610d01565b8015610afc5790610aeb610af69230610e11565b61037c865485610d01565b936109a0565b845162461bcd60e51b81528089018490526013602482015272125b9cdd59999a58da595b9d08185b5bdd5b9d606a1b6044820152606490fd5b5082346104fd57806003193601126104fd5750610b50610c62565b82519182526020820152f35b90601f8019910116810190811067ffffffffffffffff821117610b7e57604052565b634e487b7160e01b600052604160045260246000fd5b81601f82011215610beb5780359067ffffffffffffffff8211610b7e5760405192610bc9601f8401601f191660200185610b5c565b82845260208383010111610beb57816000926020809301838601378301015290565b600080fd5b6001600160a01b031660009081527f17756e7333c37ce4d830b74bfb15e55c8c8c3412515bebc84e81f7b32910cbc46020526040902090565b6001600160a01b031660009081527f17756e7333c37ce4d830b74bfb15e55c8c8c3412515bebc84e81f7b32910cbc96020526040902090565b6000610c6d30610bf0565b54600080516020610f9c833981519152549092906001600160a01b031680610c925750565b6040516370a0823160e01b8152306004820152919250602090829060249082905afa908115610cf557600091610cc6575090565b90506020813d602011610ced575b81610ce160209383610b5c565b81010312610beb575190565b3d9150610cd4565b6040513d6000823e3d90fd5b81810292918115918404141715610d1457565b634e487b7160e01b600052601160045260246000fd5b8115610d34570490565b634e487b7160e01b600052601260045260246000fd5b90816020910312610beb57518015158103610beb5790565b15610d6957565b60405162461bcd60e51b81526020600482015260146024820152731554d110c81d1c985b9cd9995c8819985a5b195960621b6044820152606490fd5b610dad610c62565b81158015610def575b610de857670de0b6b3a764000090818102918183041490151715610d145764e8d4a51000610de5920490610d2a565b90565b5050600090565b508015610db6565b91908203918211610d1457565b91908201809211610d1457565b7fddf252ad1be2c89b69c2b068fc378daa952ba7f163c4a11628f55a4df523b3ef60206000927f17756e7333c37ce4d830b74bfb15e55c8c8c3412515bebc84e81f7b32910cbc6610e63868254610e04565b905560018060a01b0316938484527f17756e7333c37ce4d830b74bfb15e55c8c8c3412515bebc84e81f7b32910cbc4825260408420610ea3828254610e04565b9055604051908152a3565b6001600160a01b031660008181527f17756e7333c37ce4d830b74bfb15e55c8c8c3412515bebc84e81f7b32910cbc46020819052604090912054838110610f5757837fddf252ad1be2c89b69c2b068fc378daa952ba7f163c4a11628f55a4df523b3ef92610f20600096602094610df7565b90858752835260408620557f17756e7333c37ce4d830b74bfb15e55c8c8c3412515bebc84e81f7b32910cbc6610ea3828254610df7565b606460405162461bcd60e51b815260206004820152602060248201527f50584c3a206275726e20616d6f756e7420657863656564732062616c616e63656044820152fdfe17756e7333c37ce4d830b74bfb15e55c8c8c3412515bebc84e81f7b32910cbcba264697066735822122005a0bcd5e3eaae5185ca768ad138eb9ec042e9e50d1c028ae8225558e96598ea64736f6c63430008180033","opcodes":"PUSH1 0x80 DUP1 PUSH1 0x40 MSTORE CALLVALUE PUSH2 0x16 JUMPI PUSH2 0xFF1 SWAP1 DUP2 PUSH2 0x1C DUP3 CODECOPY RETURN JUMPDEST PUSH1 0x0 DUP1 REVERT INVALID PUSH1 0x40 PUSH1 0x80 DUP2 MSTORE PUSH1 0x4 DUP1 CALLDATASIZE LT ISZERO PUSH2 0x14 JUMPI PUSH1 0x0 DUP1 REVERT JUMPDEST PUSH1 0x0 SWAP2 DUP3 CALLDATALOAD PUSH1 0xE0 SHR DUP1 PUSH4 0x902F1AC EQ PUSH2 0xB35 JUMPI DUP1 PUSH4 0x51C6590A EQ PUSH2 0x950 JUMPI DUP1 PUSH4 0x685D0A96 EQ PUSH2 0x528 JUMPI DUP1 PUSH4 0x68CA8E74 EQ PUSH2 0x500 JUMPI DUP1 PUSH4 0x9C46665C EQ PUSH2 0x4C4 JUMPI DUP1 PUSH4 0x9C8F9F23 EQ PUSH2 0x315 JUMPI PUSH4 0xD3986F08 EQ PUSH2 0x6D JUMPI PUSH1 0x0 DUP1 REVERT JUMPDEST CALLVALUE PUSH2 0x311 JUMPI DUP1 PUSH1 0x3 NOT CALLDATASIZE ADD SLT PUSH2 0x311 JUMPI PUSH1 0x1 PUSH1 0x1 PUSH1 0xA0 SHL SUB PUSH1 0x24 CALLDATALOAD DUP2 DUP2 AND SWAP4 DUP1 CALLDATALOAD SWAP4 SWAP3 SWAP1 SWAP2 DUP6 SWAP1 SUB PUSH2 0x30D JUMPI PUSH2 0xA1 PUSH2 0xC62 JUMP JUMPDEST SWAP1 SWAP2 PUSH1 0x0 DUP1 MLOAD PUSH1 0x20 PUSH2 0xF9C DUP4 CODECOPY DUP2 MLOAD SWAP2 MSTORE DUP2 DUP2 SLOAD AND DUP9 EQ PUSH1 0x0 EQ PUSH2 0x20C JUMPI SLOAD DUP6 MLOAD PUSH4 0x23B872DD PUSH1 0xE0 SHL DUP2 MSTORE CALLER DUP7 DUP3 ADD SWAP1 DUP2 MSTORE ADDRESS PUSH1 0x20 DUP3 DUP2 ADD SWAP2 SWAP1 SWAP2 MSTORE PUSH1 0x40 DUP3 ADD DUP11 SWAP1 MSTORE SWAP2 SWAP4 SWAP2 SWAP3 DUP5 SWAP3 AND SWAP1 DUP3 SWAP1 DUP13 SWAP1 DUP3 SWAP1 PUSH1 0x60 ADD SUB SWAP3 GAS CALL SWAP1 DUP2 ISZERO PUSH2 0x202 JUMPI SWAP1 PUSH2 0x112 SWAP2 DUP10 SWAP2 PUSH2 0x1D3 JUMPI JUMPDEST POP PUSH2 0xD62 JUMP JUMPDEST PUSH2 0x3E5 SWAP2 DUP3 DUP7 MUL SWAP3 DUP7 DUP5 DIV EQ DUP7 ISZERO OR ISZERO PUSH2 0x1C0 JUMPI PUSH2 0x130 SWAP1 DUP4 PUSH2 0xD01 JUMP JUMPDEST SWAP3 PUSH2 0x3E8 SWAP2 DUP3 DUP2 MUL SWAP3 DUP2 DUP5 DIV EQ SWAP1 ISZERO OR ISZERO PUSH2 0x1AD JUMPI POP SWAP2 PUSH2 0x176 PUSH2 0x17C SWAP3 PUSH32 0x2A9237FF5AA599EF4C5EE4B1142B53429D5755E2685FE6288B2E3320202115F5 SWAP6 SWAP5 PUSH2 0xE04 JUMP JUMPDEST SWAP1 PUSH2 0xD2A JUMP JUMPDEST PUSH2 0x186 DUP2 ADDRESS PUSH2 0xEAE JUMP JUMPDEST PUSH2 0x18F CALLER PUSH2 0xBF0 JUMP JUMPDEST PUSH2 0x19A DUP3 DUP3 SLOAD PUSH2 0xE04 JUMP JUMPDEST SWAP1 SSTORE JUMPDEST DUP2 MLOAD SWAP4 DUP5 MSTORE PUSH1 0x20 DUP5 ADD MSTORE CALLER SWAP3 LOG3 DUP1 RETURN JUMPDEST PUSH4 0x4E487B71 PUSH1 0xE0 SHL DUP9 MSTORE PUSH1 0x11 SWAP1 MSTORE PUSH1 0x24 DUP8 REVERT JUMPDEST PUSH4 0x4E487B71 PUSH1 0xE0 SHL DUP9 MSTORE PUSH1 0x11 DUP5 MSTORE PUSH1 0x24 DUP9 REVERT JUMPDEST PUSH2 0x1F5 SWAP2 POP PUSH1 0x20 RETURNDATASIZE PUSH1 0x20 GT PUSH2 0x1FB JUMPI JUMPDEST PUSH2 0x1ED DUP2 DUP4 PUSH2 0xB5C JUMP JUMPDEST DUP2 ADD SWAP1 PUSH2 0xD4A JUMP JUMPDEST CODESIZE PUSH2 0x10C JUMP JUMPDEST POP RETURNDATASIZE PUSH2 0x1E3 JUMP JUMPDEST DUP6 MLOAD RETURNDATASIZE DUP11 DUP3 RETURNDATACOPY RETURNDATASIZE SWAP1 REVERT JUMPDEST SWAP3 SWAP1 SWAP4 SWAP2 PUSH2 0x219 CALLER PUSH2 0xBF0 JUMP JUMPDEST PUSH2 0x224 DUP9 DUP3 SLOAD PUSH2 0xDF7 JUMP JUMPDEST SWAP1 SSTORE PUSH2 0x230 DUP8 ADDRESS PUSH2 0xE11 JUMP JUMPDEST PUSH2 0x3E5 SWAP1 DUP2 DUP9 MUL SWAP2 DUP9 DUP4 DIV EQ DUP9 ISZERO OR ISZERO PUSH2 0x2FA JUMPI PUSH2 0x24E SWAP1 DUP3 PUSH2 0xD01 JUMP JUMPDEST SWAP2 PUSH2 0x3E8 SWAP1 DUP2 DUP2 MUL SWAP2 DUP2 DUP4 DIV EQ SWAP1 ISZERO OR ISZERO PUSH2 0x2FA JUMPI PUSH2 0x2AC SWAP5 SWAP3 PUSH2 0x176 PUSH1 0x20 SWAP6 SWAP4 PUSH2 0x278 SWAP4 PUSH2 0xE04 JUMP JUMPDEST SWAP2 SLOAD DUP7 MLOAD PUSH4 0xA9059CBB PUSH1 0xE0 SHL DUP2 MSTORE CALLER SWAP3 DUP2 ADD SWAP3 DUP4 MSTORE PUSH1 0x20 DUP4 ADD DUP5 SWAP1 MSTORE SWAP3 SWAP6 SWAP3 SWAP5 DUP6 SWAP4 SWAP1 SWAP2 AND SWAP2 DUP4 SWAP2 DUP12 SWAP2 DUP4 SWAP2 PUSH1 0x40 SWAP1 SWAP2 ADD SWAP1 JUMP JUMPDEST SUB SWAP3 GAS CALL SWAP1 DUP2 ISZERO PUSH2 0x2F0 JUMPI PUSH32 0x2A9237FF5AA599EF4C5EE4B1142B53429D5755E2685FE6288B2E3320202115F5 SWAP4 SWAP3 SWAP2 PUSH2 0x2EB SWAP2 DUP9 SWAP2 PUSH2 0x1D3 JUMPI POP PUSH2 0xD62 JUMP JUMPDEST PUSH2 0x19D JUMP JUMPDEST DUP4 MLOAD RETURNDATASIZE DUP9 DUP3 RETURNDATACOPY RETURNDATASIZE SWAP1 REVERT JUMPDEST PUSH4 0x4E487B71 PUSH1 0xE0 SHL DUP11 MSTORE PUSH1 0x11 DUP5 MSTORE PUSH1 0x24 DUP11 REVERT JUMPDEST DUP6 DUP1 REVERT JUMPDEST DUP3 DUP1 REVERT JUMPDEST POP SWAP1 CALLVALUE PUSH2 0x311 JUMPI PUSH1 0x20 SWAP2 DUP3 PUSH1 0x3 NOT CALLDATASIZE ADD SLT PUSH2 0x4C0 JUMPI PUSH2 0x340 DUP3 CALLDATALOAD SWAP4 PUSH2 0x338 PUSH2 0xC62 JUMP JUMPDEST SWAP3 SWAP1 DUP7 PUSH2 0xD01 JUMP JUMPDEST SWAP4 PUSH2 0x381 PUSH32 0x17756E7333C37CE4D830B74BFB15E55C8C8C3412515BEBC84E81F7B32910CBCA SWAP6 PUSH2 0x37C PUSH2 0x375 DUP9 SLOAD DUP1 SWAP4 PUSH2 0xD2A JUMP JUMPDEST SWAP6 DUP10 PUSH2 0xD01 JUMP JUMPDEST PUSH2 0xD2A JUMP JUMPDEST SWAP5 PUSH2 0x38B CALLER PUSH2 0xC29 JUMP JUMPDEST SLOAD DUP8 DUP2 LT PUSH2 0x47D JUMPI PUSH2 0x40C SWAP3 DUP5 SWAP3 PUSH2 0x3A4 DUP11 DUP11 SWAP5 PUSH2 0xDF7 JUMP JUMPDEST PUSH2 0x3AD CALLER PUSH2 0xC29 JUMP JUMPDEST SSTORE PUSH2 0x3B9 DUP11 DUP3 SLOAD PUSH2 0xDF7 JUMP JUMPDEST SWAP1 SSTORE PUSH2 0x3C5 DUP7 ADDRESS PUSH2 0xEAE JUMP JUMPDEST PUSH1 0x0 DUP1 MLOAD PUSH1 0x20 PUSH2 0xF9C DUP4 CODECOPY DUP2 MLOAD SWAP2 MSTORE SLOAD DUP8 MLOAD PUSH4 0xA9059CBB PUSH1 0xE0 SHL DUP2 MSTORE CALLER SWAP3 DUP2 ADD SWAP3 DUP4 MSTORE PUSH1 0x20 DUP4 ADD SWAP4 SWAP1 SWAP4 MSTORE SWAP2 SWAP4 DUP5 SWAP3 PUSH1 0x1 PUSH1 0x1 PUSH1 0xA0 SHL SUB AND SWAP2 DUP4 SWAP2 DUP13 SWAP2 DUP4 SWAP2 PUSH1 0x40 SWAP1 SWAP2 ADD SWAP1 JUMP JUMPDEST SUB SWAP3 GAS CALL SWAP1 DUP2 ISZERO PUSH2 0x473 JUMPI SWAP1 PUSH2 0x428 SWAP2 DUP9 SWAP2 PUSH2 0x45C JUMPI POP PUSH2 0xD62 JUMP JUMPDEST DUP3 MLOAD SWAP5 DUP6 MSTORE DUP5 ADD MSTORE DUP3 ADD MSTORE PUSH32 0x1DC8BB69DF2B8E91FBDCBFCF93D951B3F0000F085A95FE3F7946D6161439245D PUSH1 0x60 CALLER SWAP3 LOG2 DUP1 RETURN JUMPDEST PUSH2 0x1F5 SWAP2 POP DUP4 RETURNDATASIZE DUP6 GT PUSH2 0x1FB JUMPI PUSH2 0x1ED DUP2 DUP4 PUSH2 0xB5C JUMP JUMPDEST DUP5 MLOAD RETURNDATASIZE DUP10 DUP3 RETURNDATACOPY RETURNDATASIZE SWAP1 REVERT JUMPDEST DUP6 MLOAD PUSH3 0x461BCD PUSH1 0xE5 SHL DUP2 MSTORE DUP1 DUP5 ADD DUP6 SWAP1 MSTORE PUSH1 0x1F PUSH1 0x24 DUP3 ADD MSTORE PUSH32 0x4C503A206275726E20616D6F756E7420657863656564732062616C616E636500 PUSH1 0x44 DUP3 ADD MSTORE PUSH1 0x64 SWAP1 REVERT JUMPDEST DUP4 DUP1 REVERT JUMPDEST POP SWAP1 CALLVALUE PUSH2 0x311 JUMPI PUSH1 0x20 CALLDATASIZE PUSH1 0x3 NOT ADD SLT PUSH2 0x311 JUMPI CALLDATALOAD SWAP2 PUSH1 0x1 PUSH1 0x1 PUSH1 0xA0 SHL SUB DUP4 AND DUP4 SUB PUSH2 0x4FD JUMPI POP PUSH2 0x4F5 PUSH1 0x20 SWAP3 PUSH2 0xC29 JUMP JUMPDEST SLOAD SWAP1 MLOAD SWAP1 DUP2 MSTORE RETURN JUMPDEST DUP1 REVERT JUMPDEST DUP4 DUP3 CALLVALUE PUSH2 0x524 JUMPI DUP2 PUSH1 0x3 NOT CALLDATASIZE ADD SLT PUSH2 0x524 JUMPI PUSH1 0x20 SWAP1 PUSH2 0x51D PUSH2 0xDA5 JUMP JUMPDEST SWAP1 MLOAD SWAP1 DUP2 MSTORE RETURN JUMPDEST POP DUP1 REVERT JUMPDEST POP SWAP1 CALLVALUE PUSH2 0x311 JUMPI PUSH1 0x80 CALLDATASIZE PUSH1 0x3 NOT ADD SLT PUSH2 0x311 JUMPI PUSH8 0xFFFFFFFFFFFFFFFF SWAP1 DUP1 CALLDATALOAD DUP3 DUP2 GT PUSH2 0x94C JUMPI PUSH2 0x55B SWAP1 CALLDATASIZE SWAP1 DUP4 ADD PUSH2 0xB94 JUMP JUMPDEST SWAP2 PUSH1 0x24 CALLDATALOAD DUP2 DUP2 GT PUSH2 0x30D JUMPI PUSH2 0x573 SWAP1 CALLDATASIZE SWAP1 DUP5 ADD PUSH2 0xB94 JUMP JUMPDEST SWAP1 PUSH1 0x64 CALLDATALOAD SWAP4 PUSH1 0x1 DUP1 PUSH1 0xA0 SHL SUB DUP6 AND DUP1 SWAP6 SUB PUSH2 0x948 JUMPI PUSH1 0x0 DUP1 MLOAD PUSH1 0x20 PUSH2 0xF9C DUP4 CODECOPY DUP2 MLOAD SWAP2 MSTORE SWAP6 PUSH1 0xFF DUP8 SLOAD PUSH1 0xA0 SHR AND PUSH2 0x910 JUMPI POP DUP1 MLOAD SWAP3 DUP3 DUP5 GT PUSH2 0x8FD JUMPI PUSH32 0x17756E7333C37CE4D830B74BFB15E55C8C8C3412515BEBC84E81F7B32910CBC7 SWAP2 DUP3 SLOAD SWAP3 PUSH1 0x1 SWAP6 DUP7 DUP6 DUP2 SHR SWAP6 AND SWAP3 DUP4 ISZERO PUSH2 0x8F3 JUMPI JUMPDEST PUSH1 0x20 SWAP4 DUP5 DUP8 LT EQ PUSH2 0x8E0 JUMPI DUP2 SWAP1 PUSH1 0x1F SWAP7 DUP8 DUP2 GT PUSH2 0x871 JUMPI JUMPDEST POP DUP5 SWAP1 DUP14 DUP9 DUP5 GT PUSH1 0x1 EQ PUSH2 0x7F4 JUMPI SWAP3 PUSH2 0x7E9 JUMPI JUMPDEST POP POP PUSH1 0x0 NOT PUSH1 0x3 DUP4 SWAP1 SHL SHR NOT AND SWAP1 DUP8 SHL OR SWAP1 SSTORE JUMPDEST DUP2 MLOAD SWAP4 DUP5 GT PUSH2 0x7D6 JUMPI PUSH32 0x17756E7333C37CE4D830B74BFB15E55C8C8C3412515BEBC84E81F7B32910CBC8 SWAP6 DUP7 SLOAD SWAP1 DUP7 DUP3 DUP2 SHR SWAP3 AND DUP1 ISZERO PUSH2 0x7CC JUMPI JUMPDEST DUP4 DUP4 LT EQ PUSH2 0x7B9 JUMPI POP DUP4 DUP2 GT PUSH2 0x758 JUMPI JUMPDEST POP DUP1 SWAP3 DUP5 GT PUSH1 0x1 EQ PUSH2 0x6D7 JUMPI POP SWAP3 DUP3 SWAP4 SWAP2 DUP4 SWAP3 DUP10 SWAP5 PUSH2 0x6CC JUMPI JUMPDEST POP POP SHL SWAP2 PUSH1 0x0 NOT SWAP1 PUSH1 0x3 SHL SHR NOT AND OR SWAP1 SSTORE JUMPDEST DUP2 SLOAD PUSH1 0x1 PUSH1 0x1 PUSH1 0xA0 SHL SUB NOT AND OR DUP2 SSTORE PUSH2 0x6B8 PUSH1 0x44 CALLDATALOAD ADDRESS PUSH2 0xE11 JUMP JUMPDEST DUP1 SLOAD PUSH1 0xFF PUSH1 0xA0 SHL NOT AND PUSH1 0x1 PUSH1 0xA0 SHL OR SWAP1 SSTORE DUP1 RETURN JUMPDEST ADD MLOAD SWAP3 POP CODESIZE DUP1 PUSH2 0x68B JUMP JUMPDEST SWAP2 SWAP1 DUP4 PUSH1 0x1F NOT DUP2 AND DUP8 DUP12 MSTORE PUSH32 0x74910373F181C6833031399C7627E773436BD37759D0D573F4E5FA6E674A0566 SWAP5 DUP12 SWAP1 JUMPDEST DUP9 DUP4 DUP4 LT PUSH2 0x73E JUMPI POP POP POP LT PUSH2 0x725 JUMPI JUMPDEST POP POP POP DUP2 SHL ADD SWAP1 SSTORE PUSH2 0x69D JUMP JUMPDEST ADD MLOAD PUSH1 0x0 NOT PUSH1 0xF8 DUP5 PUSH1 0x3 SHL AND SHR NOT AND SWAP1 SSTORE CODESIZE DUP1 DUP1 PUSH2 0x718 JUMP JUMPDEST DUP6 DUP8 ADD MLOAD DUP9 SSTORE SWAP1 SWAP7 ADD SWAP6 SWAP5 DUP6 ADD SWAP5 DUP8 SWAP4 POP SWAP1 DUP2 ADD SWAP1 PUSH2 0x707 JUMP JUMPDEST DUP7 DUP11 MSTORE PUSH32 0x74910373F181C6833031399C7627E773436BD37759D0D573F4E5FA6E674A0566 DUP5 DUP1 DUP8 ADD PUSH1 0x5 SHR DUP3 ADD SWAP3 DUP5 DUP9 LT PUSH2 0x7B0 JUMPI JUMPDEST ADD PUSH1 0x5 SHR ADD SWAP1 DUP7 SWAP1 JUMPDEST DUP3 DUP2 LT PUSH2 0x7A5 JUMPI POP POP PUSH2 0x671 JUMP JUMPDEST DUP12 DUP2 SSTORE ADD DUP7 SWAP1 PUSH2 0x797 JUMP JUMPDEST SWAP3 POP DUP2 SWAP3 PUSH2 0x78E JUMP JUMPDEST PUSH4 0x4E487B71 PUSH1 0xE0 SHL DUP12 MSTORE PUSH1 0x22 SWAP1 MSTORE PUSH1 0x24 DUP11 REVERT JUMPDEST SWAP2 PUSH1 0x7F AND SWAP2 PUSH2 0x660 JUMP JUMPDEST PUSH4 0x4E487B71 PUSH1 0xE0 SHL DUP10 MSTORE PUSH1 0x41 DUP7 MSTORE PUSH1 0x24 DUP10 REVERT JUMPDEST ADD MLOAD SWAP1 POP CODESIZE DUP1 PUSH2 0x611 JUMP JUMPDEST SWAP2 SWAP1 DUP11 SWAP5 POP PUSH1 0x1F NOT DUP5 AND DUP7 DUP5 MSTORE PUSH32 0xEE50C1BAA780082585CF08A8DC7364CC89122F9412C4F8C6FA1EF207DAF14D42 SWAP4 JUMPDEST DUP9 DUP3 DUP3 LT PUSH2 0x85B JUMPI POP POP DUP5 GT PUSH2 0x842 JUMPI JUMPDEST POP POP POP DUP2 SHL ADD SWAP1 SSTORE PUSH2 0x625 JUMP JUMPDEST ADD MLOAD PUSH1 0x0 NOT PUSH1 0xF8 DUP5 PUSH1 0x3 SHL AND SHR NOT AND SWAP1 SSTORE CODESIZE DUP1 DUP1 PUSH2 0x835 JUMP JUMPDEST DUP4 DUP6 ADD MLOAD DUP7 SSTORE DUP14 SWAP8 SWAP1 SWAP6 ADD SWAP5 SWAP4 DUP5 ADD SWAP4 ADD PUSH2 0x824 JUMP JUMPDEST SWAP1 SWAP2 POP DUP4 DUP14 MSTORE PUSH32 0xEE50C1BAA780082585CF08A8DC7364CC89122F9412C4F8C6FA1EF207DAF14D42 DUP8 DUP1 DUP6 ADD PUSH1 0x5 SHR DUP3 ADD SWAP3 DUP8 DUP7 LT PUSH2 0x8D7 JUMPI JUMPDEST DUP6 SWAP5 SWAP4 SWAP2 ADD PUSH1 0x5 SHR SWAP1 SWAP2 ADD SWAP1 DUP11 SWAP1 DUP16 JUMPDEST DUP4 DUP3 LT PUSH2 0x8C9 JUMPI POP POP POP PUSH2 0x5FD JUMP JUMPDEST DUP2 SSTORE DUP6 SWAP5 POP DUP12 SWAP2 ADD DUP16 PUSH2 0x8BA JUMP JUMPDEST SWAP3 POP DUP2 SWAP3 PUSH2 0x8AA JUMP JUMPDEST PUSH4 0x4E487B71 PUSH1 0xE0 SHL DUP13 MSTORE PUSH1 0x22 DUP10 MSTORE PUSH1 0x24 DUP13 REVERT JUMPDEST SWAP5 PUSH1 0x7F AND SWAP5 PUSH2 0x5E5 JUMP JUMPDEST PUSH4 0x4E487B71 PUSH1 0xE0 SHL DUP9 MSTORE PUSH1 0x41 DUP6 MSTORE PUSH1 0x24 DUP9 REVERT JUMPDEST MLOAD PUSH3 0x461BCD PUSH1 0xE5 SHL DUP2 MSTORE PUSH1 0x20 DUP2 DUP7 ADD MSTORE PUSH1 0x13 PUSH1 0x24 DUP3 ADD MSTORE PUSH19 0x105B1C9958591E481A5B9A5D1A585B1A5E9959 PUSH1 0x6A SHL PUSH1 0x44 DUP3 ADD MSTORE PUSH1 0x64 SWAP1 REVERT JUMPDEST DUP7 DUP1 REVERT JUMPDEST DUP5 DUP1 REVERT JUMPDEST POP DUP3 SWAP1 CALLVALUE PUSH2 0x524 JUMPI PUSH1 0x20 SWAP1 DUP2 PUSH1 0x3 NOT CALLDATASIZE ADD SLT PUSH2 0x311 JUMPI DUP4 CALLDATALOAD PUSH32 0x17756E7333C37CE4D830B74BFB15E55C8C8C3412515BEBC84E81F7B32910CBCA SWAP3 DUP4 SLOAD ISZERO PUSH1 0x0 EQ PUSH2 0xAC0 JUMPI PUSH2 0x99D ADDRESS PUSH2 0xBF0 JUMP JUMPDEST SLOAD SWAP4 JUMPDEST DUP5 ISZERO PUSH2 0xA87 JUMPI DUP3 PUSH2 0xA1E SWAP7 SWAP8 DUP3 PUSH2 0x9B9 DUP9 DUP7 SWAP6 SLOAD PUSH2 0xE04 JUMP JUMPDEST SWAP1 SSTORE PUSH2 0x9C4 CALLER PUSH2 0xC29 JUMP JUMPDEST PUSH2 0x9CF DUP9 DUP3 SLOAD PUSH2 0xE04 JUMP JUMPDEST SWAP1 SSTORE PUSH1 0x0 DUP1 MLOAD PUSH1 0x20 PUSH2 0xF9C DUP4 CODECOPY DUP2 MLOAD SWAP2 MSTORE SLOAD DUP7 MLOAD PUSH4 0x23B872DD PUSH1 0xE0 SHL DUP2 MSTORE CALLER SWAP3 DUP2 ADD SWAP3 DUP4 MSTORE ADDRESS PUSH1 0x20 DUP5 ADD MSTORE PUSH1 0x40 DUP4 ADD SWAP4 SWAP1 SWAP4 MSTORE SWAP2 SWAP8 DUP9 SWAP3 PUSH1 0x1 PUSH1 0x1 PUSH1 0xA0 SHL SUB AND SWAP2 DUP4 SWAP2 DUP12 SWAP2 DUP4 SWAP2 PUSH1 0x60 SWAP1 SWAP2 ADD SWAP1 JUMP JUMPDEST SUB SWAP3 GAS CALL SWAP5 DUP6 ISZERO PUSH2 0x2F0 JUMPI PUSH32 0xAC1D76749E5447B7B16F5AB61447E1BD502F3BB4807AF3B28E620D1700A6EE45 SWAP5 SWAP6 PUSH2 0xA5C SWAP2 DUP9 SWAP2 PUSH2 0xA6A JUMPI POP PUSH2 0xD62 JUMP JUMPDEST DUP3 MLOAD SWAP5 DUP6 MSTORE DUP5 ADD MSTORE CALLER SWAP3 LOG2 DUP1 RETURN JUMPDEST PUSH2 0xA81 SWAP2 POP DUP4 RETURNDATASIZE DUP6 GT PUSH2 0x1FB JUMPI PUSH2 0x1ED DUP2 DUP4 PUSH2 0xB5C JUMP JUMPDEST DUP9 PUSH2 0x10C JUMP JUMPDEST DUP4 MLOAD PUSH3 0x461BCD PUSH1 0xE5 SHL DUP2 MSTORE DUP1 DUP9 ADD DUP4 SWAP1 MSTORE PUSH1 0x13 PUSH1 0x24 DUP3 ADD MSTORE PUSH19 0x4D757374206D696E74204C5020736861726573 PUSH1 0x68 SHL PUSH1 0x44 DUP3 ADD MSTORE PUSH1 0x64 SWAP1 REVERT JUMPDEST PUSH2 0x37C PUSH2 0xAD7 PUSH2 0xACE PUSH2 0xC62 JUMP JUMPDEST SWAP3 DUP4 SWAP2 DUP7 PUSH2 0xD01 JUMP JUMPDEST DUP1 ISZERO PUSH2 0xAFC JUMPI SWAP1 PUSH2 0xAEB PUSH2 0xAF6 SWAP3 ADDRESS PUSH2 0xE11 JUMP JUMPDEST PUSH2 0x37C DUP7 SLOAD DUP6 PUSH2 0xD01 JUMP JUMPDEST SWAP4 PUSH2 0x9A0 JUMP JUMPDEST DUP5 MLOAD PUSH3 0x461BCD PUSH1 0xE5 SHL DUP2 MSTORE DUP1 DUP10 ADD DUP5 SWAP1 MSTORE PUSH1 0x13 PUSH1 0x24 DUP3 ADD MSTORE PUSH19 0x125B9CDD59999A58DA595B9D08185B5BDD5B9D PUSH1 0x6A SHL PUSH1 0x44 DUP3 ADD MSTORE PUSH1 0x64 SWAP1 REVERT JUMPDEST POP DUP3 CALLVALUE PUSH2 0x4FD JUMPI DUP1 PUSH1 0x3 NOT CALLDATASIZE ADD SLT PUSH2 0x4FD JUMPI POP PUSH2 0xB50 PUSH2 0xC62 JUMP JUMPDEST DUP3 MLOAD SWAP2 DUP3 MSTORE PUSH1 0x20 DUP3 ADD MSTORE RETURN JUMPDEST SWAP1 PUSH1 0x1F DUP1 NOT SWAP2 ADD AND DUP2 ADD SWAP1 DUP2 LT PUSH8 0xFFFFFFFFFFFFFFFF DUP3 GT OR PUSH2 0xB7E JUMPI PUSH1 0x40 MSTORE JUMP JUMPDEST PUSH4 0x4E487B71 PUSH1 0xE0 SHL PUSH1 0x0 MSTORE PUSH1 0x41 PUSH1 0x4 MSTORE PUSH1 0x24 PUSH1 0x0 REVERT JUMPDEST DUP2 PUSH1 0x1F DUP3 ADD SLT ISZERO PUSH2 0xBEB JUMPI DUP1 CALLDATALOAD SWAP1 PUSH8 0xFFFFFFFFFFFFFFFF DUP3 GT PUSH2 0xB7E JUMPI PUSH1 0x40 MLOAD SWAP3 PUSH2 0xBC9 PUSH1 0x1F DUP5 ADD PUSH1 0x1F NOT AND PUSH1 0x20 ADD DUP6 PUSH2 0xB5C JUMP JUMPDEST DUP3 DUP5 MSTORE PUSH1 0x20 DUP4 DUP4 ADD ADD GT PUSH2 0xBEB JUMPI DUP2 PUSH1 0x0 SWAP3 PUSH1 0x20 DUP1 SWAP4 ADD DUP4 DUP7 ADD CALLDATACOPY DUP4 ADD ADD MSTORE SWAP1 JUMP JUMPDEST PUSH1 0x0 DUP1 REVERT JUMPDEST PUSH1 0x1 PUSH1 0x1 PUSH1 0xA0 SHL SUB AND PUSH1 0x0 SWAP1 DUP2 MSTORE PUSH32 0x17756E7333C37CE4D830B74BFB15E55C8C8C3412515BEBC84E81F7B32910CBC4 PUSH1 0x20 MSTORE PUSH1 0x40 SWAP1 KECCAK256 SWAP1 JUMP JUMPDEST PUSH1 0x1 PUSH1 0x1 PUSH1 0xA0 SHL SUB AND PUSH1 0x0 SWAP1 DUP2 MSTORE PUSH32 0x17756E7333C37CE4D830B74BFB15E55C8C8C3412515BEBC84E81F7B32910CBC9 PUSH1 0x20 MSTORE PUSH1 0x40 SWAP1 KECCAK256 SWAP1 JUMP JUMPDEST PUSH1 0x0 PUSH2 0xC6D ADDRESS PUSH2 0xBF0 JUMP JUMPDEST SLOAD PUSH1 0x0 DUP1 MLOAD PUSH1 0x20 PUSH2 0xF9C DUP4 CODECOPY DUP2 MLOAD SWAP2 MSTORE SLOAD SWAP1 SWAP3 SWAP1 PUSH1 0x1 PUSH1 0x1 PUSH1 0xA0 SHL SUB AND DUP1 PUSH2 0xC92 JUMPI POP JUMP JUMPDEST PUSH1 0x40 MLOAD PUSH4 0x70A08231 PUSH1 0xE0 SHL DUP2 MSTORE ADDRESS PUSH1 0x4 DUP3 ADD MSTORE SWAP2 SWAP3 POP PUSH1 0x20 SWAP1 DUP3 SWAP1 PUSH1 0x24 SWAP1 DUP3 SWAP1 GAS STATICCALL SWAP1 DUP2 ISZERO PUSH2 0xCF5 JUMPI PUSH1 0x0 SWAP2 PUSH2 0xCC6 JUMPI POP SWAP1 JUMP JUMPDEST SWAP1 POP PUSH1 0x20 DUP2 RETURNDATASIZE PUSH1 0x20 GT PUSH2 0xCED JUMPI JUMPDEST DUP2 PUSH2 0xCE1 PUSH1 0x20 SWAP4 DUP4 PUSH2 0xB5C JUMP JUMPDEST DUP2 ADD SUB SLT PUSH2 0xBEB JUMPI MLOAD SWAP1 JUMP JUMPDEST RETURNDATASIZE SWAP2 POP PUSH2 0xCD4 JUMP JUMPDEST PUSH1 0x40 MLOAD RETURNDATASIZE PUSH1 0x0 DUP3 RETURNDATACOPY RETURNDATASIZE SWAP1 REVERT JUMPDEST DUP2 DUP2 MUL SWAP3 SWAP2 DUP2 ISZERO SWAP2 DUP5 DIV EQ OR ISZERO PUSH2 0xD14 JUMPI JUMP JUMPDEST PUSH4 0x4E487B71 PUSH1 0xE0 SHL PUSH1 0x0 MSTORE PUSH1 0x11 PUSH1 0x4 MSTORE PUSH1 0x24 PUSH1 0x0 REVERT JUMPDEST DUP2 ISZERO PUSH2 0xD34 JUMPI DIV SWAP1 JUMP JUMPDEST PUSH4 0x4E487B71 PUSH1 0xE0 SHL PUSH1 0x0 MSTORE PUSH1 0x12 PUSH1 0x4 MSTORE PUSH1 0x24 PUSH1 0x0 REVERT JUMPDEST SWAP1 DUP2 PUSH1 0x20 SWAP2 SUB SLT PUSH2 0xBEB JUMPI MLOAD DUP1 ISZERO ISZERO DUP2 SUB PUSH2 0xBEB JUMPI SWAP1 JUMP JUMPDEST ISZERO PUSH2 0xD69 JUMPI JUMP JUMPDEST PUSH1 0x40 MLOAD PUSH3 0x461BCD PUSH1 0xE5 SHL DUP2 MSTORE PUSH1 0x20 PUSH1 0x4 DUP3 ADD MSTORE PUSH1 0x14 PUSH1 0x24 DUP3 ADD MSTORE PUSH20 0x1554D110C81D1C985B9CD9995C8819985A5B1959 PUSH1 0x62 SHL PUSH1 0x44 DUP3 ADD MSTORE PUSH1 0x64 SWAP1 REVERT JUMPDEST PUSH2 0xDAD PUSH2 0xC62 JUMP JUMPDEST DUP2 ISZERO DUP1 ISZERO PUSH2 0xDEF JUMPI JUMPDEST PUSH2 0xDE8 JUMPI PUSH8 0xDE0B6B3A7640000 SWAP1 DUP2 DUP2 MUL SWAP2 DUP2 DUP4 DIV EQ SWAP1 ISZERO OR ISZERO PUSH2 0xD14 JUMPI PUSH5 0xE8D4A51000 PUSH2 0xDE5 SWAP3 DIV SWAP1 PUSH2 0xD2A JUMP JUMPDEST SWAP1 JUMP JUMPDEST POP POP PUSH1 0x0 SWAP1 JUMP JUMPDEST POP DUP1 ISZERO PUSH2 0xDB6 JUMP JUMPDEST SWAP2 SWAP1 DUP3 SUB SWAP2 DUP3 GT PUSH2 0xD14 JUMPI JUMP JUMPDEST SWAP2 SWAP1 DUP3 ADD DUP1 SWAP3 GT PUSH2 0xD14 JUMPI JUMP JUMPDEST PUSH32 0xDDF252AD1BE2C89B69C2B068FC378DAA952BA7F163C4A11628F55A4DF523B3EF PUSH1 0x20 PUSH1 0x0 SWAP3 PUSH32 0x17756E7333C37CE4D830B74BFB15E55C8C8C3412515BEBC84E81F7B32910CBC6 PUSH2 0xE63 DUP7 DUP3 SLOAD PUSH2 0xE04 JUMP JUMPDEST SWAP1 SSTORE PUSH1 0x1 DUP1 PUSH1 0xA0 SHL SUB AND SWAP4 DUP5 DUP5 MSTORE PUSH32 0x17756E7333C37CE4D830B74BFB15E55C8C8C3412515BEBC84E81F7B32910CBC4 DUP3 MSTORE PUSH1 0x40 DUP5 KECCAK256 PUSH2 0xEA3 DUP3 DUP3 SLOAD PUSH2 0xE04 JUMP JUMPDEST SWAP1 SSTORE PUSH1 0x40 MLOAD SWAP1 DUP2 MSTORE LOG3 JUMP JUMPDEST PUSH1 0x1 PUSH1 0x1 PUSH1 0xA0 SHL SUB AND PUSH1 0x0 DUP2 DUP2 MSTORE PUSH32 0x17756E7333C37CE4D830B74BFB15E55C8C8C3412515BEBC84E81F7B32910CBC4 PUSH1 0x20 DUP2 SWAP1 MSTORE PUSH1 0x40 SWAP1 SWAP2 KECCAK256 SLOAD DUP4 DUP2 LT PUSH2 0xF57 JUMPI DUP4 PUSH32 0xDDF252AD1BE2C89B69C2B068FC378DAA952BA7F163C4A11628F55A4DF523B3EF SWAP3 PUSH2 0xF20 PUSH1 0x0 SWAP7 PUSH1 0x20 SWAP5 PUSH2 0xDF7 JUMP JUMPDEST SWAP1 DUP6 DUP8 MSTORE DUP4 MSTORE PUSH1 0x40 DUP7 KECCAK256 SSTORE PUSH32 0x17756E7333C37CE4D830B74BFB15E55C8C8C3412515BEBC84E81F7B32910CBC6 PUSH2 0xEA3 DUP3 DUP3 SLOAD PUSH2 0xDF7 JUMP JUMPDEST PUSH1 0x64 PUSH1 0x40 MLOAD PUSH3 0x461BCD PUSH1 0xE5 SHL DUP2 MSTORE PUSH1 0x20 PUSH1 0x4 DUP3 ADD MSTORE PUSH1 0x20 PUSH1 0x24 DUP3 ADD MSTORE PUSH32 0x50584C3A206275726E20616D6F756E7420657863656564732062616C616E6365 PUSH1 0x44 DUP3 ADD MSTORE REVERT INVALID OR PUSH22 0x6E7333C37CE4D830B74BFB15E55C8C8C3412515BEBC8 0x4E DUP2 0xF7 0xB3 0x29 LT 0xCB 0xCB LOG2 PUSH5 0x6970667358 0x22 SLT KECCAK256 SDIV LOG0 0xBC 0xD5 0xE3 0xEA 0xAE MLOAD DUP6 0xCA PUSH23 0x8AD138EB9EC042E9E50D1C028AE8225558E96598EA6473 PUSH16 0x6C634300081800330000000000000000 "},"methodIdentifiers":{"addLiquidity(uint256)":"51c6590a","getPXLPrice()":"68ca8e74","getReserves()":"0902f1ac","init(string,string,uint256,address)":"685d0a96","lpBalanceOf(address)":"9c46665c","removeLiquidity(uint256)":"9c8f9f23","swap(uint256,address)":"d3986f08"}},"storageLayout":{"storage":[],"types":null}}}}