{"contracts/Initializer.sol":{"Initializer":{"abi":[{"anonymous":false,"inputs":[{"indexed":true,"internalType":"address","name":"from","type":"address"},{"indexed":true,"internalType":"address","name":"to","type":"address"},{"indexed":false,"internalType":"uint256","name":"value","type":"uint256"}],"name":"Transfer","type":"event"},{"inputs":[{"internalType":"string","name":"_tokenName","type":"string"},{"internalType":"string","name":"_tokenSymbol","type":"string"},{"internalType":"uint256","name":"_initialTokenSupply","type":"uint256"},{"internalType":"address","name":"_usdcAddress","type":"address"},{"internalType":"address","name":"_initialOwner","type":"address"}],"name":"initialize","outputs":[],"stateMutability":"nonpayable","type":"function"}],"evm":{"bytecode":{"linkReferences":{},"object":"6080806040523461001657610af1908161001c8239f35b600080fdfe6080604052600436101561001257600080fd5b60003560e01c637e77c5031461002757600080fd5b3461093c5760a036600319011261093c5760043567ffffffffffffffff811161093c57610058903690600401610979565b6024803567ffffffffffffffff811161093c57610079903690600401610979565b91606435916001600160a01b0391828416840361093c57608435838116810361093c5760ff7fb51076b60e26de1cd17db4a90799e5681e06210a6aed55ded85918e6b5b9b74a541661090257815167ffffffffffffffff81116107d657600080516020610a9c83398151915254600181811c911680156108f8575b60208210146107b757601f8111610882575b50806020601f82116001146107f6576000916107eb575b508160011b916000199060031b1c191617600080516020610a9c833981519152555b855167ffffffffffffffff81116107d657600080516020610a5c83398151915254600181811c911680156107cc575b60208210146107b757601f8111610741575b50806020601f82116001146106b3576000916106a8575b508160011b916000199060031b1c191617600080516020610a5c833981519152555b620f4240908160443502916044358304146044351517156106935761026f928260007fddf252ad1be2c89b69c2b068fc378daa952ba7f163c4a11628f55a4df523b3ef602089600396610287987fb51076b60e26de1cd17db4a90799e5681e06210a6aed55ded85918e6b5b9b73e5581811685527fb51076b60e26de1cd17db4a90799e5681e06210a6aed55ded85918e6b5b9b73c83528560408620556040519586521693a360405193849160208301906109d0565b620204c560ec1b815203601c19810184520182610941565b80519067ffffffffffffffff821161067e57600080516020610a3c83398151915254600181811c91168015610674575b602082101461065f57601f81116105e9575b50602090601f83116001146105515795826103379360039361031f99600092610546575b50508160011b9160001990851b1c191617600080516020610a3c833981519152555b60405196879160208301906109d0565b6202d4c560ec1b815203601c19810187520185610941565b835167ffffffffffffffff8111610531577fb51076b60e26de1cd17db4a90799e5681e06210a6aed55ded85918e6b5b9b74491825490600182811c92168015610527575b60208310146105135750601f81116104af575b50602094601f821160011461042d57948192939495600092610422575b50508160011b916000199060031b1c19161790555b7fb51076b60e26de1cd17db4a90799e5681e06210a6aed55ded85918e6b5b9b74580546001600160a01b031916919092161790557fb51076b60e26de1cd17db4a90799e5681e06210a6aed55ded85918e6b5b9b74a805460ff19166001179055005b0151905038806103ab565b601f19821695836000527f26c6de1b151be901a34433b3e0545f66b9d0fbcc169a7e8ea1e3b628126281239160005b8881106104975750836001959697981061047e575b505050811b0190556103c0565b015160001960f88460031b161c19169055388080610471565b9192602060018192868501518155019401920161045c565b826000527f26c6de1b151be901a34433b3e0545f66b9d0fbcc169a7e8ea1e3b62812628123601f830160051c81019160208410610509575b601f0160051c01905b8181106104fd575061038e565b600081556001016104f0565b90915081906104e7565b634e487b7160e01b60009081526022600452fd5b91607f169161037b565b50634e487b7160e01b60009081526041600452fd5b0151905038806102ed565b90600080516020610a3c8339815191526000526000805160206109fc8339815191529160005b601f19851681106105d157508360039361031f999360019361033797601f198116106105b9575b505050811b01600080516020610a3c8339815191525561030f565b015160001983871b60f8161c1916905538808061059e565b91926020600181928685015181550194019201610577565b600080516020610a3c833981519152600052601f830160051c6000805160206109fc833981519152016020841061064a575b601f820160051c6000805160206109fc83398151915201811061063e57506102c9565b6000815560010161061b565b506000805160206109fc83398151915261061b565b83634e487b7160e01b60005260226004526000fd5b90607f16906102b7565b82634e487b7160e01b60005260416004526000fd5b83634e487b7160e01b60005260116004526000fd5b905087015138610197565b600080516020610a5c8339815191526000908152600080516020610a7c8339815191529250601f198416905b8a8282106107295750509083600194939210610710575b5050811b01600080516020610a5c833981519152556101b9565b89015160001960f88460031b161c1916905538806106f6565b600184956020939584930151815501940192016106df565b600080516020610a5c833981519152600052601f820160051c600080516020610a7c83398151915201602083106107a2575b601f820160051c600080516020610a7c8339815191520181106107965750610180565b60008155600101610773565b50600080516020610a7c833981519152610773565b84634e487b7160e01b60005260226004526000fd5b90607f169061016e565b83634e487b7160e01b60005260416004526000fd5b90508301513861011d565b600080516020610a9c8339815191526000908152600080516020610a1c8339815191529250601f198416905b81811061086a57509083600194939210610851575b5050811b01600080516020610a9c8339815191525561013f565b85015160001960f88460031b161c191690553880610837565b9192602060018192868a015181550194019201610822565b600080516020610a9c833981519152600052601f820160051c600080516020610a1c83398151915201602083106108e3575b601f820160051c600080516020610a1c8339815191520181106108d75750610106565b600081556001016108b4565b50600080516020610a1c8339815191526108b4565b90607f16906100f4565b60405162461bcd60e51b81526020600482015260138185015272105b1c9958591e481a5b9a5d1a585b1a5e9959606a1b6044820152606490fd5b600080fd5b90601f8019910116810190811067ffffffffffffffff82111761096357604052565b634e487b7160e01b600052604160045260246000fd5b81601f8201121561093c5780359067ffffffffffffffff821161096357604051926109ae601f8401601f191660200185610941565b8284526020838301011161093c57816000926020809301838601378301015290565b9081519160005b8381106109e8575050016000815290565b80602080928401015181850152016109d756fe5b2cb101fa793ecc3e928682a82f080b675b5f312f381ba85806f2fecd50826da4c3a42491534ba725ba5a11e36dc420bab42eb42da50bfa0a79663f3dba93afb51076b60e26de1cd17db4a90799e5681e06210a6aed55ded85918e6b5b9b743b51076b60e26de1cd17db4a90799e5681e06210a6aed55ded85918e6b5b9b740662c2a99e8673f942ea7e2bc68904680752620a8afd73037a64d0d58b43ed93fb51076b60e26de1cd17db4a90799e5681e06210a6aed55ded85918e6b5b9b73fa26469706673582212202f976f13ce5d020bc3ec46b3da85920aacfc0552b6a3ef447a36b4e5847d3da964736f6c63430008180033","opcodes":"PUSH1 0x80 DUP1 PUSH1 0x40 MSTORE CALLVALUE PUSH2 0x16 JUMPI PUSH2 0xAF1 SWAP1 DUP2 PUSH2 0x1C DUP3 CODECOPY RETURN JUMPDEST PUSH1 0x0 DUP1 REVERT INVALID PUSH1 0x80 PUSH1 0x40 MSTORE PUSH1 0x4 CALLDATASIZE LT ISZERO PUSH2 0x12 JUMPI PUSH1 0x0 DUP1 REVERT JUMPDEST PUSH1 0x0 CALLDATALOAD PUSH1 0xE0 SHR PUSH4 0x7E77C503 EQ PUSH2 0x27 JUMPI PUSH1 0x0 DUP1 REVERT JUMPDEST CALLVALUE PUSH2 0x93C JUMPI PUSH1 0xA0 CALLDATASIZE PUSH1 0x3 NOT ADD SLT PUSH2 0x93C JUMPI PUSH1 0x4 CALLDATALOAD PUSH8 0xFFFFFFFFFFFFFFFF DUP2 GT PUSH2 0x93C JUMPI PUSH2 0x58 SWAP1 CALLDATASIZE SWAP1 PUSH1 0x4 ADD PUSH2 0x979 JUMP JUMPDEST PUSH1 0x24 DUP1 CALLDATALOAD PUSH8 0xFFFFFFFFFFFFFFFF DUP2 GT PUSH2 0x93C JUMPI PUSH2 0x79 SWAP1 CALLDATASIZE SWAP1 PUSH1 0x4 ADD PUSH2 0x979 JUMP JUMPDEST SWAP2 PUSH1 0x64 CALLDATALOAD SWAP2 PUSH1 0x1 PUSH1 0x1 PUSH1 0xA0 SHL SUB SWAP2 DUP3 DUP5 AND DUP5 SUB PUSH2 0x93C JUMPI PUSH1 0x84 CALLDATALOAD DUP4 DUP2 AND DUP2 SUB PUSH2 0x93C JUMPI PUSH1 0xFF PUSH32 0xB51076B60E26DE1CD17DB4A90799E5681E06210A6AED55DED85918E6B5B9B74A SLOAD AND PUSH2 0x902 JUMPI DUP2 MLOAD PUSH8 0xFFFFFFFFFFFFFFFF DUP2 GT PUSH2 0x7D6 JUMPI PUSH1 0x0 DUP1 MLOAD PUSH1 0x20 PUSH2 0xA9C DUP4 CODECOPY DUP2 MLOAD SWAP2 MSTORE SLOAD PUSH1 0x1 DUP2 DUP2 SHR SWAP2 AND DUP1 ISZERO PUSH2 0x8F8 JUMPI JUMPDEST PUSH1 0x20 DUP3 LT EQ PUSH2 0x7B7 JUMPI PUSH1 0x1F DUP2 GT PUSH2 0x882 JUMPI JUMPDEST POP DUP1 PUSH1 0x20 PUSH1 0x1F DUP3 GT PUSH1 0x1 EQ PUSH2 0x7F6 JUMPI PUSH1 0x0 SWAP2 PUSH2 0x7EB JUMPI JUMPDEST POP DUP2 PUSH1 0x1 SHL SWAP2 PUSH1 0x0 NOT SWAP1 PUSH1 0x3 SHL SHR NOT AND OR PUSH1 0x0 DUP1 MLOAD PUSH1 0x20 PUSH2 0xA9C DUP4 CODECOPY DUP2 MLOAD SWAP2 MSTORE SSTORE JUMPDEST DUP6 MLOAD PUSH8 0xFFFFFFFFFFFFFFFF DUP2 GT PUSH2 0x7D6 JUMPI PUSH1 0x0 DUP1 MLOAD PUSH1 0x20 PUSH2 0xA5C DUP4 CODECOPY DUP2 MLOAD SWAP2 MSTORE SLOAD PUSH1 0x1 DUP2 DUP2 SHR SWAP2 AND DUP1 ISZERO PUSH2 0x7CC JUMPI JUMPDEST PUSH1 0x20 DUP3 LT EQ PUSH2 0x7B7 JUMPI PUSH1 0x1F DUP2 GT PUSH2 0x741 JUMPI JUMPDEST POP DUP1 PUSH1 0x20 PUSH1 0x1F DUP3 GT PUSH1 0x1 EQ PUSH2 0x6B3 JUMPI PUSH1 0x0 SWAP2 PUSH2 0x6A8 JUMPI JUMPDEST POP DUP2 PUSH1 0x1 SHL SWAP2 PUSH1 0x0 NOT SWAP1 PUSH1 0x3 SHL SHR NOT AND OR PUSH1 0x0 DUP1 MLOAD PUSH1 0x20 PUSH2 0xA5C DUP4 CODECOPY DUP2 MLOAD SWAP2 MSTORE SSTORE JUMPDEST PUSH3 0xF4240 SWAP1 DUP2 PUSH1 0x44 CALLDATALOAD MUL SWAP2 PUSH1 0x44 CALLDATALOAD DUP4 DIV EQ PUSH1 0x44 CALLDATALOAD ISZERO OR ISZERO PUSH2 0x693 JUMPI PUSH2 0x26F SWAP3 DUP3 PUSH1 0x0 PUSH32 0xDDF252AD1BE2C89B69C2B068FC378DAA952BA7F163C4A11628F55A4DF523B3EF PUSH1 0x20 DUP10 PUSH1 0x3 SWAP7 PUSH2 0x287 SWAP9 PUSH32 0xB51076B60E26DE1CD17DB4A90799E5681E06210A6AED55DED85918E6B5B9B73E SSTORE DUP2 DUP2 AND DUP6 MSTORE PUSH32 0xB51076B60E26DE1CD17DB4A90799E5681E06210A6AED55DED85918E6B5B9B73C DUP4 MSTORE DUP6 PUSH1 0x40 DUP7 KECCAK256 SSTORE PUSH1 0x40 MLOAD SWAP6 DUP7 MSTORE AND SWAP4 LOG3 PUSH1 0x40 MLOAD SWAP4 DUP5 SWAP2 PUSH1 0x20 DUP4 ADD SWAP1 PUSH2 0x9D0 JUMP JUMPDEST PUSH3 0x204C5 PUSH1 0xEC SHL DUP2 MSTORE SUB PUSH1 0x1C NOT DUP2 ADD DUP5 MSTORE ADD DUP3 PUSH2 0x941 JUMP JUMPDEST DUP1 MLOAD SWAP1 PUSH8 0xFFFFFFFFFFFFFFFF DUP3 GT PUSH2 0x67E JUMPI PUSH1 0x0 DUP1 MLOAD PUSH1 0x20 PUSH2 0xA3C DUP4 CODECOPY DUP2 MLOAD SWAP2 MSTORE SLOAD PUSH1 0x1 DUP2 DUP2 SHR SWAP2 AND DUP1 ISZERO PUSH2 0x674 JUMPI JUMPDEST PUSH1 0x20 DUP3 LT EQ PUSH2 0x65F JUMPI PUSH1 0x1F DUP2 GT PUSH2 0x5E9 JUMPI JUMPDEST POP PUSH1 0x20 SWAP1 PUSH1 0x1F DUP4 GT PUSH1 0x1 EQ PUSH2 0x551 JUMPI SWAP6 DUP3 PUSH2 0x337 SWAP4 PUSH1 0x3 SWAP4 PUSH2 0x31F SWAP10 PUSH1 0x0 SWAP3 PUSH2 0x546 JUMPI JUMPDEST POP POP DUP2 PUSH1 0x1 SHL SWAP2 PUSH1 0x0 NOT SWAP1 DUP6 SHL SHR NOT AND OR PUSH1 0x0 DUP1 MLOAD PUSH1 0x20 PUSH2 0xA3C DUP4 CODECOPY DUP2 MLOAD SWAP2 MSTORE SSTORE JUMPDEST PUSH1 0x40 MLOAD SWAP7 DUP8 SWAP2 PUSH1 0x20 DUP4 ADD SWAP1 PUSH2 0x9D0 JUMP JUMPDEST PUSH3 0x2D4C5 PUSH1 0xEC SHL DUP2 MSTORE SUB PUSH1 0x1C NOT DUP2 ADD DUP8 MSTORE ADD DUP6 PUSH2 0x941 JUMP JUMPDEST DUP4 MLOAD PUSH8 0xFFFFFFFFFFFFFFFF DUP2 GT PUSH2 0x531 JUMPI PUSH32 0xB51076B60E26DE1CD17DB4A90799E5681E06210A6AED55DED85918E6B5B9B744 SWAP2 DUP3 SLOAD SWAP1 PUSH1 0x1 DUP3 DUP2 SHR SWAP3 AND DUP1 ISZERO PUSH2 0x527 JUMPI JUMPDEST PUSH1 0x20 DUP4 LT EQ PUSH2 0x513 JUMPI POP PUSH1 0x1F DUP2 GT PUSH2 0x4AF JUMPI JUMPDEST POP PUSH1 0x20 SWAP5 PUSH1 0x1F DUP3 GT PUSH1 0x1 EQ PUSH2 0x42D JUMPI SWAP5 DUP2 SWAP3 SWAP4 SWAP5 SWAP6 PUSH1 0x0 SWAP3 PUSH2 0x422 JUMPI JUMPDEST POP POP DUP2 PUSH1 0x1 SHL SWAP2 PUSH1 0x0 NOT SWAP1 PUSH1 0x3 SHL SHR NOT AND OR SWAP1 SSTORE JUMPDEST PUSH32 0xB51076B60E26DE1CD17DB4A90799E5681E06210A6AED55DED85918E6B5B9B745 DUP1 SLOAD PUSH1 0x1 PUSH1 0x1 PUSH1 0xA0 SHL SUB NOT AND SWAP2 SWAP1 SWAP3 AND OR SWAP1 SSTORE PUSH32 0xB51076B60E26DE1CD17DB4A90799E5681E06210A6AED55DED85918E6B5B9B74A DUP1 SLOAD PUSH1 0xFF NOT AND PUSH1 0x1 OR SWAP1 SSTORE STOP JUMPDEST ADD MLOAD SWAP1 POP CODESIZE DUP1 PUSH2 0x3AB JUMP JUMPDEST PUSH1 0x1F NOT DUP3 AND SWAP6 DUP4 PUSH1 0x0 MSTORE PUSH32 0x26C6DE1B151BE901A34433B3E0545F66B9D0FBCC169A7E8EA1E3B62812628123 SWAP2 PUSH1 0x0 JUMPDEST DUP9 DUP2 LT PUSH2 0x497 JUMPI POP DUP4 PUSH1 0x1 SWAP6 SWAP7 SWAP8 SWAP9 LT PUSH2 0x47E JUMPI JUMPDEST POP POP POP DUP2 SHL ADD SWAP1 SSTORE PUSH2 0x3C0 JUMP JUMPDEST ADD MLOAD PUSH1 0x0 NOT PUSH1 0xF8 DUP5 PUSH1 0x3 SHL AND SHR NOT AND SWAP1 SSTORE CODESIZE DUP1 DUP1 PUSH2 0x471 JUMP JUMPDEST SWAP2 SWAP3 PUSH1 0x20 PUSH1 0x1 DUP2 SWAP3 DUP7 DUP6 ADD MLOAD DUP2 SSTORE ADD SWAP5 ADD SWAP3 ADD PUSH2 0x45C JUMP JUMPDEST DUP3 PUSH1 0x0 MSTORE PUSH32 0x26C6DE1B151BE901A34433B3E0545F66B9D0FBCC169A7E8EA1E3B62812628123 PUSH1 0x1F DUP4 ADD PUSH1 0x5 SHR DUP2 ADD SWAP2 PUSH1 0x20 DUP5 LT PUSH2 0x509 JUMPI JUMPDEST PUSH1 0x1F ADD PUSH1 0x5 SHR ADD SWAP1 JUMPDEST DUP2 DUP2 LT PUSH2 0x4FD JUMPI POP PUSH2 0x38E JUMP JUMPDEST PUSH1 0x0 DUP2 SSTORE PUSH1 0x1 ADD PUSH2 0x4F0 JUMP JUMPDEST SWAP1 SWAP2 POP DUP2 SWAP1 PUSH2 0x4E7 JUMP JUMPDEST PUSH4 0x4E487B71 PUSH1 0xE0 SHL PUSH1 0x0 SWAP1 DUP2 MSTORE PUSH1 0x22 PUSH1 0x4 MSTORE REVERT JUMPDEST SWAP2 PUSH1 0x7F AND SWAP2 PUSH2 0x37B JUMP JUMPDEST POP PUSH4 0x4E487B71 PUSH1 0xE0 SHL PUSH1 0x0 SWAP1 DUP2 MSTORE PUSH1 0x41 PUSH1 0x4 MSTORE REVERT JUMPDEST ADD MLOAD SWAP1 POP CODESIZE DUP1 PUSH2 0x2ED JUMP JUMPDEST SWAP1 PUSH1 0x0 DUP1 MLOAD PUSH1 0x20 PUSH2 0xA3C DUP4 CODECOPY DUP2 MLOAD SWAP2 MSTORE PUSH1 0x0 MSTORE PUSH1 0x0 DUP1 MLOAD PUSH1 0x20 PUSH2 0x9FC DUP4 CODECOPY DUP2 MLOAD SWAP2 MSTORE SWAP2 PUSH1 0x0 JUMPDEST PUSH1 0x1F NOT DUP6 AND DUP2 LT PUSH2 0x5D1 JUMPI POP DUP4 PUSH1 0x3 SWAP4 PUSH2 0x31F SWAP10 SWAP4 PUSH1 0x1 SWAP4 PUSH2 0x337 SWAP8 PUSH1 0x1F NOT DUP2 AND LT PUSH2 0x5B9 JUMPI JUMPDEST POP POP POP DUP2 SHL ADD PUSH1 0x0 DUP1 MLOAD PUSH1 0x20 PUSH2 0xA3C DUP4 CODECOPY DUP2 MLOAD SWAP2 MSTORE SSTORE PUSH2 0x30F JUMP JUMPDEST ADD MLOAD PUSH1 0x0 NOT DUP4 DUP8 SHL PUSH1 0xF8 AND SHR NOT AND SWAP1 SSTORE CODESIZE DUP1 DUP1 PUSH2 0x59E JUMP JUMPDEST SWAP2 SWAP3 PUSH1 0x20 PUSH1 0x1 DUP2 SWAP3 DUP7 DUP6 ADD MLOAD DUP2 SSTORE ADD SWAP5 ADD SWAP3 ADD PUSH2 0x577 JUMP JUMPDEST PUSH1 0x0 DUP1 MLOAD PUSH1 0x20 PUSH2 0xA3C DUP4 CODECOPY DUP2 MLOAD SWAP2 MSTORE PUSH1 0x0 MSTORE PUSH1 0x1F DUP4 ADD PUSH1 0x5 SHR PUSH1 0x0 DUP1 MLOAD PUSH1 0x20 PUSH2 0x9FC DUP4 CODECOPY DUP2 MLOAD SWAP2 MSTORE ADD PUSH1 0x20 DUP5 LT PUSH2 0x64A JUMPI JUMPDEST PUSH1 0x1F DUP3 ADD PUSH1 0x5 SHR PUSH1 0x0 DUP1 MLOAD PUSH1 0x20 PUSH2 0x9FC DUP4 CODECOPY DUP2 MLOAD SWAP2 MSTORE ADD DUP2 LT PUSH2 0x63E JUMPI POP PUSH2 0x2C9 JUMP JUMPDEST PUSH1 0x0 DUP2 SSTORE PUSH1 0x1 ADD PUSH2 0x61B JUMP JUMPDEST POP PUSH1 0x0 DUP1 MLOAD PUSH1 0x20 PUSH2 0x9FC DUP4 CODECOPY DUP2 MLOAD SWAP2 MSTORE PUSH2 0x61B JUMP JUMPDEST DUP4 PUSH4 0x4E487B71 PUSH1 0xE0 SHL PUSH1 0x0 MSTORE PUSH1 0x22 PUSH1 0x4 MSTORE PUSH1 0x0 REVERT JUMPDEST SWAP1 PUSH1 0x7F AND SWAP1 PUSH2 0x2B7 JUMP JUMPDEST DUP3 PUSH4 0x4E487B71 PUSH1 0xE0 SHL PUSH1 0x0 MSTORE PUSH1 0x41 PUSH1 0x4 MSTORE PUSH1 0x0 REVERT JUMPDEST DUP4 PUSH4 0x4E487B71 PUSH1 0xE0 SHL PUSH1 0x0 MSTORE PUSH1 0x11 PUSH1 0x4 MSTORE PUSH1 0x0 REVERT JUMPDEST SWAP1 POP DUP8 ADD MLOAD CODESIZE PUSH2 0x197 JUMP JUMPDEST PUSH1 0x0 DUP1 MLOAD PUSH1 0x20 PUSH2 0xA5C DUP4 CODECOPY DUP2 MLOAD SWAP2 MSTORE PUSH1 0x0 SWAP1 DUP2 MSTORE PUSH1 0x0 DUP1 MLOAD PUSH1 0x20 PUSH2 0xA7C DUP4 CODECOPY DUP2 MLOAD SWAP2 MSTORE SWAP3 POP PUSH1 0x1F NOT DUP5 AND SWAP1 JUMPDEST DUP11 DUP3 DUP3 LT PUSH2 0x729 JUMPI POP POP SWAP1 DUP4 PUSH1 0x1 SWAP5 SWAP4 SWAP3 LT PUSH2 0x710 JUMPI JUMPDEST POP POP DUP2 SHL ADD PUSH1 0x0 DUP1 MLOAD PUSH1 0x20 PUSH2 0xA5C DUP4 CODECOPY DUP2 MLOAD SWAP2 MSTORE SSTORE PUSH2 0x1B9 JUMP JUMPDEST DUP10 ADD MLOAD PUSH1 0x0 NOT PUSH1 0xF8 DUP5 PUSH1 0x3 SHL AND SHR NOT AND SWAP1 SSTORE CODESIZE DUP1 PUSH2 0x6F6 JUMP JUMPDEST PUSH1 0x1 DUP5 SWAP6 PUSH1 0x20 SWAP4 SWAP6 DUP5 SWAP4 ADD MLOAD DUP2 SSTORE ADD SWAP5 ADD SWAP3 ADD PUSH2 0x6DF JUMP JUMPDEST PUSH1 0x0 DUP1 MLOAD PUSH1 0x20 PUSH2 0xA5C DUP4 CODECOPY DUP2 MLOAD SWAP2 MSTORE PUSH1 0x0 MSTORE PUSH1 0x1F DUP3 ADD PUSH1 0x5 SHR PUSH1 0x0 DUP1 MLOAD PUSH1 0x20 PUSH2 0xA7C DUP4 CODECOPY DUP2 MLOAD SWAP2 MSTORE ADD PUSH1 0x20 DUP4 LT PUSH2 0x7A2 JUMPI JUMPDEST PUSH1 0x1F DUP3 ADD PUSH1 0x5 SHR PUSH1 0x0 DUP1 MLOAD PUSH1 0x20 PUSH2 0xA7C DUP4 CODECOPY DUP2 MLOAD SWAP2 MSTORE ADD DUP2 LT PUSH2 0x796 JUMPI POP PUSH2 0x180 JUMP JUMPDEST PUSH1 0x0 DUP2 SSTORE PUSH1 0x1 ADD PUSH2 0x773 JUMP JUMPDEST POP PUSH1 0x0 DUP1 MLOAD PUSH1 0x20 PUSH2 0xA7C DUP4 CODECOPY DUP2 MLOAD SWAP2 MSTORE PUSH2 0x773 JUMP JUMPDEST DUP5 PUSH4 0x4E487B71 PUSH1 0xE0 SHL PUSH1 0x0 MSTORE PUSH1 0x22 PUSH1 0x4 MSTORE PUSH1 0x0 REVERT JUMPDEST SWAP1 PUSH1 0x7F AND SWAP1 PUSH2 0x16E JUMP JUMPDEST DUP4 PUSH4 0x4E487B71 PUSH1 0xE0 SHL PUSH1 0x0 MSTORE PUSH1 0x41 PUSH1 0x4 MSTORE PUSH1 0x0 REVERT JUMPDEST SWAP1 POP DUP4 ADD MLOAD CODESIZE PUSH2 0x11D JUMP JUMPDEST PUSH1 0x0 DUP1 MLOAD PUSH1 0x20 PUSH2 0xA9C DUP4 CODECOPY DUP2 MLOAD SWAP2 MSTORE PUSH1 0x0 SWAP1 DUP2 MSTORE PUSH1 0x0 DUP1 MLOAD PUSH1 0x20 PUSH2 0xA1C DUP4 CODECOPY DUP2 MLOAD SWAP2 MSTORE SWAP3 POP PUSH1 0x1F NOT DUP5 AND SWAP1 JUMPDEST DUP2 DUP2 LT PUSH2 0x86A JUMPI POP SWAP1 DUP4 PUSH1 0x1 SWAP5 SWAP4 SWAP3 LT PUSH2 0x851 JUMPI JUMPDEST POP POP DUP2 SHL ADD PUSH1 0x0 DUP1 MLOAD PUSH1 0x20 PUSH2 0xA9C DUP4 CODECOPY DUP2 MLOAD SWAP2 MSTORE SSTORE PUSH2 0x13F JUMP JUMPDEST DUP6 ADD MLOAD PUSH1 0x0 NOT PUSH1 0xF8 DUP5 PUSH1 0x3 SHL AND SHR NOT AND SWAP1 SSTORE CODESIZE DUP1 PUSH2 0x837 JUMP JUMPDEST SWAP2 SWAP3 PUSH1 0x20 PUSH1 0x1 DUP2 SWAP3 DUP7 DUP11 ADD MLOAD DUP2 SSTORE ADD SWAP5 ADD SWAP3 ADD PUSH2 0x822 JUMP JUMPDEST PUSH1 0x0 DUP1 MLOAD PUSH1 0x20 PUSH2 0xA9C DUP4 CODECOPY DUP2 MLOAD SWAP2 MSTORE PUSH1 0x0 MSTORE PUSH1 0x1F DUP3 ADD PUSH1 0x5 SHR PUSH1 0x0 DUP1 MLOAD PUSH1 0x20 PUSH2 0xA1C DUP4 CODECOPY DUP2 MLOAD SWAP2 MSTORE ADD PUSH1 0x20 DUP4 LT PUSH2 0x8E3 JUMPI JUMPDEST PUSH1 0x1F DUP3 ADD PUSH1 0x5 SHR PUSH1 0x0 DUP1 MLOAD PUSH1 0x20 PUSH2 0xA1C DUP4 CODECOPY DUP2 MLOAD SWAP2 MSTORE ADD DUP2 LT PUSH2 0x8D7 JUMPI POP PUSH2 0x106 JUMP JUMPDEST PUSH1 0x0 DUP2 SSTORE PUSH1 0x1 ADD PUSH2 0x8B4 JUMP JUMPDEST POP PUSH1 0x0 DUP1 MLOAD PUSH1 0x20 PUSH2 0xA1C DUP4 CODECOPY DUP2 MLOAD SWAP2 MSTORE PUSH2 0x8B4 JUMP JUMPDEST SWAP1 PUSH1 0x7F AND SWAP1 PUSH2 0xF4 JUMP JUMPDEST PUSH1 0x40 MLOAD PUSH3 0x461BCD PUSH1 0xE5 SHL DUP2 MSTORE PUSH1 0x20 PUSH1 0x4 DUP3 ADD MSTORE PUSH1 0x13 DUP2 DUP6 ADD MSTORE PUSH19 0x105B1C9958591E481A5B9A5D1A585B1A5E9959 PUSH1 0x6A SHL PUSH1 0x44 DUP3 ADD MSTORE PUSH1 0x64 SWAP1 REVERT JUMPDEST PUSH1 0x0 DUP1 REVERT JUMPDEST SWAP1 PUSH1 0x1F DUP1 NOT SWAP2 ADD AND DUP2 ADD SWAP1 DUP2 LT PUSH8 0xFFFFFFFFFFFFFFFF DUP3 GT OR PUSH2 0x963 JUMPI PUSH1 0x40 MSTORE JUMP JUMPDEST PUSH4 0x4E487B71 PUSH1 0xE0 SHL PUSH1 0x0 MSTORE PUSH1 0x41 PUSH1 0x4 MSTORE PUSH1 0x24 PUSH1 0x0 REVERT JUMPDEST DUP2 PUSH1 0x1F DUP3 ADD SLT ISZERO PUSH2 0x93C JUMPI DUP1 CALLDATALOAD SWAP1 PUSH8 0xFFFFFFFFFFFFFFFF DUP3 GT PUSH2 0x963 JUMPI PUSH1 0x40 MLOAD SWAP3 PUSH2 0x9AE PUSH1 0x1F DUP5 ADD PUSH1 0x1F NOT AND PUSH1 0x20 ADD DUP6 PUSH2 0x941 JUMP JUMPDEST DUP3 DUP5 MSTORE PUSH1 0x20 DUP4 DUP4 ADD ADD GT PUSH2 0x93C JUMPI DUP2 PUSH1 0x0 SWAP3 PUSH1 0x20 DUP1 SWAP4 ADD DUP4 DUP7 ADD CALLDATACOPY DUP4 ADD ADD MSTORE SWAP1 JUMP JUMPDEST SWAP1 DUP2 MLOAD SWAP2 PUSH1 0x0 JUMPDEST DUP4 DUP2 LT PUSH2 0x9E8 JUMPI POP POP ADD PUSH1 0x0 DUP2 MSTORE SWAP1 JUMP JUMPDEST DUP1 PUSH1 0x20 DUP1 SWAP3 DUP5 ADD ADD MLOAD DUP2 DUP6 ADD MSTORE ADD PUSH2 0x9D7 JUMP INVALID JUMPDEST 0x2C 0xB1 ADD STATICCALL PUSH26 0x3ECC3E928682A82F080B675B5F312F381BA85806F2FECD50826D LOG4 0xC3 LOG4 0x24 SWAP2 MSTORE8 0x4B 0xA7 0x25 0xBA GAS GT 0xE3 PUSH14 0xC420BAB42EB42DA50BFA0A79663F RETURNDATASIZE 0xBA SWAP4 0xAF 0xB5 LT PUSH23 0xB60E26DE1CD17DB4A90799E5681E06210A6AED55DED859 XOR 0xE6 0xB5 0xB9 0xB7 NUMBER 0xB5 LT PUSH23 0xB60E26DE1CD17DB4A90799E5681E06210A6AED55DED859 XOR 0xE6 0xB5 0xB9 0xB7 BLOCKHASH PUSH7 0x2C2A99E8673F94 0x2E 0xA7 0xE2 0xBC PUSH9 0x904680752620A8AFD7 ADDRESS CALLDATACOPY 0xA6 0x4D 0xD PC 0xB4 RETURNDATACOPY 0xD9 EXTCODEHASH 0xB5 LT PUSH23 0xB60E26DE1CD17DB4A90799E5681E06210A6AED55DED859 XOR 0xE6 0xB5 0xB9 0xB7 EXTCODEHASH LOG2 PUSH5 0x6970667358 0x22 SLT KECCAK256 0x2F SWAP8 PUSH16 0x13CE5D020BC3EC46B3DA85920AACFC05 MSTORE 0xB6 LOG3 0xEF PREVRANDAO PUSH27 0x36B4E5847D3DA964736F6C63430008180033000000000000000000 "},"methodIdentifiers":{"initialize(string,string,uint256,address,address)":"7e77c503"}},"storageLayout":{"storage":[],"types":null}}}}