{"contracts/facets/PoolFacet.sol":{"PoolFacet":{"abi":[{"anonymous":false,"inputs":[{"indexed":true,"internalType":"address","name":"user","type":"address"},{"indexed":false,"internalType":"uint256","name":"lpMinted","type":"uint256"},{"indexed":false,"internalType":"uint256","name":"tokenAmount","type":"uint256"},{"indexed":false,"internalType":"uint256","name":"usdcAmount","type":"uint256"}],"name":"LiquidityAdded","type":"event"},{"anonymous":false,"inputs":[{"indexed":true,"internalType":"address","name":"user","type":"address"},{"indexed":false,"internalType":"uint256","name":"lpBurned","type":"uint256"},{"indexed":false,"internalType":"uint256","name":"tokenAmount","type":"uint256"},{"indexed":false,"internalType":"uint256","name":"usdcAmount","type":"uint256"}],"name":"LiquidityRemoved","type":"event"},{"anonymous":false,"inputs":[{"indexed":true,"internalType":"address","name":"user","type":"address"},{"indexed":false,"internalType":"uint256","name":"amountIn","type":"uint256"},{"indexed":false,"internalType":"uint256","name":"amountOut","type":"uint256"},{"indexed":true,"internalType":"address","name":"tokenIn","type":"address"}],"name":"Swap","type":"event"},{"anonymous":false,"inputs":[{"indexed":true,"internalType":"address","name":"from","type":"address"},{"indexed":true,"internalType":"address","name":"to","type":"address"},{"indexed":false,"internalType":"uint256","name":"value","type":"uint256"}],"name":"Transfer","type":"event"},{"inputs":[{"internalType":"uint256","name":"tokenAmount","type":"uint256"},{"internalType":"uint256","name":"usdcAmount","type":"uint256"}],"name":"addLiquidity","outputs":[],"stateMutability":"nonpayable","type":"function"},{"inputs":[{"internalType":"uint256","name":"lpAmount","type":"uint256"}],"name":"removeLiquidity","outputs":[],"stateMutability":"nonpayable","type":"function"},{"inputs":[{"internalType":"uint256","name":"amountIn","type":"uint256"},{"internalType":"address","name":"tokenIn","type":"address"}],"name":"swap","outputs":[],"stateMutability":"nonpayable","type":"function"}],"evm":{"bytecode":{"linkReferences":{},"object":"6080806040523461001657610b2b908161001c8239f35b600080fdfe60806040908082526004918236101561001757600080fd5b600091823560e01c9081639c8f9f23146106f7575080639cd441da146104025763d3986f081461004657600080fd5b346103fe57806003193601126103fe57602480356001600160a01b038181169386359390928590036103fa578251630240bc6b60e21b81529683888281305afa80156103f057879888916103bd575b507fb51076b60e26de1cd17db4a90799e5681e06210a6aed55ded85918e6b5b9b7459380855416881460001461029e57935485516323b872dd60e01b81523384820190815230602082810191909152604082018a90529a9b999a98998a9790938a928492919091169082908f90829060600103925af1908115610294578b91610277575b5015610273576103e5908189029189830414891517156102615761013d9082610a41565b916103e890818102918183041490151715610261579161016461016a928c97969594610aa2565b90610a6a565b855163a9059cbb60e01b81523383820190815260208101839052919791829082908190604001038189305af1801561025757610229575b50505b303b1561022557839185519384926304a5889f60e41b84528301528183305af1801561021b57610203575b50507f2a9237ff5aa599ef4c5ee4b1142b53429d5755e2685fe6288b2e3320202115f591815193845260208401523392a380f35b61020c906109da565b6102175784386101cf565b8480fd5b83513d84823e3d90fd5b8380fd5b8161024892903d10610250575b6102408183610a04565b810190610a8a565b5038806101a1565b503d610236565b87513d88823e3d90fd5b634e487b7160e01b8b5260118452848bfd5b8980fd5b61028e9150883d8a11610250576102408183610a04565b38610119565b87513d8d823e3d90fd5b85516323b872dd60e01b815233848201908152306020808301829052604083018b90529398979695949291849183918290036060019082908f905af18015610294576103a0575b506103e590818902918983041489151715610261576103049082610a41565b9a6103e890818102918183041490151715610261576103676103328c9d6101648e9a9b9c9d9e958795610aa2565b9654895163a9059cbb60e01b815233878201908152602081018a9052989b8c9991958694939091169284928391604090910190565b03925af1918215610257578692610383575b50506101a4578380fd5b6103999250803d10610250576102408183610a04565b3880610379565b6103b690833d8511610250576102408183610a04565b50386102e5565b90506103e0919850843d86116103e9575b6103d88183610a04565b810190610a26565b97909738610095565b503d6103ce565b84513d89823e3d90fd5b8580fd5b5080fd5b508290346106f357806003193601126106f35780516323b872dd60e01b80825233828501908152306020828101919091528535604083018190529095602435949193909290919087908290819060600103818b305af180156106e9576106cc575b507fb51076b60e26de1cd17db4a90799e5681e06210a6aed55ded85918e6b5b9b7455485519182523383830190815230602082015260408101869052879183918290036060019082908b906001600160a01b03165af180156106a5576106af575b508351630240bc6b60e21b81529484868381305afa80156106a55787968891610682575b507fb51076b60e26de1cd17db4a90799e5681e06210a6aed55ded85918e6b5b9b74290815497881560001461064a57505064e8d4a51000965b87156106075790610535888a959493610aa2565b905561054033610aaf565b61054b888254610aa2565b9055827fddf252ad1be2c89b69c2b068fc378daa952ba7f163c4a11628f55a4df523b3ef8751928984523393a3303b156103fe5784516304a5889f60e41b8152908101829052818160248183305af180156105fd576105e9575b505091519283526020830191909152604082015233907f64b83944e79c3ce8d4c297411de637c3e102d064677aac0c163976ebdcd6f50e9080606081015b0390a280f35b6105f2906109da565b6102175784866105a5565b85513d84823e3d90fd5b865162461bcd60e51b8152808501849052601d60248201527f496e73756666696369656e74206c6971756964697479206d696e7465640000006044820152606490fd5b61066061066b9161065b8b89610a41565b610a6a565b9161065b8a89610a41565b8082101561067b57505b96610521565b9050610675565b905061069c919650853d87116103e9576103d88183610a04565b959095886104e8565b85513d89823e3d90fd5b6106c590863d8811610250576102408183610a04565b50866104c4565b6106e290873d8911610250576102408183610a04565b5087610463565b86513d8a823e3d90fd5b8280fd5b83858492346106f3576020908160031936011261022557630240bc6b60e21b815282359285828281305afa91821561091d57859086936109b8575b5061073d9085610a41565b926107797fb51076b60e26de1cd17db4a90799e5681e06210a6aed55ded85918e6b5b9b7429461065b61077287548093610a6a565b9588610a41565b9361078333610aaf565b54868110610975578661079591610ae8565b61079e33610aaf565b556107aa868254610ae8565b90558587518681527fddf252ad1be2c89b69c2b068fc378daa952ba7f163c4a11628f55a4df523b3ef833392a3865163a9059cbb60e01b808252338483019081526020810186905290919083908290819060400103818b305af1801561096b5761094e575b507fb51076b60e26de1cd17db4a90799e5681e06210a6aed55ded85918e6b5b9b7455488519182523384830190815260208101879052839183918290036040019082908b906001600160a01b03165af1918215610944578792610927575b50501561021757303b156102175785516304a5889f60e41b8152908101859052848160248183305af1801561091d576108e6575b506105e37f1dc8bb69df2b8e91fbdcbfcf93d951b3f0000f085a95fe3f7946d6161439245d939495519283923396846040919493926060820195825260208201520152565b7f1dc8bb69df2b8e91fbdcbfcf93d951b3f0000f085a95fe3f7946d6161439245d93946109156105e3926109da565b9493506108a1565b86513d87823e3d90fd5b61093d9250803d10610250576102408183610a04565b878061086d565b88513d89823e3d90fd5b61096490833d8511610250576102408183610a04565b508861080f565b89513d8a823e3d90fd5b885162461bcd60e51b8152808501849052601f60248201527f4c503a206275726e20616d6f756e7420657863656564732062616c616e6365006044820152606490fd5b61073d93506109d49150873d89116103e9576103d88183610a04565b92610732565b67ffffffffffffffff81116109ee57604052565b634e487b7160e01b600052604160045260246000fd5b90601f8019910116810190811067ffffffffffffffff8211176109ee57604052565b9190826040910312610a3c576020825192015190565b600080fd5b81810292918115918404141715610a5457565b634e487b7160e01b600052601160045260246000fd5b8115610a74570490565b634e487b7160e01b600052601260045260246000fd5b90816020910312610a3c57518015158103610a3c5790565b91908201809211610a5457565b6001600160a01b031660009081527fb51076b60e26de1cd17db4a90799e5681e06210a6aed55ded85918e6b5b9b7416020526040902090565b91908203918211610a545756fea26469706673582212206fe0fc69d53a6774762ba59c6e4cb064888a53563bc6a0e0e27b0604b10de96e64736f6c63430008180033","opcodes":"PUSH1 0x80 DUP1 PUSH1 0x40 MSTORE CALLVALUE PUSH2 0x16 JUMPI PUSH2 0xB2B SWAP1 DUP2 PUSH2 0x1C DUP3 CODECOPY RETURN JUMPDEST PUSH1 0x0 DUP1 REVERT INVALID PUSH1 0x80 PUSH1 0x40 SWAP1 DUP1 DUP3 MSTORE PUSH1 0x4 SWAP2 DUP3 CALLDATASIZE LT ISZERO PUSH2 0x17 JUMPI PUSH1 0x0 DUP1 REVERT JUMPDEST PUSH1 0x0 SWAP2 DUP3 CALLDATALOAD PUSH1 0xE0 SHR SWAP1 DUP2 PUSH4 0x9C8F9F23 EQ PUSH2 0x6F7 JUMPI POP DUP1 PUSH4 0x9CD441DA EQ PUSH2 0x402 JUMPI PUSH4 0xD3986F08 EQ PUSH2 0x46 JUMPI PUSH1 0x0 DUP1 REVERT JUMPDEST CALLVALUE PUSH2 0x3FE JUMPI DUP1 PUSH1 0x3 NOT CALLDATASIZE ADD SLT PUSH2 0x3FE JUMPI PUSH1 0x24 DUP1 CALLDATALOAD PUSH1 0x1 PUSH1 0x1 PUSH1 0xA0 SHL SUB DUP2 DUP2 AND SWAP4 DUP7 CALLDATALOAD SWAP4 SWAP1 SWAP3 DUP6 SWAP1 SUB PUSH2 0x3FA JUMPI DUP3 MLOAD PUSH4 0x240BC6B PUSH1 0xE2 SHL DUP2 MSTORE SWAP7 DUP4 DUP9 DUP3 DUP2 ADDRESS GAS STATICCALL DUP1 ISZERO PUSH2 0x3F0 JUMPI DUP8 SWAP9 DUP9 SWAP2 PUSH2 0x3BD JUMPI JUMPDEST POP PUSH32 0xB51076B60E26DE1CD17DB4A90799E5681E06210A6AED55DED85918E6B5B9B745 SWAP4 DUP1 DUP6 SLOAD AND DUP9 EQ PUSH1 0x0 EQ PUSH2 0x29E JUMPI SWAP4 SLOAD DUP6 MLOAD PUSH4 0x23B872DD PUSH1 0xE0 SHL DUP2 MSTORE CALLER DUP5 DUP3 ADD SWAP1 DUP2 MSTORE ADDRESS PUSH1 0x20 DUP3 DUP2 ADD SWAP2 SWAP1 SWAP2 MSTORE PUSH1 0x40 DUP3 ADD DUP11 SWAP1 MSTORE SWAP11 SWAP12 SWAP10 SWAP11 SWAP9 SWAP10 DUP11 SWAP8 SWAP1 SWAP4 DUP11 SWAP3 DUP5 SWAP3 SWAP2 SWAP1 SWAP2 AND SWAP1 DUP3 SWAP1 DUP16 SWAP1 DUP3 SWAP1 PUSH1 0x60 ADD SUB SWAP3 GAS CALL SWAP1 DUP2 ISZERO PUSH2 0x294 JUMPI DUP12 SWAP2 PUSH2 0x277 JUMPI JUMPDEST POP ISZERO PUSH2 0x273 JUMPI PUSH2 0x3E5 SWAP1 DUP2 DUP10 MUL SWAP2 DUP10 DUP4 DIV EQ DUP10 ISZERO OR ISZERO PUSH2 0x261 JUMPI PUSH2 0x13D SWAP1 DUP3 PUSH2 0xA41 JUMP JUMPDEST SWAP2 PUSH2 0x3E8 SWAP1 DUP2 DUP2 MUL SWAP2 DUP2 DUP4 DIV EQ SWAP1 ISZERO OR ISZERO PUSH2 0x261 JUMPI SWAP2 PUSH2 0x164 PUSH2 0x16A SWAP3 DUP13 SWAP8 SWAP7 SWAP6 SWAP5 PUSH2 0xAA2 JUMP JUMPDEST SWAP1 PUSH2 0xA6A JUMP JUMPDEST DUP6 MLOAD PUSH4 0xA9059CBB PUSH1 0xE0 SHL DUP2 MSTORE CALLER DUP4 DUP3 ADD SWAP1 DUP2 MSTORE PUSH1 0x20 DUP2 ADD DUP4 SWAP1 MSTORE SWAP2 SWAP8 SWAP2 DUP3 SWAP1 DUP3 SWAP1 DUP2 SWAP1 PUSH1 0x40 ADD SUB DUP2 DUP10 ADDRESS GAS CALL DUP1 ISZERO PUSH2 0x257 JUMPI PUSH2 0x229 JUMPI JUMPDEST POP POP JUMPDEST ADDRESS EXTCODESIZE ISZERO PUSH2 0x225 JUMPI DUP4 SWAP2 DUP6 MLOAD SWAP4 DUP5 SWAP3 PUSH4 0x4A5889F PUSH1 0xE4 SHL DUP5 MSTORE DUP4 ADD MSTORE DUP2 DUP4 ADDRESS GAS CALL DUP1 ISZERO PUSH2 0x21B JUMPI PUSH2 0x203 JUMPI JUMPDEST POP POP PUSH32 0x2A9237FF5AA599EF4C5EE4B1142B53429D5755E2685FE6288B2E3320202115F5 SWAP2 DUP2 MLOAD SWAP4 DUP5 MSTORE PUSH1 0x20 DUP5 ADD MSTORE CALLER SWAP3 LOG3 DUP1 RETURN JUMPDEST PUSH2 0x20C SWAP1 PUSH2 0x9DA JUMP JUMPDEST PUSH2 0x217 JUMPI DUP5 CODESIZE PUSH2 0x1CF JUMP JUMPDEST DUP5 DUP1 REVERT JUMPDEST DUP4 MLOAD RETURNDATASIZE DUP5 DUP3 RETURNDATACOPY RETURNDATASIZE SWAP1 REVERT JUMPDEST DUP4 DUP1 REVERT JUMPDEST DUP2 PUSH2 0x248 SWAP3 SWAP1 RETURNDATASIZE LT PUSH2 0x250 JUMPI JUMPDEST PUSH2 0x240 DUP2 DUP4 PUSH2 0xA04 JUMP JUMPDEST DUP2 ADD SWAP1 PUSH2 0xA8A JUMP JUMPDEST POP CODESIZE DUP1 PUSH2 0x1A1 JUMP JUMPDEST POP RETURNDATASIZE PUSH2 0x236 JUMP JUMPDEST DUP8 MLOAD RETURNDATASIZE DUP9 DUP3 RETURNDATACOPY RETURNDATASIZE SWAP1 REVERT JUMPDEST PUSH4 0x4E487B71 PUSH1 0xE0 SHL DUP12 MSTORE PUSH1 0x11 DUP5 MSTORE DUP5 DUP12 REVERT JUMPDEST DUP10 DUP1 REVERT JUMPDEST PUSH2 0x28E SWAP2 POP DUP9 RETURNDATASIZE DUP11 GT PUSH2 0x250 JUMPI PUSH2 0x240 DUP2 DUP4 PUSH2 0xA04 JUMP JUMPDEST CODESIZE PUSH2 0x119 JUMP JUMPDEST DUP8 MLOAD RETURNDATASIZE DUP14 DUP3 RETURNDATACOPY RETURNDATASIZE SWAP1 REVERT JUMPDEST DUP6 MLOAD PUSH4 0x23B872DD PUSH1 0xE0 SHL DUP2 MSTORE CALLER DUP5 DUP3 ADD SWAP1 DUP2 MSTORE ADDRESS PUSH1 0x20 DUP1 DUP4 ADD DUP3 SWAP1 MSTORE PUSH1 0x40 DUP4 ADD DUP12 SWAP1 MSTORE SWAP4 SWAP9 SWAP8 SWAP7 SWAP6 SWAP5 SWAP3 SWAP2 DUP5 SWAP2 DUP4 SWAP2 DUP3 SWAP1 SUB PUSH1 0x60 ADD SWAP1 DUP3 SWAP1 DUP16 SWAP1 GAS CALL DUP1 ISZERO PUSH2 0x294 JUMPI PUSH2 0x3A0 JUMPI JUMPDEST POP PUSH2 0x3E5 SWAP1 DUP2 DUP10 MUL SWAP2 DUP10 DUP4 DIV EQ DUP10 ISZERO OR ISZERO PUSH2 0x261 JUMPI PUSH2 0x304 SWAP1 DUP3 PUSH2 0xA41 JUMP JUMPDEST SWAP11 PUSH2 0x3E8 SWAP1 DUP2 DUP2 MUL SWAP2 DUP2 DUP4 DIV EQ SWAP1 ISZERO OR ISZERO PUSH2 0x261 JUMPI PUSH2 0x367 PUSH2 0x332 DUP13 SWAP14 PUSH2 0x164 DUP15 SWAP11 SWAP12 SWAP13 SWAP14 SWAP15 SWAP6 DUP8 SWAP6 PUSH2 0xAA2 JUMP JUMPDEST SWAP7 SLOAD DUP10 MLOAD PUSH4 0xA9059CBB PUSH1 0xE0 SHL DUP2 MSTORE CALLER DUP8 DUP3 ADD SWAP1 DUP2 MSTORE PUSH1 0x20 DUP2 ADD DUP11 SWAP1 MSTORE SWAP9 SWAP12 DUP13 SWAP10 SWAP2 SWAP6 DUP7 SWAP5 SWAP4 SWAP1 SWAP2 AND SWAP3 DUP5 SWAP3 DUP4 SWAP2 PUSH1 0x40 SWAP1 SWAP2 ADD SWAP1 JUMP JUMPDEST SUB SWAP3 GAS CALL SWAP2 DUP3 ISZERO PUSH2 0x257 JUMPI DUP7 SWAP3 PUSH2 0x383 JUMPI JUMPDEST POP POP PUSH2 0x1A4 JUMPI DUP4 DUP1 REVERT JUMPDEST PUSH2 0x399 SWAP3 POP DUP1 RETURNDATASIZE LT PUSH2 0x250 JUMPI PUSH2 0x240 DUP2 DUP4 PUSH2 0xA04 JUMP JUMPDEST CODESIZE DUP1 PUSH2 0x379 JUMP JUMPDEST PUSH2 0x3B6 SWAP1 DUP4 RETURNDATASIZE DUP6 GT PUSH2 0x250 JUMPI PUSH2 0x240 DUP2 DUP4 PUSH2 0xA04 JUMP JUMPDEST POP CODESIZE PUSH2 0x2E5 JUMP JUMPDEST SWAP1 POP PUSH2 0x3E0 SWAP2 SWAP9 POP DUP5 RETURNDATASIZE DUP7 GT PUSH2 0x3E9 JUMPI JUMPDEST PUSH2 0x3D8 DUP2 DUP4 PUSH2 0xA04 JUMP JUMPDEST DUP2 ADD SWAP1 PUSH2 0xA26 JUMP JUMPDEST SWAP8 SWAP1 SWAP8 CODESIZE PUSH2 0x95 JUMP JUMPDEST POP RETURNDATASIZE PUSH2 0x3CE JUMP JUMPDEST DUP5 MLOAD RETURNDATASIZE DUP10 DUP3 RETURNDATACOPY RETURNDATASIZE SWAP1 REVERT JUMPDEST DUP6 DUP1 REVERT JUMPDEST POP DUP1 REVERT JUMPDEST POP DUP3 SWAP1 CALLVALUE PUSH2 0x6F3 JUMPI DUP1 PUSH1 0x3 NOT CALLDATASIZE ADD SLT PUSH2 0x6F3 JUMPI DUP1 MLOAD PUSH4 0x23B872DD PUSH1 0xE0 SHL DUP1 DUP3 MSTORE CALLER DUP3 DUP6 ADD SWAP1 DUP2 MSTORE ADDRESS PUSH1 0x20 DUP3 DUP2 ADD SWAP2 SWAP1 SWAP2 MSTORE DUP6 CALLDATALOAD PUSH1 0x40 DUP4 ADD DUP2 SWAP1 MSTORE SWAP1 SWAP6 PUSH1 0x24 CALLDATALOAD SWAP5 SWAP2 SWAP4 SWAP1 SWAP3 SWAP1 SWAP2 SWAP1 DUP8 SWAP1 DUP3 SWAP1 DUP2 SWAP1 PUSH1 0x60 ADD SUB DUP2 DUP12 ADDRESS GAS CALL DUP1 ISZERO PUSH2 0x6E9 JUMPI PUSH2 0x6CC JUMPI JUMPDEST POP PUSH32 0xB51076B60E26DE1CD17DB4A90799E5681E06210A6AED55DED85918E6B5B9B745 SLOAD DUP6 MLOAD SWAP2 DUP3 MSTORE CALLER DUP4 DUP4 ADD SWAP1 DUP2 MSTORE ADDRESS PUSH1 0x20 DUP3 ADD MSTORE PUSH1 0x40 DUP2 ADD DUP7 SWAP1 MSTORE DUP8 SWAP2 DUP4 SWAP2 DUP3 SWAP1 SUB PUSH1 0x60 ADD SWAP1 DUP3 SWAP1 DUP12 SWAP1 PUSH1 0x1 PUSH1 0x1 PUSH1 0xA0 SHL SUB AND GAS CALL DUP1 ISZERO PUSH2 0x6A5 JUMPI PUSH2 0x6AF JUMPI JUMPDEST POP DUP4 MLOAD PUSH4 0x240BC6B PUSH1 0xE2 SHL DUP2 MSTORE SWAP5 DUP5 DUP7 DUP4 DUP2 ADDRESS GAS STATICCALL DUP1 ISZERO PUSH2 0x6A5 JUMPI DUP8 SWAP7 DUP9 SWAP2 PUSH2 0x682 JUMPI JUMPDEST POP PUSH32 0xB51076B60E26DE1CD17DB4A90799E5681E06210A6AED55DED85918E6B5B9B742 SWAP1 DUP2 SLOAD SWAP8 DUP9 ISZERO PUSH1 0x0 EQ PUSH2 0x64A JUMPI POP POP PUSH5 0xE8D4A51000 SWAP7 JUMPDEST DUP8 ISZERO PUSH2 0x607 JUMPI SWAP1 PUSH2 0x535 DUP9 DUP11 SWAP6 SWAP5 SWAP4 PUSH2 0xAA2 JUMP JUMPDEST SWAP1 SSTORE PUSH2 0x540 CALLER PUSH2 0xAAF JUMP JUMPDEST PUSH2 0x54B DUP9 DUP3 SLOAD PUSH2 0xAA2 JUMP JUMPDEST SWAP1 SSTORE DUP3 PUSH32 0xDDF252AD1BE2C89B69C2B068FC378DAA952BA7F163C4A11628F55A4DF523B3EF DUP8 MLOAD SWAP3 DUP10 DUP5 MSTORE CALLER SWAP4 LOG3 ADDRESS EXTCODESIZE ISZERO PUSH2 0x3FE JUMPI DUP5 MLOAD PUSH4 0x4A5889F PUSH1 0xE4 SHL DUP2 MSTORE SWAP1 DUP2 ADD DUP3 SWAP1 MSTORE DUP2 DUP2 PUSH1 0x24 DUP2 DUP4 ADDRESS GAS CALL DUP1 ISZERO PUSH2 0x5FD JUMPI PUSH2 0x5E9 JUMPI JUMPDEST POP POP SWAP2 MLOAD SWAP3 DUP4 MSTORE PUSH1 0x20 DUP4 ADD SWAP2 SWAP1 SWAP2 MSTORE PUSH1 0x40 DUP3 ADD MSTORE CALLER SWAP1 PUSH32 0x64B83944E79C3CE8D4C297411DE637C3E102D064677AAC0C163976EBDCD6F50E SWAP1 DUP1 PUSH1 0x60 DUP2 ADD JUMPDEST SUB SWAP1 LOG2 DUP1 RETURN JUMPDEST PUSH2 0x5F2 SWAP1 PUSH2 0x9DA JUMP JUMPDEST PUSH2 0x217 JUMPI DUP5 DUP7 PUSH2 0x5A5 JUMP JUMPDEST DUP6 MLOAD RETURNDATASIZE DUP5 DUP3 RETURNDATACOPY RETURNDATASIZE SWAP1 REVERT JUMPDEST DUP7 MLOAD PUSH3 0x461BCD PUSH1 0xE5 SHL DUP2 MSTORE DUP1 DUP6 ADD DUP5 SWAP1 MSTORE PUSH1 0x1D PUSH1 0x24 DUP3 ADD MSTORE PUSH32 0x496E73756666696369656E74206C6971756964697479206D696E746564000000 PUSH1 0x44 DUP3 ADD MSTORE PUSH1 0x64 SWAP1 REVERT JUMPDEST PUSH2 0x660 PUSH2 0x66B SWAP2 PUSH2 0x65B DUP12 DUP10 PUSH2 0xA41 JUMP JUMPDEST PUSH2 0xA6A JUMP JUMPDEST SWAP2 PUSH2 0x65B DUP11 DUP10 PUSH2 0xA41 JUMP JUMPDEST DUP1 DUP3 LT ISZERO PUSH2 0x67B JUMPI POP JUMPDEST SWAP7 PUSH2 0x521 JUMP JUMPDEST SWAP1 POP PUSH2 0x675 JUMP JUMPDEST SWAP1 POP PUSH2 0x69C SWAP2 SWAP7 POP DUP6 RETURNDATASIZE DUP8 GT PUSH2 0x3E9 JUMPI PUSH2 0x3D8 DUP2 DUP4 PUSH2 0xA04 JUMP JUMPDEST SWAP6 SWAP1 SWAP6 DUP9 PUSH2 0x4E8 JUMP JUMPDEST DUP6 MLOAD RETURNDATASIZE DUP10 DUP3 RETURNDATACOPY RETURNDATASIZE SWAP1 REVERT JUMPDEST PUSH2 0x6C5 SWAP1 DUP7 RETURNDATASIZE DUP9 GT PUSH2 0x250 JUMPI PUSH2 0x240 DUP2 DUP4 PUSH2 0xA04 JUMP JUMPDEST POP DUP7 PUSH2 0x4C4 JUMP JUMPDEST PUSH2 0x6E2 SWAP1 DUP8 RETURNDATASIZE DUP10 GT PUSH2 0x250 JUMPI PUSH2 0x240 DUP2 DUP4 PUSH2 0xA04 JUMP JUMPDEST POP DUP8 PUSH2 0x463 JUMP JUMPDEST DUP7 MLOAD RETURNDATASIZE DUP11 DUP3 RETURNDATACOPY RETURNDATASIZE SWAP1 REVERT JUMPDEST DUP3 DUP1 REVERT JUMPDEST DUP4 DUP6 DUP5 SWAP3 CALLVALUE PUSH2 0x6F3 JUMPI PUSH1 0x20 SWAP1 DUP2 PUSH1 0x3 NOT CALLDATASIZE ADD SLT PUSH2 0x225 JUMPI PUSH4 0x240BC6B PUSH1 0xE2 SHL DUP2 MSTORE DUP3 CALLDATALOAD SWAP3 DUP6 DUP3 DUP3 DUP2 ADDRESS GAS STATICCALL SWAP2 DUP3 ISZERO PUSH2 0x91D JUMPI DUP6 SWAP1 DUP7 SWAP4 PUSH2 0x9B8 JUMPI JUMPDEST POP PUSH2 0x73D SWAP1 DUP6 PUSH2 0xA41 JUMP JUMPDEST SWAP3 PUSH2 0x779 PUSH32 0xB51076B60E26DE1CD17DB4A90799E5681E06210A6AED55DED85918E6B5B9B742 SWAP5 PUSH2 0x65B PUSH2 0x772 DUP8 SLOAD DUP1 SWAP4 PUSH2 0xA6A JUMP JUMPDEST SWAP6 DUP9 PUSH2 0xA41 JUMP JUMPDEST SWAP4 PUSH2 0x783 CALLER PUSH2 0xAAF JUMP JUMPDEST SLOAD DUP7 DUP2 LT PUSH2 0x975 JUMPI DUP7 PUSH2 0x795 SWAP2 PUSH2 0xAE8 JUMP JUMPDEST PUSH2 0x79E CALLER PUSH2 0xAAF JUMP JUMPDEST SSTORE PUSH2 0x7AA DUP7 DUP3 SLOAD PUSH2 0xAE8 JUMP JUMPDEST SWAP1 SSTORE DUP6 DUP8 MLOAD DUP7 DUP2 MSTORE PUSH32 0xDDF252AD1BE2C89B69C2B068FC378DAA952BA7F163C4A11628F55A4DF523B3EF DUP4 CALLER SWAP3 LOG3 DUP7 MLOAD PUSH4 0xA9059CBB PUSH1 0xE0 SHL DUP1 DUP3 MSTORE CALLER DUP5 DUP4 ADD SWAP1 DUP2 MSTORE PUSH1 0x20 DUP2 ADD DUP7 SWAP1 MSTORE SWAP1 SWAP2 SWAP1 DUP4 SWAP1 DUP3 SWAP1 DUP2 SWAP1 PUSH1 0x40 ADD SUB DUP2 DUP12 ADDRESS GAS CALL DUP1 ISZERO PUSH2 0x96B JUMPI PUSH2 0x94E JUMPI JUMPDEST POP PUSH32 0xB51076B60E26DE1CD17DB4A90799E5681E06210A6AED55DED85918E6B5B9B745 SLOAD DUP9 MLOAD SWAP2 DUP3 MSTORE CALLER DUP5 DUP4 ADD SWAP1 DUP2 MSTORE PUSH1 0x20 DUP2 ADD DUP8 SWAP1 MSTORE DUP4 SWAP2 DUP4 SWAP2 DUP3 SWAP1 SUB PUSH1 0x40 ADD SWAP1 DUP3 SWAP1 DUP12 SWAP1 PUSH1 0x1 PUSH1 0x1 PUSH1 0xA0 SHL SUB AND GAS CALL SWAP2 DUP3 ISZERO PUSH2 0x944 JUMPI DUP8 SWAP3 PUSH2 0x927 JUMPI JUMPDEST POP POP ISZERO PUSH2 0x217 JUMPI ADDRESS EXTCODESIZE ISZERO PUSH2 0x217 JUMPI DUP6 MLOAD PUSH4 0x4A5889F PUSH1 0xE4 SHL DUP2 MSTORE SWAP1 DUP2 ADD DUP6 SWAP1 MSTORE DUP5 DUP2 PUSH1 0x24 DUP2 DUP4 ADDRESS GAS CALL DUP1 ISZERO PUSH2 0x91D JUMPI PUSH2 0x8E6 JUMPI JUMPDEST POP PUSH2 0x5E3 PUSH32 0x1DC8BB69DF2B8E91FBDCBFCF93D951B3F0000F085A95FE3F7946D6161439245D SWAP4 SWAP5 SWAP6 MLOAD SWAP3 DUP4 SWAP3 CALLER SWAP7 DUP5 PUSH1 0x40 SWAP2 SWAP5 SWAP4 SWAP3 PUSH1 0x60 DUP3 ADD SWAP6 DUP3 MSTORE PUSH1 0x20 DUP3 ADD MSTORE ADD MSTORE JUMP JUMPDEST PUSH32 0x1DC8BB69DF2B8E91FBDCBFCF93D951B3F0000F085A95FE3F7946D6161439245D SWAP4 SWAP5 PUSH2 0x915 PUSH2 0x5E3 SWAP3 PUSH2 0x9DA JUMP JUMPDEST SWAP5 SWAP4 POP PUSH2 0x8A1 JUMP JUMPDEST DUP7 MLOAD RETURNDATASIZE DUP8 DUP3 RETURNDATACOPY RETURNDATASIZE SWAP1 REVERT JUMPDEST PUSH2 0x93D SWAP3 POP DUP1 RETURNDATASIZE LT PUSH2 0x250 JUMPI PUSH2 0x240 DUP2 DUP4 PUSH2 0xA04 JUMP JUMPDEST DUP8 DUP1 PUSH2 0x86D JUMP JUMPDEST DUP9 MLOAD RETURNDATASIZE DUP10 DUP3 RETURNDATACOPY RETURNDATASIZE SWAP1 REVERT JUMPDEST PUSH2 0x964 SWAP1 DUP4 RETURNDATASIZE DUP6 GT PUSH2 0x250 JUMPI PUSH2 0x240 DUP2 DUP4 PUSH2 0xA04 JUMP JUMPDEST POP DUP9 PUSH2 0x80F JUMP JUMPDEST DUP10 MLOAD RETURNDATASIZE DUP11 DUP3 RETURNDATACOPY RETURNDATASIZE SWAP1 REVERT JUMPDEST DUP9 MLOAD PUSH3 0x461BCD PUSH1 0xE5 SHL DUP2 MSTORE DUP1 DUP6 ADD DUP5 SWAP1 MSTORE PUSH1 0x1F PUSH1 0x24 DUP3 ADD MSTORE PUSH32 0x4C503A206275726E20616D6F756E7420657863656564732062616C616E636500 PUSH1 0x44 DUP3 ADD MSTORE PUSH1 0x64 SWAP1 REVERT JUMPDEST PUSH2 0x73D SWAP4 POP PUSH2 0x9D4 SWAP2 POP DUP8 RETURNDATASIZE DUP10 GT PUSH2 0x3E9 JUMPI PUSH2 0x3D8 DUP2 DUP4 PUSH2 0xA04 JUMP JUMPDEST SWAP3 PUSH2 0x732 JUMP JUMPDEST PUSH8 0xFFFFFFFFFFFFFFFF DUP2 GT PUSH2 0x9EE JUMPI PUSH1 0x40 MSTORE JUMP JUMPDEST PUSH4 0x4E487B71 PUSH1 0xE0 SHL PUSH1 0x0 MSTORE PUSH1 0x41 PUSH1 0x4 MSTORE PUSH1 0x24 PUSH1 0x0 REVERT JUMPDEST SWAP1 PUSH1 0x1F DUP1 NOT SWAP2 ADD AND DUP2 ADD SWAP1 DUP2 LT PUSH8 0xFFFFFFFFFFFFFFFF DUP3 GT OR PUSH2 0x9EE JUMPI PUSH1 0x40 MSTORE JUMP JUMPDEST SWAP2 SWAP1 DUP3 PUSH1 0x40 SWAP2 SUB SLT PUSH2 0xA3C JUMPI PUSH1 0x20 DUP3 MLOAD SWAP3 ADD MLOAD SWAP1 JUMP JUMPDEST PUSH1 0x0 DUP1 REVERT JUMPDEST DUP2 DUP2 MUL SWAP3 SWAP2 DUP2 ISZERO SWAP2 DUP5 DIV EQ OR ISZERO PUSH2 0xA54 JUMPI JUMP JUMPDEST PUSH4 0x4E487B71 PUSH1 0xE0 SHL PUSH1 0x0 MSTORE PUSH1 0x11 PUSH1 0x4 MSTORE PUSH1 0x24 PUSH1 0x0 REVERT JUMPDEST DUP2 ISZERO PUSH2 0xA74 JUMPI DIV SWAP1 JUMP JUMPDEST PUSH4 0x4E487B71 PUSH1 0xE0 SHL PUSH1 0x0 MSTORE PUSH1 0x12 PUSH1 0x4 MSTORE PUSH1 0x24 PUSH1 0x0 REVERT JUMPDEST SWAP1 DUP2 PUSH1 0x20 SWAP2 SUB SLT PUSH2 0xA3C JUMPI MLOAD DUP1 ISZERO ISZERO DUP2 SUB PUSH2 0xA3C JUMPI SWAP1 JUMP JUMPDEST SWAP2 SWAP1 DUP3 ADD DUP1 SWAP3 GT PUSH2 0xA54 JUMPI JUMP JUMPDEST PUSH1 0x1 PUSH1 0x1 PUSH1 0xA0 SHL SUB AND PUSH1 0x0 SWAP1 DUP2 MSTORE PUSH32 0xB51076B60E26DE1CD17DB4A90799E5681E06210A6AED55DED85918E6B5B9B741 PUSH1 0x20 MSTORE PUSH1 0x40 SWAP1 KECCAK256 SWAP1 JUMP JUMPDEST SWAP2 SWAP1 DUP3 SUB SWAP2 DUP3 GT PUSH2 0xA54 JUMPI JUMP INVALID LOG2 PUSH5 0x6970667358 0x22 SLT KECCAK256 PUSH16 0xE0FC69D53A6774762BA59C6E4CB06488 DUP11 MSTORE8 JUMP EXTCODESIZE 0xC6 LOG0 0xE0 0xE2 PUSH28 0x604B10DE96E64736F6C634300081800330000000000000000000000 "},"methodIdentifiers":{"addLiquidity(uint256,uint256)":"9cd441da","removeLiquidity(uint256)":"9c8f9f23","swap(uint256,address)":"d3986f08"}},"storageLayout":{"storage":[],"types":null}}}}