{"contracts/facets/LPTokenFacet.sol":{"LPTokenFacet":{"abi":[{"anonymous":false,"inputs":[{"indexed":true,"internalType":"address","name":"from","type":"address"},{"indexed":true,"internalType":"address","name":"to","type":"address"},{"indexed":false,"internalType":"uint256","name":"value","type":"uint256"}],"name":"Transfer","type":"event"},{"inputs":[{"internalType":"address","name":"account","type":"address"}],"name":"lpBalanceOf","outputs":[{"internalType":"uint256","name":"","type":"uint256"}],"stateMutability":"view","type":"function"},{"inputs":[],"name":"lpDecimals","outputs":[{"internalType":"uint8","name":"","type":"uint8"}],"stateMutability":"pure","type":"function"},{"inputs":[],"name":"lpName","outputs":[{"internalType":"string","name":"","type":"string"}],"stateMutability":"view","type":"function"},{"inputs":[],"name":"lpSymbol","outputs":[{"internalType":"string","name":"","type":"string"}],"stateMutability":"view","type":"function"},{"inputs":[],"name":"lpTotalSupply","outputs":[{"internalType":"uint256","name":"","type":"uint256"}],"stateMutability":"view","type":"function"},{"inputs":[{"internalType":"address","name":"recipient","type":"address"},{"internalType":"uint256","name":"amount","type":"uint256"}],"name":"transferLP","outputs":[{"internalType":"bool","name":"","type":"bool"}],"stateMutability":"nonpayable","type":"function"}],"evm":{"bytecode":{"linkReferences":{},"object":"6080806040523461001657610513908161001c8239f35b600080fdfe6040608081526004908136101561001557600080fd5b600090813560e01c8063056049581461032c57806346cd68011461023057806366be2322146101f3578063851ed85e146101d85780639c46665c146101ab5763ccb1637c1461006357600080fd5b346101a757816003193601126101a757805190827fb51076b60e26de1cd17db4a90799e5681e06210a6aed55ded85918e6b5b9b74480549060018260011c916001841693841561019d575b602094858510811461018a5784895290811561016c5750600114610117575b50505050829003601f01601f191682019267ffffffffffffffff841183851017610104575082918261010092528261045b565b0390f35b634e487b7160e01b815260418552602490fd5b87529192508591837f26c6de1b151be901a34433b3e0545f66b9d0fbcc169a7e8ea1e3b628126281235b8385106101585750505050830101388080806100cd565b805488860183015293019284908201610141565b60ff191688860152505050151560051b8401019050388080806100cd565b634e487b7160e01b8a5260228b5260248afd5b92607f16926100ae565b5080fd5b50346101a75760203660031901126101a7576020906101d06101cb610440565b6104a4565b549051908152f35b50346101a757816003193601126101a7576020905160068152f35b50346101a757816003193601126101a7576020907fb51076b60e26de1cd17db4a90799e5681e06210a6aed55ded85918e6b5b9b742549051908152f35b50346101a757816003193601126101a757805190827fb51076b60e26de1cd17db4a90799e5681e06210a6aed55ded85918e6b5b9b74380549060018260011c9160018416938415610322575b602094858510811461018a5784895290811561016c57506001146102cd5750505050829003601f01601f191682019267ffffffffffffffff841183851017610104575082918261010092528261045b565b87529192508591837f5b2cb101fa793ecc3e928682a82f080b675b5f312f381ba85806f2fecd50826d5b83851061030e5750505050830101388080806100cd565b8054888601830152930192849082016102f7565b92607f169261027c565b50903461043d578160031936011261043d57610346610440565b60243591610353336104a4565b548381106103ee578381039081116103db5761036e336104a4565b55610378826104a4565b8054918483018093116103c85750558251918252602093506001600160a01b03169033907fddf252ad1be2c89b69c2b068fc378daa952ba7f163c4a11628f55a4df523b3ef908590a35160018152f35b634e487b7160e01b815260118752602490fd5b634e487b7160e01b825260118652602482fd5b845162461bcd60e51b8152602081880152602360248201527f4c503a207472616e7366657220616d6f756e7420657863656564732062616c616044820152626e636560e81b6064820152608490fd5b80fd5b600435906001600160a01b038216820361045657565b600080fd5b6020808252825181830181905290939260005b82811061049057505060409293506000838284010152601f8019910116010190565b81810186015184820160400152850161046e565b6001600160a01b031660009081527fb51076b60e26de1cd17db4a90799e5681e06210a6aed55ded85918e6b5b9b741602052604090209056fea2646970667358221220f248d53110cfbf2a0b19eb6ddf7ccccb7232f9a70eb1f510eff189d06861cb2b64736f6c63430008180033","opcodes":"PUSH1 0x80 DUP1 PUSH1 0x40 MSTORE CALLVALUE PUSH2 0x16 JUMPI PUSH2 0x513 SWAP1 DUP2 PUSH2 0x1C DUP3 CODECOPY RETURN JUMPDEST PUSH1 0x0 DUP1 REVERT INVALID PUSH1 0x40 PUSH1 0x80 DUP2 MSTORE PUSH1 0x4 SWAP1 DUP2 CALLDATASIZE LT ISZERO PUSH2 0x15 JUMPI PUSH1 0x0 DUP1 REVERT JUMPDEST PUSH1 0x0 SWAP1 DUP2 CALLDATALOAD PUSH1 0xE0 SHR DUP1 PUSH4 0x5604958 EQ PUSH2 0x32C JUMPI DUP1 PUSH4 0x46CD6801 EQ PUSH2 0x230 JUMPI DUP1 PUSH4 0x66BE2322 EQ PUSH2 0x1F3 JUMPI DUP1 PUSH4 0x851ED85E EQ PUSH2 0x1D8 JUMPI DUP1 PUSH4 0x9C46665C EQ PUSH2 0x1AB JUMPI PUSH4 0xCCB1637C EQ PUSH2 0x63 JUMPI PUSH1 0x0 DUP1 REVERT JUMPDEST CALLVALUE PUSH2 0x1A7 JUMPI DUP2 PUSH1 0x3 NOT CALLDATASIZE ADD SLT PUSH2 0x1A7 JUMPI DUP1 MLOAD SWAP1 DUP3 PUSH32 0xB51076B60E26DE1CD17DB4A90799E5681E06210A6AED55DED85918E6B5B9B744 DUP1 SLOAD SWAP1 PUSH1 0x1 DUP3 PUSH1 0x1 SHR SWAP2 PUSH1 0x1 DUP5 AND SWAP4 DUP5 ISZERO PUSH2 0x19D JUMPI JUMPDEST PUSH1 0x20 SWAP5 DUP6 DUP6 LT DUP2 EQ PUSH2 0x18A JUMPI DUP5 DUP10 MSTORE SWAP1 DUP2 ISZERO PUSH2 0x16C JUMPI POP PUSH1 0x1 EQ PUSH2 0x117 JUMPI JUMPDEST POP POP POP POP DUP3 SWAP1 SUB PUSH1 0x1F ADD PUSH1 0x1F NOT AND DUP3 ADD SWAP3 PUSH8 0xFFFFFFFFFFFFFFFF DUP5 GT DUP4 DUP6 LT OR PUSH2 0x104 JUMPI POP DUP3 SWAP2 DUP3 PUSH2 0x100 SWAP3 MSTORE DUP3 PUSH2 0x45B JUMP JUMPDEST SUB SWAP1 RETURN JUMPDEST PUSH4 0x4E487B71 PUSH1 0xE0 SHL DUP2 MSTORE PUSH1 0x41 DUP6 MSTORE PUSH1 0x24 SWAP1 REVERT JUMPDEST DUP8 MSTORE SWAP2 SWAP3 POP DUP6 SWAP2 DUP4 PUSH32 0x26C6DE1B151BE901A34433B3E0545F66B9D0FBCC169A7E8EA1E3B62812628123 JUMPDEST DUP4 DUP6 LT PUSH2 0x158 JUMPI POP POP POP POP DUP4 ADD ADD CODESIZE DUP1 DUP1 DUP1 PUSH2 0xCD JUMP JUMPDEST DUP1 SLOAD DUP9 DUP7 ADD DUP4 ADD MSTORE SWAP4 ADD SWAP3 DUP5 SWAP1 DUP3 ADD PUSH2 0x141 JUMP JUMPDEST PUSH1 0xFF NOT AND DUP9 DUP7 ADD MSTORE POP POP POP ISZERO ISZERO PUSH1 0x5 SHL DUP5 ADD ADD SWAP1 POP CODESIZE DUP1 DUP1 DUP1 PUSH2 0xCD JUMP JUMPDEST PUSH4 0x4E487B71 PUSH1 0xE0 SHL DUP11 MSTORE PUSH1 0x22 DUP12 MSTORE PUSH1 0x24 DUP11 REVERT JUMPDEST SWAP3 PUSH1 0x7F AND SWAP3 PUSH2 0xAE JUMP JUMPDEST POP DUP1 REVERT JUMPDEST POP CALLVALUE PUSH2 0x1A7 JUMPI PUSH1 0x20 CALLDATASIZE PUSH1 0x3 NOT ADD SLT PUSH2 0x1A7 JUMPI PUSH1 0x20 SWAP1 PUSH2 0x1D0 PUSH2 0x1CB PUSH2 0x440 JUMP JUMPDEST PUSH2 0x4A4 JUMP JUMPDEST SLOAD SWAP1 MLOAD SWAP1 DUP2 MSTORE RETURN JUMPDEST POP CALLVALUE PUSH2 0x1A7 JUMPI DUP2 PUSH1 0x3 NOT CALLDATASIZE ADD SLT PUSH2 0x1A7 JUMPI PUSH1 0x20 SWAP1 MLOAD PUSH1 0x6 DUP2 MSTORE RETURN JUMPDEST POP CALLVALUE PUSH2 0x1A7 JUMPI DUP2 PUSH1 0x3 NOT CALLDATASIZE ADD SLT PUSH2 0x1A7 JUMPI PUSH1 0x20 SWAP1 PUSH32 0xB51076B60E26DE1CD17DB4A90799E5681E06210A6AED55DED85918E6B5B9B742 SLOAD SWAP1 MLOAD SWAP1 DUP2 MSTORE RETURN JUMPDEST POP CALLVALUE PUSH2 0x1A7 JUMPI DUP2 PUSH1 0x3 NOT CALLDATASIZE ADD SLT PUSH2 0x1A7 JUMPI DUP1 MLOAD SWAP1 DUP3 PUSH32 0xB51076B60E26DE1CD17DB4A90799E5681E06210A6AED55DED85918E6B5B9B743 DUP1 SLOAD SWAP1 PUSH1 0x1 DUP3 PUSH1 0x1 SHR SWAP2 PUSH1 0x1 DUP5 AND SWAP4 DUP5 ISZERO PUSH2 0x322 JUMPI JUMPDEST PUSH1 0x20 SWAP5 DUP6 DUP6 LT DUP2 EQ PUSH2 0x18A JUMPI DUP5 DUP10 MSTORE SWAP1 DUP2 ISZERO PUSH2 0x16C JUMPI POP PUSH1 0x1 EQ PUSH2 0x2CD JUMPI POP POP POP POP DUP3 SWAP1 SUB PUSH1 0x1F ADD PUSH1 0x1F NOT AND DUP3 ADD SWAP3 PUSH8 0xFFFFFFFFFFFFFFFF DUP5 GT DUP4 DUP6 LT OR PUSH2 0x104 JUMPI POP DUP3 SWAP2 DUP3 PUSH2 0x100 SWAP3 MSTORE DUP3 PUSH2 0x45B JUMP JUMPDEST DUP8 MSTORE SWAP2 SWAP3 POP DUP6 SWAP2 DUP4 PUSH32 0x5B2CB101FA793ECC3E928682A82F080B675B5F312F381BA85806F2FECD50826D JUMPDEST DUP4 DUP6 LT PUSH2 0x30E JUMPI POP POP POP POP DUP4 ADD ADD CODESIZE DUP1 DUP1 DUP1 PUSH2 0xCD JUMP JUMPDEST DUP1 SLOAD DUP9 DUP7 ADD DUP4 ADD MSTORE SWAP4 ADD SWAP3 DUP5 SWAP1 DUP3 ADD PUSH2 0x2F7 JUMP JUMPDEST SWAP3 PUSH1 0x7F AND SWAP3 PUSH2 0x27C JUMP JUMPDEST POP SWAP1 CALLVALUE PUSH2 0x43D JUMPI DUP2 PUSH1 0x3 NOT CALLDATASIZE ADD SLT PUSH2 0x43D JUMPI PUSH2 0x346 PUSH2 0x440 JUMP JUMPDEST PUSH1 0x24 CALLDATALOAD SWAP2 PUSH2 0x353 CALLER PUSH2 0x4A4 JUMP JUMPDEST SLOAD DUP4 DUP2 LT PUSH2 0x3EE JUMPI DUP4 DUP2 SUB SWAP1 DUP2 GT PUSH2 0x3DB JUMPI PUSH2 0x36E CALLER PUSH2 0x4A4 JUMP JUMPDEST SSTORE PUSH2 0x378 DUP3 PUSH2 0x4A4 JUMP JUMPDEST DUP1 SLOAD SWAP2 DUP5 DUP4 ADD DUP1 SWAP4 GT PUSH2 0x3C8 JUMPI POP SSTORE DUP3 MLOAD SWAP2 DUP3 MSTORE PUSH1 0x20 SWAP4 POP PUSH1 0x1 PUSH1 0x1 PUSH1 0xA0 SHL SUB AND SWAP1 CALLER SWAP1 PUSH32 0xDDF252AD1BE2C89B69C2B068FC378DAA952BA7F163C4A11628F55A4DF523B3EF SWAP1 DUP6 SWAP1 LOG3 MLOAD PUSH1 0x1 DUP2 MSTORE RETURN JUMPDEST PUSH4 0x4E487B71 PUSH1 0xE0 SHL DUP2 MSTORE PUSH1 0x11 DUP8 MSTORE PUSH1 0x24 SWAP1 REVERT JUMPDEST PUSH4 0x4E487B71 PUSH1 0xE0 SHL DUP3 MSTORE PUSH1 0x11 DUP7 MSTORE PUSH1 0x24 DUP3 REVERT JUMPDEST DUP5 MLOAD PUSH3 0x461BCD PUSH1 0xE5 SHL DUP2 MSTORE PUSH1 0x20 DUP2 DUP9 ADD MSTORE PUSH1 0x23 PUSH1 0x24 DUP3 ADD MSTORE PUSH32 0x4C503A207472616E7366657220616D6F756E7420657863656564732062616C61 PUSH1 0x44 DUP3 ADD MSTORE PUSH3 0x6E6365 PUSH1 0xE8 SHL PUSH1 0x64 DUP3 ADD MSTORE PUSH1 0x84 SWAP1 REVERT JUMPDEST DUP1 REVERT JUMPDEST PUSH1 0x4 CALLDATALOAD SWAP1 PUSH1 0x1 PUSH1 0x1 PUSH1 0xA0 SHL SUB DUP3 AND DUP3 SUB PUSH2 0x456 JUMPI JUMP JUMPDEST PUSH1 0x0 DUP1 REVERT JUMPDEST PUSH1 0x20 DUP1 DUP3 MSTORE DUP3 MLOAD DUP2 DUP4 ADD DUP2 SWAP1 MSTORE SWAP1 SWAP4 SWAP3 PUSH1 0x0 JUMPDEST DUP3 DUP2 LT PUSH2 0x490 JUMPI POP POP PUSH1 0x40 SWAP3 SWAP4 POP PUSH1 0x0 DUP4 DUP3 DUP5 ADD ADD MSTORE PUSH1 0x1F DUP1 NOT SWAP2 ADD AND ADD ADD SWAP1 JUMP JUMPDEST DUP2 DUP2 ADD DUP7 ADD MLOAD DUP5 DUP3 ADD PUSH1 0x40 ADD MSTORE DUP6 ADD PUSH2 0x46E JUMP JUMPDEST PUSH1 0x1 PUSH1 0x1 PUSH1 0xA0 SHL SUB AND PUSH1 0x0 SWAP1 DUP2 MSTORE PUSH32 0xB51076B60E26DE1CD17DB4A90799E5681E06210A6AED55DED85918E6B5B9B741 PUSH1 0x20 MSTORE PUSH1 0x40 SWAP1 KECCAK256 SWAP1 JUMP INVALID LOG2 PUSH5 0x6970667358 0x22 SLT KECCAK256 CALLCODE BASEFEE 0xD5 BALANCE LT 0xCF 0xBF 0x2A SIGNEXTEND NOT 0xEB PUSH14 0xDF7CCCCB7232F9A70EB1F510EFF1 DUP10 0xD0 PUSH9 0x61CB2B64736F6C6343 STOP ADDMOD XOR STOP CALLER "},"methodIdentifiers":{"lpBalanceOf(address)":"9c46665c","lpDecimals()":"851ed85e","lpName()":"46cd6801","lpSymbol()":"ccb1637c","lpTotalSupply()":"66be2322","transferLP(address,uint256)":"05604958"}},"storageLayout":{"storage":[],"types":null}}}}