{"contracts/facets/StatsFacet.sol":{"StatsFacet":{"abi":[{"inputs":[{"internalType":"uint256","name":"usdcVolume","type":"uint256"}],"name":"_update","outputs":[],"stateMutability":"nonpayable","type":"function"},{"inputs":[],"name":"getPrice","outputs":[{"internalType":"uint256","name":"","type":"uint256"}],"stateMutability":"view","type":"function"},{"inputs":[],"name":"getReserves","outputs":[{"internalType":"uint256","name":"reserveToken","type":"uint256"},{"internalType":"uint256","name":"reserveUSDC","type":"uint256"}],"stateMutability":"view","type":"function"},{"inputs":[],"name":"getTotalVolume","outputs":[{"internalType":"uint256","name":"","type":"uint256"}],"stateMutability":"view","type":"function"}],"evm":{"bytecode":{"linkReferences":{},"object":"60808060405234610016576103c7908161001c8239f35b600080fdfe608060408181526004918236101561001657600080fd5b600092833560e01c9182630902f1ac1461032c575081630b9d98e9146102ee5781634a5889f01461009157506398d5fdca1461005157600080fd5b3461008d578160031936011261008d576020907fb51076b60e26de1cd17db4a90799e5681e06210a6aed55ded85918e6b5b9b748549051908152f35b5080fd5b9050346102ea576020806003193601126102e6578135923033036102a5573085527fb51076b60e26de1cd17db4a90799e5681e06210a6aed55ded85918e6b5b9b73c825260248186205492837fb51076b60e26de1cd17db4a90799e5681e06210a6aed55ded85918e6b5b9b746558060018060a01b037fb51076b60e26de1cd17db4a90799e5681e06210a6aed55ded85918e6b5b9b74554168451938480926370a0823160e01b8252308a8301525afa92831561029c57879361023d575b505050807fb51076b60e26de1cd17db4a90799e5681e06210a6aed55ded85918e6b5b9b74755811580156101d3575b5050508161018a578280f35b7fb51076b60e26de1cd17db4a90799e5681e06210a6aed55ded85918e6b5b9b7499081549283018093116101c057505538808280f35b634e487b7160e01b845260119052602483fd5b620f42409182810292818404149015171561022a5761021757047fb51076b60e26de1cd17db4a90799e5681e06210a6aed55ded85918e6b5b9b7485538808061017e565b634e487b7160e01b855260128352602485fd5b634e487b7160e01b865260118452602486fd5b9080929350903d8311610294575b601f8201601f191684019067ffffffffffffffff821185831017610281575282018290031261027d575138808061014f565b8480fd5b634e487b7160e01b895260418752602489fd5b3d915061024b565b513d88823e3d90fd5b5162461bcd60e51b815291820152601d60248201527f4d7573742062652063616c6c656420627920746865204469616d6f6e64000000604482015260649150fd5b8380fd5b8280fd5b50503461008d578160031936011261008d576020907fb51076b60e26de1cd17db4a90799e5681e06210a6aed55ded85918e6b5b9b749549051908152f35b8390853461038e578060031936011261038e57507fb51076b60e26de1cd17db4a90799e5681e06210a6aed55ded85918e6b5b9b746547fb51076b60e26de1cd17db4a90799e5681e06210a6aed55ded85918e6b5b9b747549082526020820152f35b80fdfea2646970667358221220d49df1df4557394590ed37d98e9e04272cba8802da7b72d42d3d2be00d622e8964736f6c63430008180033","opcodes":"PUSH1 0x80 DUP1 PUSH1 0x40 MSTORE CALLVALUE PUSH2 0x16 JUMPI PUSH2 0x3C7 SWAP1 DUP2 PUSH2 0x1C DUP3 CODECOPY RETURN JUMPDEST PUSH1 0x0 DUP1 REVERT INVALID PUSH1 0x80 PUSH1 0x40 DUP2 DUP2 MSTORE PUSH1 0x4 SWAP2 DUP3 CALLDATASIZE LT ISZERO PUSH2 0x16 JUMPI PUSH1 0x0 DUP1 REVERT JUMPDEST PUSH1 0x0 SWAP3 DUP4 CALLDATALOAD PUSH1 0xE0 SHR SWAP2 DUP3 PUSH4 0x902F1AC EQ PUSH2 0x32C JUMPI POP DUP2 PUSH4 0xB9D98E9 EQ PUSH2 0x2EE JUMPI DUP2 PUSH4 0x4A5889F0 EQ PUSH2 0x91 JUMPI POP PUSH4 0x98D5FDCA EQ PUSH2 0x51 JUMPI PUSH1 0x0 DUP1 REVERT JUMPDEST CALLVALUE PUSH2 0x8D JUMPI DUP2 PUSH1 0x3 NOT CALLDATASIZE ADD SLT PUSH2 0x8D JUMPI PUSH1 0x20 SWAP1 PUSH32 0xB51076B60E26DE1CD17DB4A90799E5681E06210A6AED55DED85918E6B5B9B748 SLOAD SWAP1 MLOAD SWAP1 DUP2 MSTORE RETURN JUMPDEST POP DUP1 REVERT JUMPDEST SWAP1 POP CALLVALUE PUSH2 0x2EA JUMPI PUSH1 0x20 DUP1 PUSH1 0x3 NOT CALLDATASIZE ADD SLT PUSH2 0x2E6 JUMPI DUP2 CALLDATALOAD SWAP3 ADDRESS CALLER SUB PUSH2 0x2A5 JUMPI ADDRESS DUP6 MSTORE PUSH32 0xB51076B60E26DE1CD17DB4A90799E5681E06210A6AED55DED85918E6B5B9B73C DUP3 MSTORE PUSH1 0x24 DUP2 DUP7 KECCAK256 SLOAD SWAP3 DUP4 PUSH32 0xB51076B60E26DE1CD17DB4A90799E5681E06210A6AED55DED85918E6B5B9B746 SSTORE DUP1 PUSH1 0x1 DUP1 PUSH1 0xA0 SHL SUB PUSH32 0xB51076B60E26DE1CD17DB4A90799E5681E06210A6AED55DED85918E6B5B9B745 SLOAD AND DUP5 MLOAD SWAP4 DUP5 DUP1 SWAP3 PUSH4 0x70A08231 PUSH1 0xE0 SHL DUP3 MSTORE ADDRESS DUP11 DUP4 ADD MSTORE GAS STATICCALL SWAP3 DUP4 ISZERO PUSH2 0x29C JUMPI DUP8 SWAP4 PUSH2 0x23D JUMPI JUMPDEST POP POP POP DUP1 PUSH32 0xB51076B60E26DE1CD17DB4A90799E5681E06210A6AED55DED85918E6B5B9B747 SSTORE DUP2 ISZERO DUP1 ISZERO PUSH2 0x1D3 JUMPI JUMPDEST POP POP POP DUP2 PUSH2 0x18A JUMPI DUP3 DUP1 RETURN JUMPDEST PUSH32 0xB51076B60E26DE1CD17DB4A90799E5681E06210A6AED55DED85918E6B5B9B749 SWAP1 DUP2 SLOAD SWAP3 DUP4 ADD DUP1 SWAP4 GT PUSH2 0x1C0 JUMPI POP SSTORE CODESIZE DUP1 DUP3 DUP1 RETURN JUMPDEST PUSH4 0x4E487B71 PUSH1 0xE0 SHL DUP5 MSTORE PUSH1 0x11 SWAP1 MSTORE PUSH1 0x24 DUP4 REVERT JUMPDEST PUSH3 0xF4240 SWAP2 DUP3 DUP2 MUL SWAP3 DUP2 DUP5 DIV EQ SWAP1 ISZERO OR ISZERO PUSH2 0x22A JUMPI PUSH2 0x217 JUMPI DIV PUSH32 0xB51076B60E26DE1CD17DB4A90799E5681E06210A6AED55DED85918E6B5B9B748 SSTORE CODESIZE DUP1 DUP1 PUSH2 0x17E JUMP JUMPDEST PUSH4 0x4E487B71 PUSH1 0xE0 SHL DUP6 MSTORE PUSH1 0x12 DUP4 MSTORE PUSH1 0x24 DUP6 REVERT JUMPDEST PUSH4 0x4E487B71 PUSH1 0xE0 SHL DUP7 MSTORE PUSH1 0x11 DUP5 MSTORE PUSH1 0x24 DUP7 REVERT JUMPDEST SWAP1 DUP1 SWAP3 SWAP4 POP SWAP1 RETURNDATASIZE DUP4 GT PUSH2 0x294 JUMPI JUMPDEST PUSH1 0x1F DUP3 ADD PUSH1 0x1F NOT AND DUP5 ADD SWAP1 PUSH8 0xFFFFFFFFFFFFFFFF DUP3 GT DUP6 DUP4 LT OR PUSH2 0x281 JUMPI MSTORE DUP3 ADD DUP3 SWAP1 SUB SLT PUSH2 0x27D JUMPI MLOAD CODESIZE DUP1 DUP1 PUSH2 0x14F JUMP JUMPDEST DUP5 DUP1 REVERT JUMPDEST PUSH4 0x4E487B71 PUSH1 0xE0 SHL DUP10 MSTORE PUSH1 0x41 DUP8 MSTORE PUSH1 0x24 DUP10 REVERT JUMPDEST RETURNDATASIZE SWAP2 POP PUSH2 0x24B JUMP JUMPDEST MLOAD RETURNDATASIZE DUP9 DUP3 RETURNDATACOPY RETURNDATASIZE SWAP1 REVERT JUMPDEST MLOAD PUSH3 0x461BCD PUSH1 0xE5 SHL DUP2 MSTORE SWAP2 DUP3 ADD MSTORE PUSH1 0x1D PUSH1 0x24 DUP3 ADD MSTORE PUSH32 0x4D7573742062652063616C6C656420627920746865204469616D6F6E64000000 PUSH1 0x44 DUP3 ADD MSTORE PUSH1 0x64 SWAP2 POP REVERT JUMPDEST DUP4 DUP1 REVERT JUMPDEST DUP3 DUP1 REVERT JUMPDEST POP POP CALLVALUE PUSH2 0x8D JUMPI DUP2 PUSH1 0x3 NOT CALLDATASIZE ADD SLT PUSH2 0x8D JUMPI PUSH1 0x20 SWAP1 PUSH32 0xB51076B60E26DE1CD17DB4A90799E5681E06210A6AED55DED85918E6B5B9B749 SLOAD SWAP1 MLOAD SWAP1 DUP2 MSTORE RETURN JUMPDEST DUP4 SWAP1 DUP6 CALLVALUE PUSH2 0x38E JUMPI DUP1 PUSH1 0x3 NOT CALLDATASIZE ADD SLT PUSH2 0x38E JUMPI POP PUSH32 0xB51076B60E26DE1CD17DB4A90799E5681E06210A6AED55DED85918E6B5B9B746 SLOAD PUSH32 0xB51076B60E26DE1CD17DB4A90799E5681E06210A6AED55DED85918E6B5B9B747 SLOAD SWAP1 DUP3 MSTORE PUSH1 0x20 DUP3 ADD MSTORE RETURN JUMPDEST DUP1 REVERT INVALID LOG2 PUSH5 0x6970667358 0x22 SLT KECCAK256 0xD4 SWAP14 CALL 0xDF GASLIMIT JUMPI CODECOPY GASLIMIT SWAP1 0xED CALLDATACOPY 0xD9 DUP15 SWAP15 DIV 0x27 0x2C 0xBA DUP9 MUL 0xDA PUSH28 0x72D42D3D2BE00D622E8964736F6C6343000818003300000000000000 "},"methodIdentifiers":{"_update(uint256)":"4a5889f0","getPrice()":"98d5fdca","getReserves()":"0902f1ac","getTotalVolume()":"0b9d98e9"}},"storageLayout":{"storage":[],"types":null}}}}