{
  "_format": "hh-sol-artifact-1",
  "contractName": "StatsFacet",
  "sourceName": "contracts/facets/StatsFacet.sol",
  "abi": [
    {
      "inputs": [
        {
          "internalType": "uint256",
          "name": "usdcVolume",
          "type": "uint256"
        }
      ],
      "name": "_update",
      "outputs": [],
      "stateMutability": "nonpayable",
      "type": "function"
    },
    {
      "inputs": [],
      "name": "getPrice",
      "outputs": [
        {
          "internalType": "uint256",
          "name": "",
          "type": "uint256"
        }
      ],
      "stateMutability": "view",
      "type": "function"
    },
    {
      "inputs": [],
      "name": "getReserves",
      "outputs": [
        {
          "internalType": "uint256",
          "name": "reserveToken",
          "type": "uint256"
        },
        {
          "internalType": "uint256",
          "name": "reserveUSDC",
          "type": "uint256"
        }
      ],
      "stateMutability": "view",
      "type": "function"
    },
    {
      "inputs": [],
      "name": "getTotalVolume",
      "outputs": [
        {
          "internalType": "uint256",
          "name": "",
          "type": "uint256"
        }
      ],
      "stateMutability": "view",
      "type": "function"
    }
  ],
  "bytecode": "0x60808060405234610016576103c7908161001c8239f35b600080fdfe608060408181526004918236101561001657600080fd5b600092833560e01c9182630902f1ac1461032c575081630b9d98e9146102ee5781634a5889f01461009157506398d5fdca1461005157600080fd5b3461008d578160031936011261008d576020907fb51076b60e26de1cd17db4a90799e5681e06210a6aed55ded85918e6b5b9b748549051908152f35b5080fd5b9050346102ea576020806003193601126102e6578135923033036102a5573085527fb51076b60e26de1cd17db4a90799e5681e06210a6aed55ded85918e6b5b9b73c825260248186205492837fb51076b60e26de1cd17db4a90799e5681e06210a6aed55ded85918e6b5b9b746558060018060a01b037fb51076b60e26de1cd17db4a90799e5681e06210a6aed55ded85918e6b5b9b74554168451938480926370a0823160e01b8252308a8301525afa92831561029c57879361023d575b505050807fb51076b60e26de1cd17db4a90799e5681e06210a6aed55ded85918e6b5b9b74755811580156101d3575b5050508161018a578280f35b7fb51076b60e26de1cd17db4a90799e5681e06210a6aed55ded85918e6b5b9b7499081549283018093116101c057505538808280f35b634e487b7160e01b845260119052602483fd5b620f42409182810292818404149015171561022a5761021757047fb51076b60e26de1cd17db4a90799e5681e06210a6aed55ded85918e6b5b9b7485538808061017e565b634e487b7160e01b855260128352602485fd5b634e487b7160e01b865260118452602486fd5b9080929350903d8311610294575b601f8201601f191684019067ffffffffffffffff821185831017610281575282018290031261027d575138808061014f565b8480fd5b634e487b7160e01b895260418752602489fd5b3d915061024b565b513d88823e3d90fd5b5162461bcd60e51b815291820152601d60248201527f4d7573742062652063616c6c656420627920746865204469616d6f6e64000000604482015260649150fd5b8380fd5b8280fd5b50503461008d578160031936011261008d576020907fb51076b60e26de1cd17db4a90799e5681e06210a6aed55ded85918e6b5b9b749549051908152f35b8390853461038e578060031936011261038e57507fb51076b60e26de1cd17db4a90799e5681e06210a6aed55ded85918e6b5b9b746547fb51076b60e26de1cd17db4a90799e5681e06210a6aed55ded85918e6b5b9b747549082526020820152f35b80fdfea2646970667358221220d49df1df4557394590ed37d98e9e04272cba8802da7b72d42d3d2be00d622e8964736f6c63430008180033",
  "linkReferences": {},
  "deployedLinkReferences": {}
}