{
  "_format": "hh-sol-artifact-1",
  "contractName": "LPTokenFacet",
  "sourceName": "contracts/facets/LPTokenFacet.sol",
  "abi": [
    {
      "anonymous": false,
      "inputs": [
        {
          "indexed": true,
          "internalType": "address",
          "name": "from",
          "type": "address"
        },
        {
          "indexed": true,
          "internalType": "address",
          "name": "to",
          "type": "address"
        },
        {
          "indexed": false,
          "internalType": "uint256",
          "name": "value",
          "type": "uint256"
        }
      ],
      "name": "Transfer",
      "type": "event"
    },
    {
      "inputs": [
        {
          "internalType": "address",
          "name": "account",
          "type": "address"
        }
      ],
      "name": "lpBalanceOf",
      "outputs": [
        {
          "internalType": "uint256",
          "name": "",
          "type": "uint256"
        }
      ],
      "stateMutability": "view",
      "type": "function"
    },
    {
      "inputs": [],
      "name": "lpDecimals",
      "outputs": [
        {
          "internalType": "uint8",
          "name": "",
          "type": "uint8"
        }
      ],
      "stateMutability": "pure",
      "type": "function"
    },
    {
      "inputs": [],
      "name": "lpName",
      "outputs": [
        {
          "internalType": "string",
          "name": "",
          "type": "string"
        }
      ],
      "stateMutability": "view",
      "type": "function"
    },
    {
      "inputs": [],
      "name": "lpSymbol",
      "outputs": [
        {
          "internalType": "string",
          "name": "",
          "type": "string"
        }
      ],
      "stateMutability": "view",
      "type": "function"
    },
    {
      "inputs": [],
      "name": "lpTotalSupply",
      "outputs": [
        {
          "internalType": "uint256",
          "name": "",
          "type": "uint256"
        }
      ],
      "stateMutability": "view",
      "type": "function"
    },
    {
      "inputs": [
        {
          "internalType": "address",
          "name": "recipient",
          "type": "address"
        },
        {
          "internalType": "uint256",
          "name": "amount",
          "type": "uint256"
        }
      ],
      "name": "transferLP",
      "outputs": [
        {
          "internalType": "bool",
          "name": "",
          "type": "bool"
        }
      ],
      "stateMutability": "nonpayable",
      "type": "function"
    }
  ],
  "bytecode": "0x6080806040523461001657610513908161001c8239f35b600080fdfe6040608081526004908136101561001557600080fd5b600090813560e01c8063056049581461032c57806346cd68011461023057806366be2322146101f3578063851ed85e146101d85780639c46665c146101ab5763ccb1637c1461006357600080fd5b346101a757816003193601126101a757805190827fb51076b60e26de1cd17db4a90799e5681e06210a6aed55ded85918e6b5b9b74480549060018260011c916001841693841561019d575b602094858510811461018a5784895290811561016c5750600114610117575b50505050829003601f01601f191682019267ffffffffffffffff841183851017610104575082918261010092528261045b565b0390f35b634e487b7160e01b815260418552602490fd5b87529192508591837f26c6de1b151be901a34433b3e0545f66b9d0fbcc169a7e8ea1e3b628126281235b8385106101585750505050830101388080806100cd565b805488860183015293019284908201610141565b60ff191688860152505050151560051b8401019050388080806100cd565b634e487b7160e01b8a5260228b5260248afd5b92607f16926100ae565b5080fd5b50346101a75760203660031901126101a7576020906101d06101cb610440565b6104a4565b549051908152f35b50346101a757816003193601126101a7576020905160068152f35b50346101a757816003193601126101a7576020907fb51076b60e26de1cd17db4a90799e5681e06210a6aed55ded85918e6b5b9b742549051908152f35b50346101a757816003193601126101a757805190827fb51076b60e26de1cd17db4a90799e5681e06210a6aed55ded85918e6b5b9b74380549060018260011c9160018416938415610322575b602094858510811461018a5784895290811561016c57506001146102cd5750505050829003601f01601f191682019267ffffffffffffffff841183851017610104575082918261010092528261045b565b87529192508591837f5b2cb101fa793ecc3e928682a82f080b675b5f312f381ba85806f2fecd50826d5b83851061030e5750505050830101388080806100cd565b8054888601830152930192849082016102f7565b92607f169261027c565b50903461043d578160031936011261043d57610346610440565b60243591610353336104a4565b548381106103ee578381039081116103db5761036e336104a4565b55610378826104a4565b8054918483018093116103c85750558251918252602093506001600160a01b03169033907fddf252ad1be2c89b69c2b068fc378daa952ba7f163c4a11628f55a4df523b3ef908590a35160018152f35b634e487b7160e01b815260118752602490fd5b634e487b7160e01b825260118652602482fd5b845162461bcd60e51b8152602081880152602360248201527f4c503a207472616e7366657220616d6f756e7420657863656564732062616c616044820152626e636560e81b6064820152608490fd5b80fd5b600435906001600160a01b038216820361045657565b600080fd5b6020808252825181830181905290939260005b82811061049057505060409293506000838284010152601f8019910116010190565b81810186015184820160400152850161046e565b6001600160a01b031660009081527fb51076b60e26de1cd17db4a90799e5681e06210a6aed55ded85918e6b5b9b741602052604090209056fea2646970667358221220f248d53110cfbf2a0b19eb6ddf7ccccb7232f9a70eb1f510eff189d06861cb2b64736f6c63430008180033",
  "linkReferences": {},
  "deployedLinkReferences": {}
}