{
  "_format": "hh-sol-artifact-1",
  "contractName": "ERC20Facet",
  "sourceName": "contracts/facets/ERC20Facet.sol",
  "abi": [
    {
      "anonymous": false,
      "inputs": [
        {
          "indexed": true,
          "internalType": "address",
          "name": "owner",
          "type": "address"
        },
        {
          "indexed": true,
          "internalType": "address",
          "name": "spender",
          "type": "address"
        },
        {
          "indexed": false,
          "internalType": "uint256",
          "name": "value",
          "type": "uint256"
        }
      ],
      "name": "Approval",
      "type": "event"
    },
    {
      "anonymous": false,
      "inputs": [
        {
          "indexed": true,
          "internalType": "address",
          "name": "from",
          "type": "address"
        },
        {
          "indexed": true,
          "internalType": "address",
          "name": "to",
          "type": "address"
        },
        {
          "indexed": false,
          "internalType": "uint256",
          "name": "value",
          "type": "uint256"
        }
      ],
      "name": "Transfer",
      "type": "event"
    },
    {
      "inputs": [
        {
          "internalType": "address",
          "name": "owner",
          "type": "address"
        },
        {
          "internalType": "address",
          "name": "spender",
          "type": "address"
        }
      ],
      "name": "allowance",
      "outputs": [
        {
          "internalType": "uint256",
          "name": "",
          "type": "uint256"
        }
      ],
      "stateMutability": "view",
      "type": "function"
    },
    {
      "inputs": [
        {
          "internalType": "address",
          "name": "spender",
          "type": "address"
        },
        {
          "internalType": "uint256",
          "name": "amount",
          "type": "uint256"
        }
      ],
      "name": "approve",
      "outputs": [
        {
          "internalType": "bool",
          "name": "",
          "type": "bool"
        }
      ],
      "stateMutability": "nonpayable",
      "type": "function"
    },
    {
      "inputs": [
        {
          "internalType": "address",
          "name": "account",
          "type": "address"
        }
      ],
      "name": "balanceOf",
      "outputs": [
        {
          "internalType": "uint256",
          "name": "",
          "type": "uint256"
        }
      ],
      "stateMutability": "view",
      "type": "function"
    },
    {
      "inputs": [],
      "name": "decimals",
      "outputs": [
        {
          "internalType": "uint8",
          "name": "",
          "type": "uint8"
        }
      ],
      "stateMutability": "pure",
      "type": "function"
    },
    {
      "inputs": [
        {
          "internalType": "string",
          "name": "_name",
          "type": "string"
        },
        {
          "internalType": "string",
          "name": "_symbol",
          "type": "string"
        }
      ],
      "name": "init",
      "outputs": [],
      "stateMutability": "nonpayable",
      "type": "function"
    },
    {
      "inputs": [],
      "name": "name",
      "outputs": [
        {
          "internalType": "string",
          "name": "",
          "type": "string"
        }
      ],
      "stateMutability": "view",
      "type": "function"
    },
    {
      "inputs": [],
      "name": "symbol",
      "outputs": [
        {
          "internalType": "string",
          "name": "",
          "type": "string"
        }
      ],
      "stateMutability": "view",
      "type": "function"
    },
    {
      "inputs": [],
      "name": "totalSupply",
      "outputs": [
        {
          "internalType": "uint256",
          "name": "",
          "type": "uint256"
        }
      ],
      "stateMutability": "view",
      "type": "function"
    },
    {
      "inputs": [
        {
          "internalType": "address",
          "name": "recipient",
          "type": "address"
        },
        {
          "internalType": "uint256",
          "name": "amount",
          "type": "uint256"
        }
      ],
      "name": "transfer",
      "outputs": [
        {
          "internalType": "bool",
          "name": "",
          "type": "bool"
        }
      ],
      "stateMutability": "nonpayable",
      "type": "function"
    },
    {
      "inputs": [
        {
          "internalType": "address",
          "name": "sender",
          "type": "address"
        },
        {
          "internalType": "address",
          "name": "recipient",
          "type": "address"
        },
        {
          "internalType": "uint256",
          "name": "amount",
          "type": "uint256"
        }
      ],
      "name": "transferFrom",
      "outputs": [
        {
          "internalType": "bool",
          "name": "",
          "type": "bool"
        }
      ],
      "stateMutability": "nonpayable",
      "type": "function"
    }
  ],
  "bytecode": "0x6080806040523461001657610b88908161001c8239f35b600080fdfe608060408181526004918236101561001657600080fd5b600092833560e01c91826306fdde031461081f57508163095ea7b3146107ab57816318160ddd1461076d57816323b872dd1461064b578163313ce5671461062f5781637029144c146102ac5750806370a082311461027f57806395d89b4114610178578063a9059cbb146100dc5763dd62ed3e1461009357600080fd5b346100d857806003193601126100d857806020926100af61095b565b6100c06100ba610976565b91610a55565b6001600160a01b039091168252845220549051908152f35b5080fd5b50346100d857806003193601126100d8576020906100f861095b565b6024359061011b8261010933610a8e565b5461011682821015610ac7565b610b22565b61012433610a8e565b5561012e81610a8e565b610139838254610b45565b905582519182526001600160a01b03169033907fddf252ad1be2c89b69c2b068fc378daa952ba7f163c4a11628f55a4df523b3ef908590a35160018152f35b50903461027c578060031936011261027c57815190807f30c3d94c9412176421426071a99648cfd101fdf4843cf6108b60739ebb404a5c80546101ba81610a1b565b8086529260209260019280841690811561024d57506001146101f6575b6101f287896101e8828a038361098c565b5191829182610912565b0390f35b815293507f41c9c4c36f051b05d0436fcb231fc7e171b5ef5a6caae12b8c6d62b654f0c78c5b83851061023a575050505081016020016101e8826101f238806101d7565b805486860184015293820193810161021c565b9150506101f2979550869350602092506101e894915060ff191682840152151560051b820101929438806101d7565b80fd5b50346100d85760203660031901126100d8576020906102a461029f61095b565b610a8e565b549051908152f35b839150346100d857826003193601126100d85767ffffffffffffffff813581811161062b576102de90369084016109c4565b91602435828111610627576102f690369083016109c4565b947f30c3d94c9412176421426071a99648cfd101fdf4843cf6108b60739ebb404a5b9081549061032582610a1b565b6105e557508451908482116105d25761033e8291610a1b565b95601f96878111610567575b506020908783116001146104e65788926104db575b50508160011b916000199060031b1c19161790555b84519182116104c857507f30c3d94c9412176421426071a99648cfd101fdf4843cf6108b60739ebb404a5c916103aa8354610a1b565b818111610469575b5060209082116001146103ec578394829394926103e1575b50508160011b916000199060031b1c191617905580f35b0151905084806103ca565b8284527f41c9c4c36f051b05d0436fcb231fc7e171b5ef5a6caae12b8c6d62b654f0c78c90601f198316855b81811061045157509583600195969710610438575b505050811b01905580f35b015160001960f88460031b161c1916905584808061042d565b9192602060018192868b015181550194019201610418565b8385527f41c9c4c36f051b05d0436fcb231fc7e171b5ef5a6caae12b8c6d62b654f0c78c8280850160051c820192602086106104bf575b0160051c01905b8181106104b457506103b2565b8581556001016104a7565b925081926104a0565b634e487b7160e01b845260419052602483fd5b01519050888061035f565b8489527fc6eca20b5910bb0bf53b65d139a0a10959064b121c399c67820ce8846191715a9250601f198416895b81811061054f5750908460019594939210610536575b505050811b019055610374565b015160001960f88460031b161c19169055888080610529565b92936020600181928786015181550195019301610513565b9091508388527fc6eca20b5910bb0bf53b65d139a0a10959064b121c399c67820ce8846191715a8780850160051c820192602086106105c9575b9085949392910160051c01905b8181106105bb575061034a565b8981558493506001016105ae565b925081926105a1565b634e487b7160e01b875260418452602487fd5b5162461bcd60e51b8152602081850152601a60248201527f45524332303a20416c726561647920696e697469616c697a65640000000000006044820152606490fd5b8480fd5b8380fd5b5050346100d857816003193601126100d8576020905160128152f35b82843461027c57606036600319011261027c5761066661095b565b9061066f610976565b6044359161067c84610a55565b338252602052848120548381106107195760209650918691866106ed867fddf252ad1be2c89b69c2b068fc378daa952ba7f163c4a11628f55a4df523b3ef966106c8826101098c610a8e565b6106d18b610a8e565b556106db86610a8e565b6106e6838254610b45565b9055610b22565b916106f788610a55565b3382528552205585519384526001600160a01b03908116941692a35160018152f35b855162461bcd60e51b8152602081890152602860248201527f45524332303a207472616e7366657220616d6f756e74206578636565647320616044820152676c6c6f77616e636560c01b6064820152608490fd5b5050346100d857816003193601126100d8576020907f30c3d94c9412176421426071a99648cfd101fdf4843cf6108b60739ebb404a5a549051908152f35b5050346100d857806003193601126100d857602091816107c961095b565b916024359182916107d933610a55565b6001600160a01b039095168082529487522055825190815233907f8c5be1e5ebec7d5bd14f71427d1e84f3dd0314c0f7b2291e5b200ac8c7c3b925908590a35160018152f35b8390853461027c578060031936011261027c57807f30c3d94c9412176421426071a99648cfd101fdf4843cf6108b60739ebb404a5b805461085f81610a1b565b808652926020926001928084169081156108e3575060011461088c576101f287896101e8828a038361098c565b815293507fc6eca20b5910bb0bf53b65d139a0a10959064b121c399c67820ce8846191715a5b8385106108d0575050505081016020016101e8826101f286806101d7565b80548686018401529382019381016108b2565b9150506101f2979550869350602092506101e894915060ff191682840152151560051b820101929486806101d7565b6020808252825181830181905290939260005b82811061094757505060409293506000838284010152601f8019910116010190565b818101860151848201604001528501610925565b600435906001600160a01b038216820361097157565b600080fd5b602435906001600160a01b038216820361097157565b90601f8019910116810190811067ffffffffffffffff8211176109ae57604052565b634e487b7160e01b600052604160045260246000fd5b81601f820112156109715780359067ffffffffffffffff82116109ae57604051926109f9601f8401601f19166020018561098c565b8284526020838301011161097157816000926020809301838601378301015290565b90600182811c92168015610a4b575b6020831014610a3557565b634e487b7160e01b600052602260045260246000fd5b91607f1691610a2a565b6001600160a01b031660009081527f30c3d94c9412176421426071a99648cfd101fdf4843cf6108b60739ebb404a596020526040902090565b6001600160a01b031660009081527f30c3d94c9412176421426071a99648cfd101fdf4843cf6108b60739ebb404a586020526040902090565b15610ace57565b60405162461bcd60e51b815260206004820152602660248201527f45524332303a207472616e7366657220616d6f756e7420657863656564732062604482015265616c616e636560d01b6064820152608490fd5b91908203918211610b2f57565b634e487b7160e01b600052601160045260246000fd5b91908201809211610b2f5756fea26469706673582212202b506422433442a97b87f46fda7770d312306b3f48edf6f5999880613691aa9e64736f6c63430008180033",
  "linkReferences": {},
  "deployedLinkReferences": {}
}