{
  "_format": "hh-sol-artifact-1",
  "contractName": "ERC20Facet",
  "sourceName": "contracts/facets/ERC20Facet.sol",
  "abi": [
    {
      "anonymous": false,
      "inputs": [
        {
          "indexed": true,
          "internalType": "address",
          "name": "owner",
          "type": "address"
        },
        {
          "indexed": true,
          "internalType": "address",
          "name": "spender",
          "type": "address"
        },
        {
          "indexed": false,
          "internalType": "uint256",
          "name": "value",
          "type": "uint256"
        }
      ],
      "name": "Approval",
      "type": "event"
    },
    {
      "anonymous": false,
      "inputs": [
        {
          "indexed": true,
          "internalType": "address",
          "name": "from",
          "type": "address"
        },
        {
          "indexed": true,
          "internalType": "address",
          "name": "to",
          "type": "address"
        },
        {
          "indexed": false,
          "internalType": "uint256",
          "name": "value",
          "type": "uint256"
        }
      ],
      "name": "Transfer",
      "type": "event"
    },
    {
      "inputs": [
        {
          "internalType": "address",
          "name": "owner",
          "type": "address"
        },
        {
          "internalType": "address",
          "name": "spender",
          "type": "address"
        }
      ],
      "name": "allowance",
      "outputs": [
        {
          "internalType": "uint256",
          "name": "",
          "type": "uint256"
        }
      ],
      "stateMutability": "view",
      "type": "function"
    },
    {
      "inputs": [
        {
          "internalType": "address",
          "name": "spender",
          "type": "address"
        },
        {
          "internalType": "uint256",
          "name": "amount",
          "type": "uint256"
        }
      ],
      "name": "approve",
      "outputs": [
        {
          "internalType": "bool",
          "name": "",
          "type": "bool"
        }
      ],
      "stateMutability": "nonpayable",
      "type": "function"
    },
    {
      "inputs": [
        {
          "internalType": "address",
          "name": "account",
          "type": "address"
        }
      ],
      "name": "balanceOf",
      "outputs": [
        {
          "internalType": "uint256",
          "name": "",
          "type": "uint256"
        }
      ],
      "stateMutability": "view",
      "type": "function"
    },
    {
      "inputs": [],
      "name": "decimals",
      "outputs": [
        {
          "internalType": "uint8",
          "name": "",
          "type": "uint8"
        }
      ],
      "stateMutability": "pure",
      "type": "function"
    },
    {
      "inputs": [
        {
          "internalType": "string",
          "name": "_name",
          "type": "string"
        },
        {
          "internalType": "string",
          "name": "_symbol",
          "type": "string"
        },
        {
          "internalType": "uint256",
          "name": "_initialSupply",
          "type": "uint256"
        }
      ],
      "name": "init",
      "outputs": [],
      "stateMutability": "nonpayable",
      "type": "function"
    },
    {
      "inputs": [],
      "name": "name",
      "outputs": [
        {
          "internalType": "string",
          "name": "",
          "type": "string"
        }
      ],
      "stateMutability": "view",
      "type": "function"
    },
    {
      "inputs": [],
      "name": "symbol",
      "outputs": [
        {
          "internalType": "string",
          "name": "",
          "type": "string"
        }
      ],
      "stateMutability": "view",
      "type": "function"
    },
    {
      "inputs": [],
      "name": "totalSupply",
      "outputs": [
        {
          "internalType": "uint256",
          "name": "",
          "type": "uint256"
        }
      ],
      "stateMutability": "view",
      "type": "function"
    },
    {
      "inputs": [
        {
          "internalType": "address",
          "name": "recipient",
          "type": "address"
        },
        {
          "internalType": "uint256",
          "name": "amount",
          "type": "uint256"
        }
      ],
      "name": "transfer",
      "outputs": [
        {
          "internalType": "bool",
          "name": "",
          "type": "bool"
        }
      ],
      "stateMutability": "nonpayable",
      "type": "function"
    },
    {
      "inputs": [
        {
          "internalType": "address",
          "name": "sender",
          "type": "address"
        },
        {
          "internalType": "address",
          "name": "recipient",
          "type": "address"
        },
        {
          "internalType": "uint256",
          "name": "amount",
          "type": "uint256"
        }
      ],
      "name": "transferFrom",
      "outputs": [
        {
          "internalType": "bool",
          "name": "",
          "type": "bool"
        }
      ],
      "stateMutability": "nonpayable",
      "type": "function"
    }
  ],
  "bytecode": "0x6080806040523461001657610c1d908161001c8239f35b600080fdfe608060408181526004918236101561001657600080fd5b600092833560e01c91826306fdde03146108b457508163095ea7b31461084057816318160ddd1461080257816323b872dd146106e05781632eabc917146102c757508063313ce567146102ac57806370a082311461027f57806395d89b4114610178578063a9059cbb146100dc5763dd62ed3e1461009357600080fd5b346100d857806003193601126100d857806020926100af6109f0565b6100c06100ba610a0b565b91610aea565b6001600160a01b039091168252845220549051908152f35b5080fd5b50346100d857806003193601126100d8576020906100f86109f0565b6024359061011b8261010933610b23565b5461011682821015610b5c565b610bb7565b61012433610b23565b5561012e81610b23565b610139838254610bda565b905582519182526001600160a01b03169033907fddf252ad1be2c89b69c2b068fc378daa952ba7f163c4a11628f55a4df523b3ef908590a35160018152f35b50903461027c578060031936011261027c57815190807f101d598f5b86f0716f3fa55ce60dd3bf1c4c8346d892a476cafa24b868adc52580546101ba81610ab0565b8086529260209260019280841690811561024d57506001146101f6575b6101f287896101e8828a0383610a21565b51918291826109a7565b0390f35b815293507f69bcb3e6a4793a0ad234fb12c7905fa48c367c55cfb3970ba79f10daf694cd745b83851061023a575050505081016020016101e8826101f238806101d7565b805486860184015293820193810161021c565b9150506101f2979550869350602092506101e894915060ff191682840152151560051b820101929438806101d7565b80fd5b50346100d85760203660031901126100d8576020906102a461029f6109f0565b610b23565b549051908152f35b50346100d857816003193601126100d8576020905160128152f35b919050346106dc5760603660031901126106dc5767ffffffffffffffff9180358381116106d8576102fb9036908301610a59565b926024358181116106d4576103139036908401610a59565b90604435947f101d598f5b86f0716f3fa55ce60dd3bf1c4c8346d892a476cafa24b868adc524805461034481610ab0565b61069b578251908482116106885761035c8291610ab0565b93601f9485811161061d575b5060209085831160011461059c578b92610591575b50508160011b916000199060031b1c19161790555b825191821161057e5781907f101d598f5b86f0716f3fa55ce60dd3bf1c4c8346d892a476cafa24b868adc525936103c98554610ab0565b828111610510575b50602091831160011461048f578892610484575b50508160011b916000199060031b1c19161790555b670de0b6b3a7640000928381029381850414901517156104715750817f101d598f5b86f0716f3fa55ce60dd3bf1c4c8346d892a476cafa24b868adc523558161044233610b23565b5551908152817fddf252ad1be2c89b69c2b068fc378daa952ba7f163c4a11628f55a4df523b3ef60203393a380f35b634e487b7160e01b845260119052602483fd5b0151905038806103e5565b8489527f69bcb3e6a4793a0ad234fb12c7905fa48c367c55cfb3970ba79f10daf694cd749250601f198416895b8181106104f857509084600195949392106104df575b505050811b0190556103fa565b015160001960f88460031b161c191690553880806104d2565b929360206001819287860151815501950193016104bc565b909192508489527f69bcb3e6a4793a0ad234fb12c7905fa48c367c55cfb3970ba79f10daf694cd748380860160051c82019260208710610575575b94869594939291940160051c01905b81811061056757506103d1565b8a815585945060010161055a565b9250819261054b565b634e487b7160e01b875260418452602487fd5b01519050388061037d565b848c527f2723ee3743b1c8173a5c5bf93d604c3406d18cd5067e97e008458e8ff508151c9250601f1984168c5b81811061060557509084600195949392106105ec575b505050811b019055610392565b015160001960f88460031b161c191690553880806105df565b929360206001819287860151815501950193016105c9565b909150838b527f2723ee3743b1c8173a5c5bf93d604c3406d18cd5067e97e008458e8ff508151c8580850160051c8201926020861061067f575b9085949392910160051c01905b8181106106715750610368565b8c8155849350600101610664565b92508192610657565b634e487b7160e01b8a526041875260248afd5b865162461bcd60e51b81526020818801526013602482015272105b1c9958591e481a5b9a5d1a585b1a5e9959606a1b6044820152606490fd5b8580fd5b8480fd5b8280fd5b82843461027c57606036600319011261027c576106fb6109f0565b90610704610a0b565b6044359161071184610aea565b338252602052848120548381106107ae576020965091869186610782867fddf252ad1be2c89b69c2b068fc378daa952ba7f163c4a11628f55a4df523b3ef9661075d826101098c610b23565b6107668b610b23565b5561077086610b23565b61077b838254610bda565b9055610bb7565b9161078c88610aea565b3382528552205585519384526001600160a01b03908116941692a35160018152f35b855162461bcd60e51b8152602081890152602860248201527f45524332303a207472616e7366657220616d6f756e74206578636565647320616044820152676c6c6f77616e636560c01b6064820152608490fd5b5050346100d857816003193601126100d8576020907f101d598f5b86f0716f3fa55ce60dd3bf1c4c8346d892a476cafa24b868adc523549051908152f35b5050346100d857806003193601126100d8576020918161085e6109f0565b9160243591829161086e33610aea565b6001600160a01b039095168082529487522055825190815233907f8c5be1e5ebec7d5bd14f71427d1e84f3dd0314c0f7b2291e5b200ac8c7c3b925908590a35160018152f35b8390853461027c578060031936011261027c57807f101d598f5b86f0716f3fa55ce60dd3bf1c4c8346d892a476cafa24b868adc52480546108f481610ab0565b808652926020926001928084169081156109785750600114610921576101f287896101e8828a0383610a21565b815293507f2723ee3743b1c8173a5c5bf93d604c3406d18cd5067e97e008458e8ff508151c5b838510610965575050505081016020016101e8826101f286806101d7565b8054868601840152938201938101610947565b9150506101f2979550869350602092506101e894915060ff191682840152151560051b820101929486806101d7565b6020808252825181830181905290939260005b8281106109dc57505060409293506000838284010152601f8019910116010190565b8181018601518482016040015285016109ba565b600435906001600160a01b0382168203610a0657565b600080fd5b602435906001600160a01b0382168203610a0657565b90601f8019910116810190811067ffffffffffffffff821117610a4357604052565b634e487b7160e01b600052604160045260246000fd5b81601f82011215610a065780359067ffffffffffffffff8211610a435760405192610a8e601f8401601f191660200185610a21565b82845260208383010111610a0657816000926020809301838601378301015290565b90600182811c92168015610ae0575b6020831014610aca57565b634e487b7160e01b600052602260045260246000fd5b91607f1691610abf565b6001600160a01b031660009081527f101d598f5b86f0716f3fa55ce60dd3bf1c4c8346d892a476cafa24b868adc5226020526040902090565b6001600160a01b031660009081527f101d598f5b86f0716f3fa55ce60dd3bf1c4c8346d892a476cafa24b868adc5216020526040902090565b15610b6357565b60405162461bcd60e51b815260206004820152602660248201527f45524332303a207472616e7366657220616d6f756e7420657863656564732062604482015265616c616e636560d01b6064820152608490fd5b91908203918211610bc457565b634e487b7160e01b600052601160045260246000fd5b91908201809211610bc45756fea26469706673582212201578d4a186aa99155a0f0e94da228ec39e0c260a0ddb7d3283b062ca09c8eeb264736f6c63430008180033",
  "linkReferences": {},
  "deployedLinkReferences": {}
}