{
  "_format": "hh-sol-artifact-1",
  "contractName": "PoolFacet",
  "sourceName": "contracts/facets/PoolFacet.sol",
  "abi": [
    {
      "anonymous": false,
      "inputs": [
        {
          "indexed": true,
          "internalType": "address",
          "name": "user",
          "type": "address"
        },
        {
          "indexed": false,
          "internalType": "uint256",
          "name": "lpMinted",
          "type": "uint256"
        },
        {
          "indexed": false,
          "internalType": "uint256",
          "name": "usdcAmount",
          "type": "uint256"
        }
      ],
      "name": "LiquidityAdded",
      "type": "event"
    },
    {
      "anonymous": false,
      "inputs": [
        {
          "indexed": true,
          "internalType": "address",
          "name": "user",
          "type": "address"
        },
        {
          "indexed": false,
          "internalType": "uint256",
          "name": "lpBurned",
          "type": "uint256"
        },
        {
          "indexed": false,
          "internalType": "uint256",
          "name": "pxlAmount",
          "type": "uint256"
        },
        {
          "indexed": false,
          "internalType": "uint256",
          "name": "usdcAmount",
          "type": "uint256"
        }
      ],
      "name": "LiquidityRemoved",
      "type": "event"
    },
    {
      "anonymous": false,
      "inputs": [
        {
          "indexed": true,
          "internalType": "address",
          "name": "user",
          "type": "address"
        },
        {
          "indexed": false,
          "internalType": "uint256",
          "name": "amountIn",
          "type": "uint256"
        },
        {
          "indexed": false,
          "internalType": "uint256",
          "name": "amountOut",
          "type": "uint256"
        },
        {
          "indexed": true,
          "internalType": "address",
          "name": "tokenIn",
          "type": "address"
        }
      ],
      "name": "Swap",
      "type": "event"
    },
    {
      "anonymous": false,
      "inputs": [
        {
          "indexed": true,
          "internalType": "address",
          "name": "from",
          "type": "address"
        },
        {
          "indexed": true,
          "internalType": "address",
          "name": "to",
          "type": "address"
        },
        {
          "indexed": false,
          "internalType": "uint256",
          "name": "value",
          "type": "uint256"
        }
      ],
      "name": "Transfer",
      "type": "event"
    },
    {
      "inputs": [
        {
          "internalType": "uint256",
          "name": "usdcAmount",
          "type": "uint256"
        }
      ],
      "name": "addLiquidity",
      "outputs": [],
      "stateMutability": "nonpayable",
      "type": "function"
    },
    {
      "inputs": [],
      "name": "getPXLPrice",
      "outputs": [
        {
          "internalType": "uint256",
          "name": "price",
          "type": "uint256"
        }
      ],
      "stateMutability": "view",
      "type": "function"
    },
    {
      "inputs": [],
      "name": "getReserves",
      "outputs": [
        {
          "internalType": "uint256",
          "name": "reservePXL",
          "type": "uint256"
        },
        {
          "internalType": "uint256",
          "name": "reserveUSDC",
          "type": "uint256"
        }
      ],
      "stateMutability": "view",
      "type": "function"
    },
    {
      "inputs": [
        {
          "internalType": "string",
          "name": "_tokenName",
          "type": "string"
        },
        {
          "internalType": "string",
          "name": "_tokenSymbol",
          "type": "string"
        },
        {
          "internalType": "uint256",
          "name": "_initialTokenSupply",
          "type": "uint256"
        },
        {
          "internalType": "address",
          "name": "_usdcAddress",
          "type": "address"
        }
      ],
      "name": "init",
      "outputs": [],
      "stateMutability": "nonpayable",
      "type": "function"
    },
    {
      "inputs": [
        {
          "internalType": "address",
          "name": "account",
          "type": "address"
        }
      ],
      "name": "lpBalanceOf",
      "outputs": [
        {
          "internalType": "uint256",
          "name": "",
          "type": "uint256"
        }
      ],
      "stateMutability": "view",
      "type": "function"
    },
    {
      "inputs": [
        {
          "internalType": "uint256",
          "name": "lpAmount",
          "type": "uint256"
        }
      ],
      "name": "removeLiquidity",
      "outputs": [],
      "stateMutability": "nonpayable",
      "type": "function"
    },
    {
      "inputs": [
        {
          "internalType": "uint256",
          "name": "amountIn",
          "type": "uint256"
        },
        {
          "internalType": "address",
          "name": "tokenIn",
          "type": "address"
        }
      ],
      "name": "swap",
      "outputs": [],
      "stateMutability": "nonpayable",
      "type": "function"
    }
  ],
  "bytecode": "0x6080806040523461001657610ff1908161001c8239f35b600080fdfe60406080815260048036101561001457600080fd5b600091823560e01c80630902f1ac14610b3557806351c6590a14610950578063685d0a961461052857806368ca8e74146105005780639c46665c146104c45780639c8f9f23146103155763d3986f081461006d57600080fd5b346103115780600319360112610311576001600160a01b036024358181169380359392909185900361030d576100a1610c62565b9091600080516020610f9c83398151915281815416881460001461020c575485516323b872dd60e01b81523386820190815230602082810191909152604082018a9052919391928492169082908c90829060600103925af190811561020257906101129189916101d3575b50610d62565b6103e5918286029286840414861517156101c0576101309083610d01565b926103e8918281029281840414901517156101ad57509161017661017c927f2a9237ff5aa599ef4c5ee4b1142b53429d5755e2685fe6288b2e3320202115f59594610e04565b90610d2a565b6101868130610eae565b61018f33610bf0565b61019a828254610e04565b90555b815193845260208401523392a380f35b634e487b7160e01b885260119052602487fd5b634e487b7160e01b885260118452602488fd5b6101f5915060203d6020116101fb575b6101ed8183610b5c565b810190610d4a565b3861010c565b503d6101e3565b85513d8a823e3d90fd5b9290939161021933610bf0565b610224888254610df7565b90556102308730610e11565b6103e5908188029188830414881517156102fa5761024e9082610d01565b916103e8908181029181830414901517156102fa576102ac94926101766020959361027893610e04565b9154865163a9059cbb60e01b815233928101928352602083018490529295929485939091169183918b918391604090910190565b03925af19081156102f0577f2a9237ff5aa599ef4c5ee4b1142b53429d5755e2685fe6288b2e3320202115f59392916102eb9188916101d35750610d62565b61019d565b83513d88823e3d90fd5b634e487b7160e01b8a526011845260248afd5b8580fd5b8280fd5b50903461031157602091826003193601126104c057610340823593610338610c62565b929086610d01565b936103817f17756e7333c37ce4d830b74bfb15e55c8c8c3412515bebc84e81f7b32910cbca9561037c61037588548093610d2a565b9589610d01565b610d2a565b9461038b33610c29565b5487811061047d5761040c9284926103a48a8a94610df7565b6103ad33610c29565b556103b98a8254610df7565b90556103c58630610eae565b600080516020610f9c83398151915254875163a9059cbb60e01b8152339281019283526020830193909352919384926001600160a01b03169183918c918391604090910190565b03925af1908115610473579061042891889161045c5750610d62565b82519485528401528201527f1dc8bb69df2b8e91fbdcbfcf93d951b3f0000f085a95fe3f7946d6161439245d60603392a280f35b6101f59150833d85116101fb576101ed8183610b5c565b84513d89823e3d90fd5b855162461bcd60e51b8152808401859052601f60248201527f4c503a206275726e20616d6f756e7420657863656564732062616c616e6365006044820152606490fd5b8380fd5b5090346103115760203660031901126103115735916001600160a01b03831683036104fd57506104f5602092610c29565b549051908152f35b80fd5b83823461052457816003193601126105245760209061051d610da5565b9051908152f35b5080fd5b5090346103115760803660031901126103115767ffffffffffffffff90803582811161094c5761055b9036908301610b94565b9160243581811161030d576105739036908401610b94565b906064359360018060a01b03851680950361094857600080516020610f9c8339815191529560ff875460a01c1661091057508051928284116108fd577f17756e7333c37ce4d830b74bfb15e55c8c8c3412515bebc84e81f7b32910cbc7918254926001958685811c95169283156108f3575b602093848710146108e0578190601f96878111610871575b5084908d8884116001146107f457926107e9575b5050600019600383901b1c191690871b1790555b81519384116107d6577f17756e7333c37ce4d830b74bfb15e55c8c8c3412515bebc84e81f7b32910cbc8958654908682811c921680156107cc575b838310146107b95750838111610758575b50809284116001146106d7575092829391839289946106cc575b50501b916000199060031b1c19161790555b81546001600160a01b0319161781556106b860443530610e11565b805460ff60a01b1916600160a01b17905580f35b01519250388061068b565b919083601f198116878b527f74910373f181c6833031399c7627e773436bd37759d0d573f4e5fa6e674a0566948b905b8883831061073e5750505010610725575b505050811b01905561069d565b015160001960f88460031b161c19169055388080610718565b858701518855909601959485019487935090810190610707565b868a527f74910373f181c6833031399c7627e773436bd37759d0d573f4e5fa6e674a05668480870160051c8201928488106107b0575b0160051c019086905b8281106107a5575050610671565b8b8155018690610797565b9250819261078e565b634e487b7160e01b8b526022905260248afd5b91607f1691610660565b634e487b7160e01b895260418652602489fd5b015190503880610611565b91908a9450601f1984168684527fee50c1baa780082585cf08a8dc7364cc89122f9412c4f8c6fa1ef207daf14d42935b8882821061085b5750508411610842575b505050811b019055610625565b015160001960f88460031b161c19169055388080610835565b8385015186558d97909501949384019301610824565b909150838d527fee50c1baa780082585cf08a8dc7364cc89122f9412c4f8c6fa1ef207daf14d428780850160051c8201928786106108d7575b859493910160051c909101908a908f5b8382106108c9575050506105fd565b81558594508b91018f6108ba565b925081926108aa565b634e487b7160e01b8c526022895260248cfd5b94607f16946105e5565b634e487b7160e01b885260418552602488fd5b5162461bcd60e51b81526020818601526013602482015272105b1c9958591e481a5b9a5d1a585b1a5e9959606a1b6044820152606490fd5b8680fd5b8480fd5b5082903461052457602090816003193601126103115783357f17756e7333c37ce4d830b74bfb15e55c8c8c3412515bebc84e81f7b32910cbca92835415600014610ac05761099d30610bf0565b54935b8415610a875782610a1e9697826109b988869554610e04565b90556109c433610c29565b6109cf888254610e04565b9055600080516020610f9c8339815191525486516323b872dd60e01b8152339281019283523060208401526040830193909352919788926001600160a01b03169183918b918391606090910190565b03925af19485156102f0577fac1d76749e5447b7b16f5ab61447e1bd502f3bb4807af3b28e620d1700a6ee459495610a5c918891610a6a5750610d62565b82519485528401523392a280f35b610a819150833d85116101fb576101ed8183610b5c565b8861010c565b835162461bcd60e51b815280880183905260136024820152724d757374206d696e74204c502073686172657360681b6044820152606490fd5b61037c610ad7610ace610c62565b92839186610d01565b8015610afc5790610aeb610af69230610e11565b61037c865485610d01565b936109a0565b845162461bcd60e51b81528089018490526013602482015272125b9cdd59999a58da595b9d08185b5bdd5b9d606a1b6044820152606490fd5b5082346104fd57806003193601126104fd5750610b50610c62565b82519182526020820152f35b90601f8019910116810190811067ffffffffffffffff821117610b7e57604052565b634e487b7160e01b600052604160045260246000fd5b81601f82011215610beb5780359067ffffffffffffffff8211610b7e5760405192610bc9601f8401601f191660200185610b5c565b82845260208383010111610beb57816000926020809301838601378301015290565b600080fd5b6001600160a01b031660009081527f17756e7333c37ce4d830b74bfb15e55c8c8c3412515bebc84e81f7b32910cbc46020526040902090565b6001600160a01b031660009081527f17756e7333c37ce4d830b74bfb15e55c8c8c3412515bebc84e81f7b32910cbc96020526040902090565b6000610c6d30610bf0565b54600080516020610f9c833981519152549092906001600160a01b031680610c925750565b6040516370a0823160e01b8152306004820152919250602090829060249082905afa908115610cf557600091610cc6575090565b90506020813d602011610ced575b81610ce160209383610b5c565b81010312610beb575190565b3d9150610cd4565b6040513d6000823e3d90fd5b81810292918115918404141715610d1457565b634e487b7160e01b600052601160045260246000fd5b8115610d34570490565b634e487b7160e01b600052601260045260246000fd5b90816020910312610beb57518015158103610beb5790565b15610d6957565b60405162461bcd60e51b81526020600482015260146024820152731554d110c81d1c985b9cd9995c8819985a5b195960621b6044820152606490fd5b610dad610c62565b81158015610def575b610de857670de0b6b3a764000090818102918183041490151715610d145764e8d4a51000610de5920490610d2a565b90565b5050600090565b508015610db6565b91908203918211610d1457565b91908201809211610d1457565b7fddf252ad1be2c89b69c2b068fc378daa952ba7f163c4a11628f55a4df523b3ef60206000927f17756e7333c37ce4d830b74bfb15e55c8c8c3412515bebc84e81f7b32910cbc6610e63868254610e04565b905560018060a01b0316938484527f17756e7333c37ce4d830b74bfb15e55c8c8c3412515bebc84e81f7b32910cbc4825260408420610ea3828254610e04565b9055604051908152a3565b6001600160a01b031660008181527f17756e7333c37ce4d830b74bfb15e55c8c8c3412515bebc84e81f7b32910cbc46020819052604090912054838110610f5757837fddf252ad1be2c89b69c2b068fc378daa952ba7f163c4a11628f55a4df523b3ef92610f20600096602094610df7565b90858752835260408620557f17756e7333c37ce4d830b74bfb15e55c8c8c3412515bebc84e81f7b32910cbc6610ea3828254610df7565b606460405162461bcd60e51b815260206004820152602060248201527f50584c3a206275726e20616d6f756e7420657863656564732062616c616e63656044820152fdfe17756e7333c37ce4d830b74bfb15e55c8c8c3412515bebc84e81f7b32910cbcba264697066735822122005a0bcd5e3eaae5185ca768ad138eb9ec042e9e50d1c028ae8225558e96598ea64736f6c63430008180033",
  "linkReferences": {},
  "deployedLinkReferences": {}
}