{
  "_format": "hh-sol-artifact-1",
  "contractName": "Initializer",
  "sourceName": "contracts/Initializer.sol",
  "abi": [
    {
      "anonymous": false,
      "inputs": [
        {
          "indexed": true,
          "internalType": "address",
          "name": "from",
          "type": "address"
        },
        {
          "indexed": true,
          "internalType": "address",
          "name": "to",
          "type": "address"
        },
        {
          "indexed": false,
          "internalType": "uint256",
          "name": "value",
          "type": "uint256"
        }
      ],
      "name": "Transfer",
      "type": "event"
    },
    {
      "inputs": [
        {
          "internalType": "string",
          "name": "_tokenName",
          "type": "string"
        },
        {
          "internalType": "string",
          "name": "_tokenSymbol",
          "type": "string"
        },
        {
          "internalType": "uint256",
          "name": "_initialTokenSupply",
          "type": "uint256"
        },
        {
          "internalType": "address",
          "name": "_usdcAddress",
          "type": "address"
        },
        {
          "internalType": "address",
          "name": "_initialOwner",
          "type": "address"
        }
      ],
      "name": "initialize",
      "outputs": [],
      "stateMutability": "nonpayable",
      "type": "function"
    }
  ],
  "bytecode": "0x6080806040523461001657610af1908161001c8239f35b600080fdfe6080604052600436101561001257600080fd5b60003560e01c637e77c5031461002757600080fd5b3461093c5760a036600319011261093c5760043567ffffffffffffffff811161093c57610058903690600401610979565b6024803567ffffffffffffffff811161093c57610079903690600401610979565b91606435916001600160a01b0391828416840361093c57608435838116810361093c5760ff7fb51076b60e26de1cd17db4a90799e5681e06210a6aed55ded85918e6b5b9b74a541661090257815167ffffffffffffffff81116107d657600080516020610a9c83398151915254600181811c911680156108f8575b60208210146107b757601f8111610882575b50806020601f82116001146107f6576000916107eb575b508160011b916000199060031b1c191617600080516020610a9c833981519152555b855167ffffffffffffffff81116107d657600080516020610a5c83398151915254600181811c911680156107cc575b60208210146107b757601f8111610741575b50806020601f82116001146106b3576000916106a8575b508160011b916000199060031b1c191617600080516020610a5c833981519152555b620f4240908160443502916044358304146044351517156106935761026f928260007fddf252ad1be2c89b69c2b068fc378daa952ba7f163c4a11628f55a4df523b3ef602089600396610287987fb51076b60e26de1cd17db4a90799e5681e06210a6aed55ded85918e6b5b9b73e5581811685527fb51076b60e26de1cd17db4a90799e5681e06210a6aed55ded85918e6b5b9b73c83528560408620556040519586521693a360405193849160208301906109d0565b620204c560ec1b815203601c19810184520182610941565b80519067ffffffffffffffff821161067e57600080516020610a3c83398151915254600181811c91168015610674575b602082101461065f57601f81116105e9575b50602090601f83116001146105515795826103379360039361031f99600092610546575b50508160011b9160001990851b1c191617600080516020610a3c833981519152555b60405196879160208301906109d0565b6202d4c560ec1b815203601c19810187520185610941565b835167ffffffffffffffff8111610531577fb51076b60e26de1cd17db4a90799e5681e06210a6aed55ded85918e6b5b9b74491825490600182811c92168015610527575b60208310146105135750601f81116104af575b50602094601f821160011461042d57948192939495600092610422575b50508160011b916000199060031b1c19161790555b7fb51076b60e26de1cd17db4a90799e5681e06210a6aed55ded85918e6b5b9b74580546001600160a01b031916919092161790557fb51076b60e26de1cd17db4a90799e5681e06210a6aed55ded85918e6b5b9b74a805460ff19166001179055005b0151905038806103ab565b601f19821695836000527f26c6de1b151be901a34433b3e0545f66b9d0fbcc169a7e8ea1e3b628126281239160005b8881106104975750836001959697981061047e575b505050811b0190556103c0565b015160001960f88460031b161c19169055388080610471565b9192602060018192868501518155019401920161045c565b826000527f26c6de1b151be901a34433b3e0545f66b9d0fbcc169a7e8ea1e3b62812628123601f830160051c81019160208410610509575b601f0160051c01905b8181106104fd575061038e565b600081556001016104f0565b90915081906104e7565b634e487b7160e01b60009081526022600452fd5b91607f169161037b565b50634e487b7160e01b60009081526041600452fd5b0151905038806102ed565b90600080516020610a3c8339815191526000526000805160206109fc8339815191529160005b601f19851681106105d157508360039361031f999360019361033797601f198116106105b9575b505050811b01600080516020610a3c8339815191525561030f565b015160001983871b60f8161c1916905538808061059e565b91926020600181928685015181550194019201610577565b600080516020610a3c833981519152600052601f830160051c6000805160206109fc833981519152016020841061064a575b601f820160051c6000805160206109fc83398151915201811061063e57506102c9565b6000815560010161061b565b506000805160206109fc83398151915261061b565b83634e487b7160e01b60005260226004526000fd5b90607f16906102b7565b82634e487b7160e01b60005260416004526000fd5b83634e487b7160e01b60005260116004526000fd5b905087015138610197565b600080516020610a5c8339815191526000908152600080516020610a7c8339815191529250601f198416905b8a8282106107295750509083600194939210610710575b5050811b01600080516020610a5c833981519152556101b9565b89015160001960f88460031b161c1916905538806106f6565b600184956020939584930151815501940192016106df565b600080516020610a5c833981519152600052601f820160051c600080516020610a7c83398151915201602083106107a2575b601f820160051c600080516020610a7c8339815191520181106107965750610180565b60008155600101610773565b50600080516020610a7c833981519152610773565b84634e487b7160e01b60005260226004526000fd5b90607f169061016e565b83634e487b7160e01b60005260416004526000fd5b90508301513861011d565b600080516020610a9c8339815191526000908152600080516020610a1c8339815191529250601f198416905b81811061086a57509083600194939210610851575b5050811b01600080516020610a9c8339815191525561013f565b85015160001960f88460031b161c191690553880610837565b9192602060018192868a015181550194019201610822565b600080516020610a9c833981519152600052601f820160051c600080516020610a1c83398151915201602083106108e3575b601f820160051c600080516020610a1c8339815191520181106108d75750610106565b600081556001016108b4565b50600080516020610a1c8339815191526108b4565b90607f16906100f4565b60405162461bcd60e51b81526020600482015260138185015272105b1c9958591e481a5b9a5d1a585b1a5e9959606a1b6044820152606490fd5b600080fd5b90601f8019910116810190811067ffffffffffffffff82111761096357604052565b634e487b7160e01b600052604160045260246000fd5b81601f8201121561093c5780359067ffffffffffffffff821161096357604051926109ae601f8401601f191660200185610941565b8284526020838301011161093c57816000926020809301838601378301015290565b9081519160005b8381106109e8575050016000815290565b80602080928401015181850152016109d756fe5b2cb101fa793ecc3e928682a82f080b675b5f312f381ba85806f2fecd50826da4c3a42491534ba725ba5a11e36dc420bab42eb42da50bfa0a79663f3dba93afb51076b60e26de1cd17db4a90799e5681e06210a6aed55ded85918e6b5b9b743b51076b60e26de1cd17db4a90799e5681e06210a6aed55ded85918e6b5b9b740662c2a99e8673f942ea7e2bc68904680752620a8afd73037a64d0d58b43ed93fb51076b60e26de1cd17db4a90799e5681e06210a6aed55ded85918e6b5b9b73fa26469706673582212202f976f13ce5d020bc3ec46b3da85920aacfc0552b6a3ef447a36b4e5847d3da964736f6c63430008180033",
  "linkReferences": {},
  "deployedLinkReferences": {}
}