{
  "_format": "hh-sol-artifact-1",
  "contractName": "PoolFacet",
  "sourceName": "contracts/facets/PoolFacet.sol",
  "abi": [
    {
      "anonymous": false,
      "inputs": [
        {
          "indexed": true,
          "internalType": "address",
          "name": "user",
          "type": "address"
        },
        {
          "indexed": false,
          "internalType": "uint256",
          "name": "lpMinted",
          "type": "uint256"
        },
        {
          "indexed": false,
          "internalType": "uint256",
          "name": "tokenAmount",
          "type": "uint256"
        },
        {
          "indexed": false,
          "internalType": "uint256",
          "name": "usdcAmount",
          "type": "uint256"
        }
      ],
      "name": "LiquidityAdded",
      "type": "event"
    },
    {
      "anonymous": false,
      "inputs": [
        {
          "indexed": true,
          "internalType": "address",
          "name": "user",
          "type": "address"
        },
        {
          "indexed": false,
          "internalType": "uint256",
          "name": "lpBurned",
          "type": "uint256"
        },
        {
          "indexed": false,
          "internalType": "uint256",
          "name": "tokenAmount",
          "type": "uint256"
        },
        {
          "indexed": false,
          "internalType": "uint256",
          "name": "usdcAmount",
          "type": "uint256"
        }
      ],
      "name": "LiquidityRemoved",
      "type": "event"
    },
    {
      "anonymous": false,
      "inputs": [
        {
          "indexed": true,
          "internalType": "address",
          "name": "user",
          "type": "address"
        },
        {
          "indexed": false,
          "internalType": "uint256",
          "name": "amountIn",
          "type": "uint256"
        },
        {
          "indexed": false,
          "internalType": "uint256",
          "name": "amountOut",
          "type": "uint256"
        },
        {
          "indexed": true,
          "internalType": "address",
          "name": "tokenIn",
          "type": "address"
        }
      ],
      "name": "Swap",
      "type": "event"
    },
    {
      "anonymous": false,
      "inputs": [
        {
          "indexed": true,
          "internalType": "address",
          "name": "from",
          "type": "address"
        },
        {
          "indexed": true,
          "internalType": "address",
          "name": "to",
          "type": "address"
        },
        {
          "indexed": false,
          "internalType": "uint256",
          "name": "value",
          "type": "uint256"
        }
      ],
      "name": "Transfer",
      "type": "event"
    },
    {
      "inputs": [
        {
          "internalType": "uint256",
          "name": "tokenAmount",
          "type": "uint256"
        },
        {
          "internalType": "uint256",
          "name": "usdcAmount",
          "type": "uint256"
        }
      ],
      "name": "addLiquidity",
      "outputs": [],
      "stateMutability": "nonpayable",
      "type": "function"
    },
    {
      "inputs": [
        {
          "internalType": "uint256",
          "name": "lpAmount",
          "type": "uint256"
        }
      ],
      "name": "removeLiquidity",
      "outputs": [],
      "stateMutability": "nonpayable",
      "type": "function"
    },
    {
      "inputs": [
        {
          "internalType": "uint256",
          "name": "amountIn",
          "type": "uint256"
        },
        {
          "internalType": "address",
          "name": "tokenIn",
          "type": "address"
        }
      ],
      "name": "swap",
      "outputs": [],
      "stateMutability": "nonpayable",
      "type": "function"
    }
  ],
  "bytecode": "0x6080806040523461001657610b2b908161001c8239f35b600080fdfe60806040908082526004918236101561001757600080fd5b600091823560e01c9081639c8f9f23146106f7575080639cd441da146104025763d3986f081461004657600080fd5b346103fe57806003193601126103fe57602480356001600160a01b038181169386359390928590036103fa578251630240bc6b60e21b81529683888281305afa80156103f057879888916103bd575b507fb51076b60e26de1cd17db4a90799e5681e06210a6aed55ded85918e6b5b9b7459380855416881460001461029e57935485516323b872dd60e01b81523384820190815230602082810191909152604082018a90529a9b999a98998a9790938a928492919091169082908f90829060600103925af1908115610294578b91610277575b5015610273576103e5908189029189830414891517156102615761013d9082610a41565b916103e890818102918183041490151715610261579161016461016a928c97969594610aa2565b90610a6a565b855163a9059cbb60e01b81523383820190815260208101839052919791829082908190604001038189305af1801561025757610229575b50505b303b1561022557839185519384926304a5889f60e41b84528301528183305af1801561021b57610203575b50507f2a9237ff5aa599ef4c5ee4b1142b53429d5755e2685fe6288b2e3320202115f591815193845260208401523392a380f35b61020c906109da565b6102175784386101cf565b8480fd5b83513d84823e3d90fd5b8380fd5b8161024892903d10610250575b6102408183610a04565b810190610a8a565b5038806101a1565b503d610236565b87513d88823e3d90fd5b634e487b7160e01b8b5260118452848bfd5b8980fd5b61028e9150883d8a11610250576102408183610a04565b38610119565b87513d8d823e3d90fd5b85516323b872dd60e01b815233848201908152306020808301829052604083018b90529398979695949291849183918290036060019082908f905af18015610294576103a0575b506103e590818902918983041489151715610261576103049082610a41565b9a6103e890818102918183041490151715610261576103676103328c9d6101648e9a9b9c9d9e958795610aa2565b9654895163a9059cbb60e01b815233878201908152602081018a9052989b8c9991958694939091169284928391604090910190565b03925af1918215610257578692610383575b50506101a4578380fd5b6103999250803d10610250576102408183610a04565b3880610379565b6103b690833d8511610250576102408183610a04565b50386102e5565b90506103e0919850843d86116103e9575b6103d88183610a04565b810190610a26565b97909738610095565b503d6103ce565b84513d89823e3d90fd5b8580fd5b5080fd5b508290346106f357806003193601126106f35780516323b872dd60e01b80825233828501908152306020828101919091528535604083018190529095602435949193909290919087908290819060600103818b305af180156106e9576106cc575b507fb51076b60e26de1cd17db4a90799e5681e06210a6aed55ded85918e6b5b9b7455485519182523383830190815230602082015260408101869052879183918290036060019082908b906001600160a01b03165af180156106a5576106af575b508351630240bc6b60e21b81529484868381305afa80156106a55787968891610682575b507fb51076b60e26de1cd17db4a90799e5681e06210a6aed55ded85918e6b5b9b74290815497881560001461064a57505064e8d4a51000965b87156106075790610535888a959493610aa2565b905561054033610aaf565b61054b888254610aa2565b9055827fddf252ad1be2c89b69c2b068fc378daa952ba7f163c4a11628f55a4df523b3ef8751928984523393a3303b156103fe5784516304a5889f60e41b8152908101829052818160248183305af180156105fd576105e9575b505091519283526020830191909152604082015233907f64b83944e79c3ce8d4c297411de637c3e102d064677aac0c163976ebdcd6f50e9080606081015b0390a280f35b6105f2906109da565b6102175784866105a5565b85513d84823e3d90fd5b865162461bcd60e51b8152808501849052601d60248201527f496e73756666696369656e74206c6971756964697479206d696e7465640000006044820152606490fd5b61066061066b9161065b8b89610a41565b610a6a565b9161065b8a89610a41565b8082101561067b57505b96610521565b9050610675565b905061069c919650853d87116103e9576103d88183610a04565b959095886104e8565b85513d89823e3d90fd5b6106c590863d8811610250576102408183610a04565b50866104c4565b6106e290873d8911610250576102408183610a04565b5087610463565b86513d8a823e3d90fd5b8280fd5b83858492346106f3576020908160031936011261022557630240bc6b60e21b815282359285828281305afa91821561091d57859086936109b8575b5061073d9085610a41565b926107797fb51076b60e26de1cd17db4a90799e5681e06210a6aed55ded85918e6b5b9b7429461065b61077287548093610a6a565b9588610a41565b9361078333610aaf565b54868110610975578661079591610ae8565b61079e33610aaf565b556107aa868254610ae8565b90558587518681527fddf252ad1be2c89b69c2b068fc378daa952ba7f163c4a11628f55a4df523b3ef833392a3865163a9059cbb60e01b808252338483019081526020810186905290919083908290819060400103818b305af1801561096b5761094e575b507fb51076b60e26de1cd17db4a90799e5681e06210a6aed55ded85918e6b5b9b7455488519182523384830190815260208101879052839183918290036040019082908b906001600160a01b03165af1918215610944578792610927575b50501561021757303b156102175785516304a5889f60e41b8152908101859052848160248183305af1801561091d576108e6575b506105e37f1dc8bb69df2b8e91fbdcbfcf93d951b3f0000f085a95fe3f7946d6161439245d939495519283923396846040919493926060820195825260208201520152565b7f1dc8bb69df2b8e91fbdcbfcf93d951b3f0000f085a95fe3f7946d6161439245d93946109156105e3926109da565b9493506108a1565b86513d87823e3d90fd5b61093d9250803d10610250576102408183610a04565b878061086d565b88513d89823e3d90fd5b61096490833d8511610250576102408183610a04565b508861080f565b89513d8a823e3d90fd5b885162461bcd60e51b8152808501849052601f60248201527f4c503a206275726e20616d6f756e7420657863656564732062616c616e6365006044820152606490fd5b61073d93506109d49150873d89116103e9576103d88183610a04565b92610732565b67ffffffffffffffff81116109ee57604052565b634e487b7160e01b600052604160045260246000fd5b90601f8019910116810190811067ffffffffffffffff8211176109ee57604052565b9190826040910312610a3c576020825192015190565b600080fd5b81810292918115918404141715610a5457565b634e487b7160e01b600052601160045260246000fd5b8115610a74570490565b634e487b7160e01b600052601260045260246000fd5b90816020910312610a3c57518015158103610a3c5790565b91908201809211610a5457565b6001600160a01b031660009081527fb51076b60e26de1cd17db4a90799e5681e06210a6aed55ded85918e6b5b9b7416020526040902090565b91908203918211610a545756fea26469706673582212206fe0fc69d53a6774762ba59c6e4cb064888a53563bc6a0e0e27b0604b10de96e64736f6c63430008180033",
  "linkReferences": {},
  "deployedLinkReferences": {}
}